{
  "contractName": "Airdrop",
  "abi": [
    {
      "inputs": [
        {
          "internalType": "address",
          "name": "tokenAddress",
          "type": "address"
        },
        {
          "internalType": "uint256",
          "name": "_airdropAmount",
          "type": "uint256"
        }
      ],
      "stateMutability": "nonpayable",
      "type": "constructor"
    },
    {
      "anonymous": false,
      "inputs": [
        {
          "indexed": true,
          "internalType": "address",
          "name": "claimant",
          "type": "address"
        },
        {
          "indexed": false,
          "internalType": "uint256",
          "name": "amount",
          "type": "uint256"
        }
      ],
      "name": "AirdropClaimed",
      "type": "event"
    },
    {
      "inputs": [],
      "name": "airdropAmount",
      "outputs": [
        {
          "internalType": "uint256",
          "name": "",
          "type": "uint256"
        }
      ],
      "stateMutability": "view",
      "type": "function",
      "constant": true
    },
    {
      "inputs": [
        {
          "internalType": "address",
          "name": "",
          "type": "address"
        }
      ],
      "name": "claimed",
      "outputs": [
        {
          "internalType": "bool",
          "name": "",
          "type": "bool"
        }
      ],
      "stateMutability": "view",
      "type": "function",
      "constant": true
    },
    {
      "inputs": [],
      "name": "owner",
      "outputs": [
        {
          "internalType": "address",
          "name": "",
          "type": "address"
        }
      ],
      "stateMutability": "view",
      "type": "function",
      "constant": true
    },
    {
      "inputs": [],
      "name": "token",
      "outputs": [
        {
          "internalType": "contract IERC20",
          "name": "",
          "type": "address"
        }
      ],
      "stateMutability": "view",
      "type": "function",
      "constant": true
    },
    {
      "inputs": [],
      "name": "claimAirdrop",
      "outputs": [],
      "stateMutability": "nonpayable",
      "type": "function"
    },
    {
      "inputs": [
        {
          "internalType": "uint256",
          "name": "amount",
          "type": "uint256"
        }
      ],
      "name": "withdrawTokens",
      "outputs": [],
      "stateMutability": "nonpayable",
      "type": "function"
    }
  ],
  "bytecode": "0x608060405234801561001057600080fd5b506040516106b33803806106b383398101604081905261002f916100ba565b6001600160a01b0382166100895760405162461bcd60e51b815260206004820152601560248201527f496e76616c696420746f6b656e20616464726573730000000000000000000000604482015260640160405180910390fd5b600080546001600160a01b039093166001600160a01b031993841617905560015560038054909116331790556100f4565b600080604083850312156100cd57600080fd5b82516001600160a01b03811681146100e457600080fd5b6020939093015192949293505050565b6105b0806101036000396000f3fe608060405234801561001057600080fd5b50600436106100625760003560e01c8063315a095d146100675780635b88349d1461007c5780638da5cb5b14610084578063c884ef83146100b4578063fc0c546a146100e7578063fc2ea8a5146100fa575b600080fd5b61007a6100753660046104f6565b610111565b005b61007a6102ca565b600354610097906001600160a01b031681565b6040516001600160a01b0390911681526020015b60405180910390f35b6100d76100c236600461050f565b60026020526000908152604090205460ff1681565b60405190151581526020016100ab565b600054610097906001600160a01b031681565b61010360015481565b6040519081526020016100ab565b6003546001600160a01b0316331461015c5760405162461bcd60e51b81526020600482015260096024820152682737ba1037bbb732b960b91b60448201526064015b60405180910390fd5b6000546040516370a0823160e01b815230600482015282916001600160a01b0316906370a0823190602401602060405180830381865afa1580156101a4573d6000803e3d6000fd5b505050506040513d601f19601f820116820180604052508101906101c8919061053f565b101561020a5760405162461bcd60e51b81526020600482015260116024820152704e6f7420656e6f75676820746f6b656e7360781b6044820152606401610153565b60005460035460405163a9059cbb60e01b81526001600160a01b0391821660048201526024810184905291169063a9059cbb906044016020604051808303816000875af115801561025f573d6000803e3d6000fd5b505050506040513d601f19601f820116820180604052508101906102839190610558565b6102c75760405162461bcd60e51b8152602060048201526015602482015274151bdad95b881d1c985b9cd9995c8819985a5b1959605a1b6044820152606401610153565b50565b3360009081526002602052604090205460ff161561032a5760405162461bcd60e51b815260206004820152601760248201527f41697264726f7020616c726561647920636c61696d65640000000000000000006044820152606401610153565b6001546000546040516370a0823160e01b81523060048201526001600160a01b03909116906370a0823190602401602060405180830381865afa158015610375573d6000803e3d6000fd5b505050506040513d601f19601f82011682018060405250810190610399919061053f565b10156103e75760405162461bcd60e51b815260206004820152601d60248201527f4e6f7420656e6f75676820746f6b656e7320696e20636f6e74726163740000006044820152606401610153565b33600081815260026020526040808220805460ff1916600190811790915591549154905163a9059cbb60e01b8152600481019390935260248301526001600160a01b03169063a9059cbb906044016020604051808303816000875af1158015610454573d6000803e3d6000fd5b505050506040513d601f19601f820116820180604052508101906104789190610558565b6104bc5760405162461bcd60e51b8152602060048201526015602482015274151bdad95b881d1c985b9cd9995c8819985a5b1959605a1b6044820152606401610153565b60015460405190815233907f650e45f04ef8a0c267b2f78d983913f69ae3a353b2b32de5429307522be0ab559060200160405180910390a2565b60006020828403121561050857600080fd5b5035919050565b60006020828403121561052157600080fd5b81356001600160a01b038116811461053857600080fd5b9392505050565b60006020828403121561055157600080fd5b5051919050565b60006020828403121561056a57600080fd5b8151801515811461053857600080fdfea264697066735822122008a1e81a2e24748dcc485fc0b41e4b239a1468dcea50903f5e0173e22713624164736f6c63430008140033",
  "immutableReferences": {},
  "source": "// SPDX-License-Identifier: MIT\npragma solidity ^0.8.20;\n\ninterface IERC20 {\n    function transfer(address recipient, uint256 amount) external returns (bool);\n    function balanceOf(address account) external view returns (uint256);\n}\n\n/// @title Airdrop Contract\n/// @notice This contract allows users to claim an airdrop of tokens. Each address can claim only once.\n/// @dev The contract must be pre-funded with enough tokens for the airdrop.\ncontract Airdrop {\n    IERC20 public token;             // The ERC20 token contract used for the airdrop\n    uint256 public airdropAmount;    // The amount of tokens each user receives (in the token's smallest unit)\n    mapping(address => bool) public claimed;  // Mapping to track which addresses have claimed the airdrop\n\n    address public owner;            // The owner of the contract\n\n    event AirdropClaimed(address indexed claimant, uint256 amount);\n\n    /// @notice Modifier to restrict functions to only the owner.\n    modifier onlyOwner() {\n        require(msg.sender == owner, \"Not owner\");\n        _;\n    }\n\n    /// @notice Constructor sets the token address and airdrop amount.\n    /// @param tokenAddress The address of the ERC20 token contract.\n    /// @param _airdropAmount The amount of tokens each user can claim (in the token's smallest unit).\n    constructor(address tokenAddress, uint256 _airdropAmount) {\n        require(tokenAddress != address(0), \"Invalid token address\");\n        token = IERC20(tokenAddress);\n        airdropAmount = _airdropAmount;\n        owner = msg.sender;\n    }\n\n    /// @notice Allows a user to claim the airdrop. Each address can only claim once.\n    function claimAirdrop() external {\n        require(!claimed[msg.sender], \"Airdrop already claimed\");\n        require(token.balanceOf(address(this)) >= airdropAmount, \"Not enough tokens in contract\");\n\n        claimed[msg.sender] = true;\n        require(token.transfer(msg.sender, airdropAmount), \"Token transfer failed\");\n        emit AirdropClaimed(msg.sender, airdropAmount);\n    }\n\n    /// @notice Allows the owner to withdraw tokens from the contract.\n    /// @param amount The amount of tokens to withdraw (in the token's smallest unit).\n    function withdrawTokens(uint256 amount) external onlyOwner {\n        require(token.balanceOf(address(this)) >= amount, \"Not enough tokens\");\n        require(token.transfer(owner, amount), \"Token transfer failed\");\n    }\n}\n",
  "sourcePath": "/Users/yosgi/freelancer/DeFiForge/apps/contracts/contracts/Airdrop.sol",
  "compiler": {
    "name": "solc",
    "version": "0.8.20+commit.a1b79de6.Emscripten.clang"
  },
  "schemaVersion": "3.4.16",
  "updatedAt": "2025-02-23T06:27:44.105Z",
  "networkType": "ethereum",
  "devdoc": {
    "details": "The contract must be pre-funded with enough tokens for the airdrop.",
    "kind": "dev",
    "methods": {
      "constructor": {
        "params": {
          "_airdropAmount": "The amount of tokens each user can claim (in the token's smallest unit).",
          "tokenAddress": "The address of the ERC20 token contract."
        }
      },
      "withdrawTokens(uint256)": {
        "params": {
          "amount": "The amount of tokens to withdraw (in the token's smallest unit)."
        }
      }
    },
    "title": "Airdrop Contract",
    "version": 1
  },
  "userdoc": {
    "kind": "user",
    "methods": {
      "claimAirdrop()": {
        "notice": "Allows a user to claim the airdrop. Each address can only claim once."
      },
      "constructor": {
        "notice": "Constructor sets the token address and airdrop amount."
      },
      "withdrawTokens(uint256)": {
        "notice": "Allows the owner to withdraw tokens from the contract."
      }
    },
    "notice": "This contract allows users to claim an airdrop of tokens. Each address can claim only once.",
    "version": 1
  }
}