{
  "contractName": "ERC20DecimalsMock",
  "abi": [
    {
      "inputs": [
        {
          "internalType": "string",
          "name": "name",
          "type": "string"
        },
        {
          "internalType": "string",
          "name": "symbol",
          "type": "string"
        },
        {
          "internalType": "uint8",
          "name": "_decimals",
          "type": "uint8"
        }
      ],
      "stateMutability": "nonpayable",
      "type": "constructor"
    },
    {
      "inputs": [
        {
          "internalType": "address",
          "name": "spender",
          "type": "address"
        },
        {
          "internalType": "uint256",
          "name": "allowance",
          "type": "uint256"
        },
        {
          "internalType": "uint256",
          "name": "needed",
          "type": "uint256"
        }
      ],
      "name": "ERC20InsufficientAllowance",
      "type": "error"
    },
    {
      "inputs": [
        {
          "internalType": "address",
          "name": "sender",
          "type": "address"
        },
        {
          "internalType": "uint256",
          "name": "balance",
          "type": "uint256"
        },
        {
          "internalType": "uint256",
          "name": "needed",
          "type": "uint256"
        }
      ],
      "name": "ERC20InsufficientBalance",
      "type": "error"
    },
    {
      "inputs": [
        {
          "internalType": "address",
          "name": "approver",
          "type": "address"
        }
      ],
      "name": "ERC20InvalidApprover",
      "type": "error"
    },
    {
      "inputs": [
        {
          "internalType": "address",
          "name": "receiver",
          "type": "address"
        }
      ],
      "name": "ERC20InvalidReceiver",
      "type": "error"
    },
    {
      "inputs": [
        {
          "internalType": "address",
          "name": "sender",
          "type": "address"
        }
      ],
      "name": "ERC20InvalidSender",
      "type": "error"
    },
    {
      "inputs": [
        {
          "internalType": "address",
          "name": "spender",
          "type": "address"
        }
      ],
      "name": "ERC20InvalidSpender",
      "type": "error"
    },
    {
      "anonymous": false,
      "inputs": [
        {
          "indexed": true,
          "internalType": "address",
          "name": "owner",
          "type": "address"
        },
        {
          "indexed": true,
          "internalType": "address",
          "name": "spender",
          "type": "address"
        },
        {
          "indexed": false,
          "internalType": "uint256",
          "name": "value",
          "type": "uint256"
        }
      ],
      "name": "Approval",
      "type": "event"
    },
    {
      "anonymous": false,
      "inputs": [
        {
          "indexed": true,
          "internalType": "address",
          "name": "from",
          "type": "address"
        },
        {
          "indexed": true,
          "internalType": "address",
          "name": "to",
          "type": "address"
        },
        {
          "indexed": false,
          "internalType": "uint256",
          "name": "value",
          "type": "uint256"
        }
      ],
      "name": "Transfer",
      "type": "event"
    },
    {
      "inputs": [
        {
          "internalType": "address",
          "name": "owner",
          "type": "address"
        },
        {
          "internalType": "address",
          "name": "spender",
          "type": "address"
        }
      ],
      "name": "allowance",
      "outputs": [
        {
          "internalType": "uint256",
          "name": "",
          "type": "uint256"
        }
      ],
      "stateMutability": "view",
      "type": "function",
      "constant": true
    },
    {
      "inputs": [
        {
          "internalType": "address",
          "name": "spender",
          "type": "address"
        },
        {
          "internalType": "uint256",
          "name": "value",
          "type": "uint256"
        }
      ],
      "name": "approve",
      "outputs": [
        {
          "internalType": "bool",
          "name": "",
          "type": "bool"
        }
      ],
      "stateMutability": "nonpayable",
      "type": "function"
    },
    {
      "inputs": [
        {
          "internalType": "address",
          "name": "account",
          "type": "address"
        }
      ],
      "name": "balanceOf",
      "outputs": [
        {
          "internalType": "uint256",
          "name": "",
          "type": "uint256"
        }
      ],
      "stateMutability": "view",
      "type": "function",
      "constant": true
    },
    {
      "inputs": [],
      "name": "name",
      "outputs": [
        {
          "internalType": "string",
          "name": "",
          "type": "string"
        }
      ],
      "stateMutability": "view",
      "type": "function",
      "constant": true
    },
    {
      "inputs": [],
      "name": "symbol",
      "outputs": [
        {
          "internalType": "string",
          "name": "",
          "type": "string"
        }
      ],
      "stateMutability": "view",
      "type": "function",
      "constant": true
    },
    {
      "inputs": [],
      "name": "tokenDecimals",
      "outputs": [
        {
          "internalType": "uint8",
          "name": "",
          "type": "uint8"
        }
      ],
      "stateMutability": "view",
      "type": "function",
      "constant": true
    },
    {
      "inputs": [],
      "name": "totalSupply",
      "outputs": [
        {
          "internalType": "uint256",
          "name": "",
          "type": "uint256"
        }
      ],
      "stateMutability": "view",
      "type": "function",
      "constant": true
    },
    {
      "inputs": [
        {
          "internalType": "address",
          "name": "to",
          "type": "address"
        },
        {
          "internalType": "uint256",
          "name": "value",
          "type": "uint256"
        }
      ],
      "name": "transfer",
      "outputs": [
        {
          "internalType": "bool",
          "name": "",
          "type": "bool"
        }
      ],
      "stateMutability": "nonpayable",
      "type": "function"
    },
    {
      "inputs": [
        {
          "internalType": "address",
          "name": "from",
          "type": "address"
        },
        {
          "internalType": "address",
          "name": "to",
          "type": "address"
        },
        {
          "internalType": "uint256",
          "name": "value",
          "type": "uint256"
        }
      ],
      "name": "transferFrom",
      "outputs": [
        {
          "internalType": "bool",
          "name": "",
          "type": "bool"
        }
      ],
      "stateMutability": "nonpayable",
      "type": "function"
    },
    {
      "inputs": [
        {
          "internalType": "address",
          "name": "account",
          "type": "address"
        },
        {
          "internalType": "uint256",
          "name": "amount",
          "type": "uint256"
        }
      ],
      "name": "mint",
      "outputs": [],
      "stateMutability": "nonpayable",
      "type": "function"
    },
    {
      "inputs": [
        {
          "internalType": "address",
          "name": "account",
          "type": "address"
        },
        {
          "internalType": "uint256",
          "name": "amount",
          "type": "uint256"
        }
      ],
      "name": "burn",
      "outputs": [],
      "stateMutability": "nonpayable",
      "type": "function"
    },
    {
      "inputs": [
        {
          "internalType": "address",
          "name": "from",
          "type": "address"
        },
        {
          "internalType": "address",
          "name": "to",
          "type": "address"
        },
        {
          "internalType": "uint256",
          "name": "value",
          "type": "uint256"
        }
      ],
      "name": "transferInternal",
      "outputs": [],
      "stateMutability": "nonpayable",
      "type": "function"
    },
    {
      "inputs": [
        {
          "internalType": "address",
          "name": "owner",
          "type": "address"
        },
        {
          "internalType": "address",
          "name": "spender",
          "type": "address"
        },
        {
          "internalType": "uint256",
          "name": "value",
          "type": "uint256"
        }
      ],
      "name": "approveInternal",
      "outputs": [],
      "stateMutability": "nonpayable",
      "type": "function"
    },
    {
      "inputs": [],
      "name": "decimals",
      "outputs": [
        {
          "internalType": "uint8",
          "name": "",
          "type": "uint8"
        }
      ],
      "stateMutability": "view",
      "type": "function",
      "constant": true
    }
  ],
  "bytecode": "0x60806040523480156200001157600080fd5b5060405162000ba038038062000ba0833981016040819052620000349162000139565b828260036200004483826200024d565b5060046200005382826200024d565b50506005805460ff191660ff93909316929092179091555062000319915050565b634e487b7160e01b600052604160045260246000fd5b600082601f8301126200009c57600080fd5b81516001600160401b0380821115620000b957620000b962000074565b604051601f8301601f19908116603f01168101908282118183101715620000e457620000e462000074565b816040528381526020925086838588010111156200010157600080fd5b600091505b8382101562000125578582018301518183018401529082019062000106565b600093810190920192909252949350505050565b6000806000606084860312156200014f57600080fd5b83516001600160401b03808211156200016757600080fd5b62000175878388016200008a565b945060208601519150808211156200018c57600080fd5b506200019b868287016200008a565b925050604084015160ff81168114620001b357600080fd5b809150509250925092565b600181811c90821680620001d357607f821691505b602082108103620001f457634e487b7160e01b600052602260045260246000fd5b50919050565b601f8211156200024857600081815260208120601f850160051c81016020861015620002235750805b601f850160051c820191505b8181101562000244578281556001016200022f565b5050505b505050565b81516001600160401b0381111562000269576200026962000074565b62000281816200027a8454620001be565b84620001fa565b602080601f831160018114620002b95760008415620002a05750858301515b600019600386901b1c1916600185901b17855562000244565b600085815260208120601f198616915b82811015620002ea57888601518255948401946001909101908401620002c9565b5085821015620003095787850151600019600388901b60f8161c191681555b5050505050600190811b01905550565b61087780620003296000396000f3fe608060405234801561001057600080fd5b50600436106100ea5760003560e01c806340c10f191161008c57806395d89b411161006657806395d89b41146101df5780639dc29fac146101e7578063a9059cbb146101fa578063dd62ed3e1461020d57600080fd5b806340c10f191461019057806356189cb4146101a357806370a08231146101b657600080fd5b8063222f5be0116100c8578063222f5be01461014257806323b872dd14610157578063313ce5671461016a5780633b97e8561461018357600080fd5b806306fdde03146100ef578063095ea7b31461010d57806318160ddd14610130575b600080fd5b6100f7610246565b60405161010491906106c1565b60405180910390f35b61012061011b36600461072b565b6102d8565b6040519015158152602001610104565b6002545b604051908152602001610104565b610155610150366004610755565b6102f2565b005b610120610165366004610755565b610302565b60055460ff165b60405160ff9091168152602001610104565b6005546101719060ff1681565b61015561019e36600461072b565b610326565b6101556101b1366004610755565b610334565b6101346101c4366004610791565b6001600160a01b031660009081526020819052604090205490565b6100f761033f565b6101556101f536600461072b565b61034e565b61012061020836600461072b565b610358565b61013461021b3660046107b3565b6001600160a01b03918216600090815260016020908152604080832093909416825291909152205490565b606060038054610255906107e6565b80601f0160208091040260200160405190810160405280929190818152602001828054610281906107e6565b80156102ce5780601f106102a3576101008083540402835291602001916102ce565b820191906000526020600020905b8154815290600101906020018083116102b157829003601f168201915b5050505050905090565b6000336102e6818585610366565b60019150505b92915050565b6102fd838383610373565b505050565b6000336103108582856103d7565b61031b858585610373565b506001949350505050565b6103308282610456565b5050565b6102fd838383610366565b606060048054610255906107e6565b610330828261048c565b6000336102e6818585610373565b6102fd83838360016104c2565b6001600160a01b0383166103a257604051634b637e8f60e11b8152600060048201526024015b60405180910390fd5b6001600160a01b0382166103cc5760405163ec442f0560e01b815260006004820152602401610399565b6102fd838383610597565b6001600160a01b03838116600090815260016020908152604080832093861683529290522054600019811015610450578181101561044157604051637dc7a0d960e11b81526001600160a01b03841660048201526024810182905260448101839052606401610399565b610450848484840360006104c2565b50505050565b6001600160a01b0382166104805760405163ec442f0560e01b815260006004820152602401610399565b61033060008383610597565b6001600160a01b0382166104b657604051634b637e8f60e11b815260006004820152602401610399565b61033082600083610597565b6001600160a01b0384166104ec5760405163e602df0560e01b815260006004820152602401610399565b6001600160a01b03831661051657604051634a1406b160e11b815260006004820152602401610399565b6001600160a01b038085166000908152600160209081526040808320938716835292905220829055801561045057826001600160a01b0316846001600160a01b03167f8c5be1e5ebec7d5bd14f71427d1e84f3dd0314c0f7b2291e5b200ac8c7c3b9258460405161058991815260200190565b60405180910390a350505050565b6001600160a01b0383166105c25780600260008282546105b79190610820565b909155506106349050565b6001600160a01b038316600090815260208190526040902054818110156106155760405163391434e360e21b81526001600160a01b03851660048201526024810182905260448101839052606401610399565b6001600160a01b03841660009081526020819052604090209082900390555b6001600160a01b0382166106505760028054829003905561066f565b6001600160a01b03821660009081526020819052604090208054820190555b816001600160a01b0316836001600160a01b03167fddf252ad1be2c89b69c2b068fc378daa952ba7f163c4a11628f55a4df523b3ef836040516106b491815260200190565b60405180910390a3505050565b600060208083528351808285015260005b818110156106ee578581018301518582016040015282016106d2565b506000604082860101526040601f19601f8301168501019250505092915050565b80356001600160a01b038116811461072657600080fd5b919050565b6000806040838503121561073e57600080fd5b6107478361070f565b946020939093013593505050565b60008060006060848603121561076a57600080fd5b6107738461070f565b92506107816020850161070f565b9150604084013590509250925092565b6000602082840312156107a357600080fd5b6107ac8261070f565b9392505050565b600080604083850312156107c657600080fd5b6107cf8361070f565b91506107dd6020840161070f565b90509250929050565b600181811c908216806107fa57607f821691505b60208210810361081a57634e487b7160e01b600052602260045260246000fd5b50919050565b808201808211156102ec57634e487b7160e01b600052601160045260246000fdfea2646970667358221220fcf8c88646b8594f6b796405f84efdcdfc614781bd2cbd6a0197f5b000ae988c64736f6c63430008140033",
  "immutableReferences": {},
  "source": "// SPDX-License-Identifier: MIT\npragma solidity ^0.8.20;\n\nimport {ERC20} from \"@openzeppelin/contracts/token/ERC20/ERC20.sol\";\n\n/// @title Extension to Openzeppelin ERC20Mock contract\n/// @notice Allows to specify the decimal number of mock token\n/// @dev For exmaple for mocking ETH we put 18 and for WBTC there are 8, this will allow more realistic testing\ncontract ERC20DecimalsMock is ERC20 {\n    uint8 public tokenDecimals;\n\n    constructor(\n        string memory name,\n        string memory symbol,\n        uint8 _decimals\n    )  ERC20(name, symbol) {\n        tokenDecimals = _decimals;\n    }\n\n    function mint(address account, uint256 amount) public {\n        _mint(account, amount);\n    }\n\n    function burn(address account, uint256 amount) public {\n        _burn(account, amount);\n    }\n\n    function transferInternal(address from, address to, uint256 value) public {\n        _transfer(from, to, value);\n    }\n\n    function approveInternal(\n        address owner,\n        address spender,\n        uint256 value\n    ) public {\n        _approve(owner, spender, value);\n    }\n\n    function decimals() public view override returns (uint8) {\n        return tokenDecimals;\n    }\n}\n",
  "sourcePath": "/Users/yosgi/freelancer/DeFiForge/apps/contracts/contracts/mocks/ERC20DecimalsMock.sol",
  "compiler": {
    "name": "solc",
    "version": "0.8.20+commit.a1b79de6.Emscripten.clang"
  },
  "schemaVersion": "3.4.16",
  "updatedAt": "2025-02-23T06:27:44.098Z",
  "networkType": "ethereum",
  "devdoc": {
    "details": "For exmaple for mocking ETH we put 18 and for WBTC there are 8, this will allow more realistic testing",
    "errors": {
      "ERC20InsufficientAllowance(address,uint256,uint256)": [
        {
          "details": "Indicates a failure with the `spender`s `allowance`. Used in transfers.",
          "params": {
            "allowance": "Amount of tokens a `spender` is allowed to operate with.",
            "needed": "Minimum amount required to perform a transfer.",
            "spender": "Address that may be allowed to operate on tokens without being their owner."
          }
        }
      ],
      "ERC20InsufficientBalance(address,uint256,uint256)": [
        {
          "details": "Indicates an error related to the current `balance` of a `sender`. Used in transfers.",
          "params": {
            "balance": "Current balance for the interacting account.",
            "needed": "Minimum amount required to perform a transfer.",
            "sender": "Address whose tokens are being transferred."
          }
        }
      ],
      "ERC20InvalidApprover(address)": [
        {
          "details": "Indicates a failure with the `approver` of a token to be approved. Used in approvals.",
          "params": {
            "approver": "Address initiating an approval operation."
          }
        }
      ],
      "ERC20InvalidReceiver(address)": [
        {
          "details": "Indicates a failure with the token `receiver`. Used in transfers.",
          "params": {
            "receiver": "Address to which tokens are being transferred."
          }
        }
      ],
      "ERC20InvalidSender(address)": [
        {
          "details": "Indicates a failure with the token `sender`. Used in transfers.",
          "params": {
            "sender": "Address whose tokens are being transferred."
          }
        }
      ],
      "ERC20InvalidSpender(address)": [
        {
          "details": "Indicates a failure with the `spender` to be approved. Used in approvals.",
          "params": {
            "spender": "Address that may be allowed to operate on tokens without being their owner."
          }
        }
      ]
    },
    "events": {
      "Approval(address,address,uint256)": {
        "details": "Emitted when the allowance of a `spender` for an `owner` is set by a call to {approve}. `value` is the new allowance."
      },
      "Transfer(address,address,uint256)": {
        "details": "Emitted when `value` tokens are moved from one account (`from`) to another (`to`). Note that `value` may be zero."
      }
    },
    "kind": "dev",
    "methods": {
      "allowance(address,address)": {
        "details": "See {IERC20-allowance}."
      },
      "approve(address,uint256)": {
        "details": "See {IERC20-approve}. NOTE: If `value` is the maximum `uint256`, the allowance is not updated on `transferFrom`. This is semantically equivalent to an infinite approval. Requirements: - `spender` cannot be the zero address."
      },
      "balanceOf(address)": {
        "details": "See {IERC20-balanceOf}."
      },
      "decimals()": {
        "details": "Returns the number of decimals used to get its user representation. For example, if `decimals` equals `2`, a balance of `505` tokens should be displayed to a user as `5.05` (`505 / 10 ** 2`). Tokens usually opt for a value of 18, imitating the relationship between Ether and Wei. This is the default value returned by this function, unless it's overridden. NOTE: This information is only used for _display_ purposes: it in no way affects any of the arithmetic of the contract, including {IERC20-balanceOf} and {IERC20-transfer}."
      },
      "name()": {
        "details": "Returns the name of the token."
      },
      "symbol()": {
        "details": "Returns the symbol of the token, usually a shorter version of the name."
      },
      "totalSupply()": {
        "details": "See {IERC20-totalSupply}."
      },
      "transfer(address,uint256)": {
        "details": "See {IERC20-transfer}. Requirements: - `to` cannot be the zero address. - the caller must have a balance of at least `value`."
      },
      "transferFrom(address,address,uint256)": {
        "details": "See {IERC20-transferFrom}. Skips emitting an {Approval} event indicating an allowance update. This is not required by the ERC. See {xref-ERC20-_approve-address-address-uint256-bool-}[_approve]. NOTE: Does not update the allowance if the current allowance is the maximum `uint256`. Requirements: - `from` and `to` cannot be the zero address. - `from` must have a balance of at least `value`. - the caller must have allowance for ``from``'s tokens of at least `value`."
      }
    },
    "title": "Extension to Openzeppelin ERC20Mock contract",
    "version": 1
  },
  "userdoc": {
    "kind": "user",
    "methods": {},
    "notice": "Allows to specify the decimal number of mock token",
    "version": 1
  }
}