{
  "contractName": "FlashloanModule",
  "abi": [
    {
      "anonymous": false,
      "inputs": [
        {
          "indexed": false,
          "internalType": "address",
          "name": "receiver",
          "type": "address"
        },
        {
          "indexed": false,
          "internalType": "address[]",
          "name": "tokens",
          "type": "address[]"
        },
        {
          "indexed": false,
          "internalType": "uint256[]",
          "name": "amounts",
          "type": "uint256[]"
        }
      ],
      "name": "FlashloanExecuted",
      "type": "event"
    },
    {
      "inputs": [
        {
          "internalType": "address",
          "name": "receiver",
          "type": "address"
        },
        {
          "internalType": "address[]",
          "name": "tokens",
          "type": "address[]"
        },
        {
          "internalType": "uint256[]",
          "name": "amounts",
          "type": "uint256[]"
        },
        {
          "internalType": "bytes",
          "name": "data",
          "type": "bytes"
        }
      ],
      "name": "flashloan",
      "outputs": [],
      "stateMutability": "nonpayable",
      "type": "function"
    }
  ],
  "bytecode": "0x608060405234801561001057600080fd5b506107f4806100206000396000f3fe608060405234801561001057600080fd5b506004361061002b5760003560e01c806378767d7014610030575b600080fd5b61004361003e36600461049a565b610045565b005b8483146100915760405162461bcd60e51b8152602060048201526015602482015274082e4e4c2f240d8cadccee8d040dad2e6dac2e8c6d605b1b60448201526064015b60405180910390fd5b60008567ffffffffffffffff8111156100ac576100ac610572565b6040519080825280602002602001820160405280156100d5578160200160208202803683370190505b50905060005b868110156101f4578787828181106100f5576100f5610588565b905060200201602081019061010a919061059e565b6001600160a01b031663a9059cbb8a88888581811061012b5761012b610588565b6040516001600160e01b031960e087901b1681526001600160a01b03909416600485015260200291909101356024830152506044016020604051808303816000875af115801561017f573d6000803e3d6000fd5b505050506040513d601f19601f820116820180604052508101906101a391906105c0565b506101c58686838181106101b9576101b9610588565b90506020020135610412565b8282815181106101d7576101d7610588565b6020908102919091010152806101ec816105f8565b9150506100db565b5060405163322b9e8160e11b81526000906001600160a01b038a16906364573d02906102329033908c908c908c908c908a908d908d9060040161068a565b6020604051808303816000875af1158015610251573d6000803e3d6000fd5b505050506040513d601f19601f8201168201806040525081019061027591906105c0565b9050806102c45760405162461bcd60e51b815260206004820152601a60248201527f466c6173686c6f616e20657865637574696f6e206661696c65640000000000006044820152606401610088565b60005b878110156103c75760008382815181106102e3576102e3610588565b60200260200101518888848181106102fd576102fd610588565b9050602002013561030e919061072e565b905089898381811061032257610322610588565b9050602002016020810190610337919061059e565b6040516323b872dd60e01b81526001600160a01b038d811660048301523060248301526044820184905291909116906323b872dd906064016020604051808303816000875af115801561038e573d6000803e3d6000fd5b505050506040513d601f19601f820116820180604052508101906103b291906105c0565b505080806103bf906105f8565b9150506102c7565b507f194cdf4fa817b4d1991cccf68b6879febc4af871f9d167b66a7e4d0d0e48ea6989898989896040516103ff959493929190610741565b60405180910390a1505050505050505050565b6000612710610422836005610785565b61042c919061079c565b92915050565b80356001600160a01b038116811461044957600080fd5b919050565b60008083601f84011261046057600080fd5b50813567ffffffffffffffff81111561047857600080fd5b6020830191508360208260051b850101111561049357600080fd5b9250929050565b60008060008060008060006080888a0312156104b557600080fd5b6104be88610432565b9650602088013567ffffffffffffffff808211156104db57600080fd5b6104e78b838c0161044e565b909850965060408a013591508082111561050057600080fd5b61050c8b838c0161044e565b909650945060608a013591508082111561052557600080fd5b818a0191508a601f83011261053957600080fd5b81358181111561054857600080fd5b8b602082850101111561055a57600080fd5b60208301945080935050505092959891949750929550565b634e487b7160e01b600052604160045260246000fd5b634e487b7160e01b600052603260045260246000fd5b6000602082840312156105b057600080fd5b6105b982610432565b9392505050565b6000602082840312156105d257600080fd5b815180151581146105b957600080fd5b634e487b7160e01b600052601160045260246000fd5b60006001820161060a5761060a6105e2565b5060010190565b8183526000602080850194508260005b8581101561064d576001600160a01b0361063a83610432565b1687529582019590820190600101610621565b509495945050505050565b81835260006001600160fb1b0383111561067157600080fd5b8260051b80836020870137939093016020019392505050565b6001600160a01b038916815260a060208083018290526000916106b09084018a8c610611565b83810360408501526106c381898b610658565b8481036060860152875180825283890192509083019060005b818110156106f8578351835292840192918401916001016106dc565b505084810360808601528581528587848301376000818701840152601f909501601f1916909401019a9950505050505050505050565b8082018082111561042c5761042c6105e2565b6001600160a01b03861681526060602082018190526000906107669083018688610611565b8281036040840152610779818587610658565b98975050505050505050565b808202811582820484141761042c5761042c6105e2565b6000826107b957634e487b7160e01b600052601260045260246000fd5b50049056fea264697066735822122050fa9fc5778654c051178f1c5118e0e3f95c97791a085ee3ec516fc0ecbe77c164736f6c63430008140033",
  "immutableReferences": {},
  "source": "// SPDX-License-Identifier: MIT\npragma solidity ^0.8.20;\n\nimport \"./interfaces/IFlashLoanReceiver.sol\";\nimport \"@openzeppelin/contracts/token/ERC20/IERC20.sol\";\n\ncontract FlashloanModule {\n    event FlashloanExecuted(address receiver, address[] tokens, uint256[] amounts);\n\n    /**\n     * @dev Executes a flash loan.\n     * @param receiver The address of the flash loan receiver contract.\n     * @param tokens An array of token addresses to be borrowed.\n     * @param amounts An array of amounts for each token to be borrowed.\n     * @param data Arbitrary data passed to the receiver contract.\n     */\n    function flashloan(\n        address receiver,\n        address[] calldata tokens,\n        uint256[] calldata amounts,\n        bytes calldata data\n    ) external {\n        require(tokens.length == amounts.length, \"Array length mismatch\");\n\n        uint256[] memory fees = new uint256[](tokens.length);\n\n        // Transfer tokens to the receiver\n        for (uint256 i = 0; i < tokens.length; i++) {\n            IERC20(tokens[i]).transfer(receiver, amounts[i]);\n            fees[i] = calculateFee(amounts[i]); // Replace with your fee logic\n        }\n\n        // Call the receiver's `onFlashLoan` function\n        bool success = IFlashLoanReceiver(receiver).onFlashLoan(\n            msg.sender,\n            tokens,\n            amounts,\n            fees,\n            data\n        );\n        require(success, \"Flashloan execution failed\");\n\n        // Collect repayment + fees\n        for (uint256 i = 0; i < tokens.length; i++) {\n            uint256 repaymentAmount = amounts[i] + fees[i];\n            IERC20(tokens[i]).transferFrom(receiver, address(this), repaymentAmount);\n        }\n\n        emit FlashloanExecuted(receiver, tokens, amounts);\n    }\n\n    /**\n     * @dev Calculates the fee for a given flash loan amount.\n     * @param amount The amount of the flash loan.\n     * @return The fee for the flash loan.\n     */\n    function calculateFee(uint256 amount) internal pure returns (uint256) {\n        // Example: 0.05% fee\n        return (amount * 5) / 10000;\n    }\n}\n",
  "sourcePath": "/Users/yosgi/freelancer/DeFiForge/apps/contracts/contracts/FlashloanModule.sol",
  "compiler": {
    "name": "solc",
    "version": "0.8.20+commit.a1b79de6.Emscripten.clang"
  },
  "schemaVersion": "3.4.16",
  "updatedAt": "2025-02-23T06:27:44.110Z",
  "networkType": "ethereum",
  "devdoc": {
    "kind": "dev",
    "methods": {
      "flashloan(address,address[],uint256[],bytes)": {
        "details": "Executes a flash loan.",
        "params": {
          "amounts": "An array of amounts for each token to be borrowed.",
          "data": "Arbitrary data passed to the receiver contract.",
          "receiver": "The address of the flash loan receiver contract.",
          "tokens": "An array of token addresses to be borrowed."
        }
      }
    },
    "version": 1
  },
  "userdoc": {
    "kind": "user",
    "methods": {},
    "version": 1
  }
}