{
  "contractName": "LendingPool",
  "abi": [
    {
      "inputs": [
        {
          "internalType": "address",
          "name": "vaultModuleAddress",
          "type": "address"
        },
        {
          "internalType": "address",
          "name": "nftModuleAddress",
          "type": "address"
        },
        {
          "internalType": "address",
          "name": "flashloanModuleAddress",
          "type": "address"
        }
      ],
      "stateMutability": "nonpayable",
      "type": "constructor"
    },
    {
      "inputs": [],
      "name": "flashloanModule",
      "outputs": [
        {
          "internalType": "contract FlashloanModule",
          "name": "",
          "type": "address"
        }
      ],
      "stateMutability": "view",
      "type": "function",
      "constant": true
    },
    {
      "inputs": [],
      "name": "nftModule",
      "outputs": [
        {
          "internalType": "contract NFTModule",
          "name": "",
          "type": "address"
        }
      ],
      "stateMutability": "view",
      "type": "function",
      "constant": true
    },
    {
      "inputs": [],
      "name": "vaultModule",
      "outputs": [
        {
          "internalType": "contract VaultModule",
          "name": "",
          "type": "address"
        }
      ],
      "stateMutability": "view",
      "type": "function",
      "constant": true
    },
    {
      "inputs": [
        {
          "internalType": "address",
          "name": "token",
          "type": "address"
        },
        {
          "internalType": "uint256",
          "name": "amount",
          "type": "uint256"
        }
      ],
      "name": "deposit",
      "outputs": [],
      "stateMutability": "nonpayable",
      "type": "function"
    },
    {
      "inputs": [
        {
          "internalType": "address",
          "name": "token",
          "type": "address"
        },
        {
          "internalType": "uint256",
          "name": "amount",
          "type": "uint256"
        }
      ],
      "name": "borrow",
      "outputs": [],
      "stateMutability": "nonpayable",
      "type": "function"
    },
    {
      "inputs": [
        {
          "internalType": "address",
          "name": "nftAddress",
          "type": "address"
        },
        {
          "internalType": "uint256",
          "name": "tokenId",
          "type": "uint256"
        }
      ],
      "name": "depositNFT",
      "outputs": [],
      "stateMutability": "nonpayable",
      "type": "function"
    },
    {
      "inputs": [
        {
          "internalType": "address",
          "name": "receiver",
          "type": "address"
        },
        {
          "internalType": "address[]",
          "name": "tokens",
          "type": "address[]"
        },
        {
          "internalType": "uint256[]",
          "name": "amounts",
          "type": "uint256[]"
        },
        {
          "internalType": "bytes",
          "name": "data",
          "type": "bytes"
        }
      ],
      "name": "flashloan",
      "outputs": [],
      "stateMutability": "nonpayable",
      "type": "function"
    }
  ],
  "bytecode": "0x608060405234801561001057600080fd5b5060405161063338038061063383398101604081905261002f9161008d565b600080546001600160a01b039485166001600160a01b0319918216179091556001805493851693821693909317909255600280549190931691161790556100d0565b80516001600160a01b038116811461008857600080fd5b919050565b6000806000606084860312156100a257600080fd5b6100ab84610071565b92506100b960208501610071565b91506100c760408501610071565b90509250925092565b610554806100df6000396000f3fe608060405234801561001057600080fd5b506004361061007d5760003560e01c80636069761b1161005b5780636069761b146100d957806378767d70146100ec5780639b5b9b18146100ff578063ec2437321461011257600080fd5b80632dfa801e1461008257806347e7ef24146100b15780634b8a3529146100c6575b600080fd5b600054610095906001600160a01b031681565b6040516001600160a01b03909116815260200160405180910390f35b6100c46100bf3660046102ea565b610125565b005b6100c46100d43660046102ea565b6101a8565b600254610095906001600160a01b031681565b6100c46100fa366004610360565b6101e7565b6100c461010d3660046102ea565b61025e565b600154610095906001600160a01b031681565b600054604051633d14d1b760e21b81526001600160a01b038481166004830152602482018490523360448301529091169063f45346dc906064015b6020604051808303816000875af115801561017f573d6000803e3d6000fd5b505050506040513d601f19601f820116820180604052508101906101a39190610438565b505050565b600054604051636c665a5560e01b81526001600160a01b0384811660048301526024820184905233604483015290911690636c665a5590606401610160565b60025460405163078767d760e41b81526001600160a01b03909116906378767d7090610223908a908a908a908a908a908a908a9060040161047a565b600060405180830381600087803b15801561023d57600080fd5b505af1158015610251573d6000803e3d6000fd5b5050505050505050505050565b6001546040516397be552360e01b81526001600160a01b03848116600483015260248201849052336044830152909116906397be552390606401600060405180830381600087803b1580156102b257600080fd5b505af11580156102c6573d6000803e3d6000fd5b505050505050565b80356001600160a01b03811681146102e557600080fd5b919050565b600080604083850312156102fd57600080fd5b610306836102ce565b946020939093013593505050565b60008083601f84011261032657600080fd5b50813567ffffffffffffffff81111561033e57600080fd5b6020830191508360208260051b850101111561035957600080fd5b9250929050565b60008060008060008060006080888a03121561037b57600080fd5b610384886102ce565b9650602088013567ffffffffffffffff808211156103a157600080fd5b6103ad8b838c01610314565b909850965060408a01359150808211156103c657600080fd5b6103d28b838c01610314565b909650945060608a01359150808211156103eb57600080fd5b818a0191508a601f8301126103ff57600080fd5b81358181111561040e57600080fd5b8b602082850101111561042057600080fd5b60208301945080935050505092959891949750929550565b60006020828403121561044a57600080fd5b5051919050565b81835281816020850137506000828201602090810191909152601f909101601f19169091010190565b6001600160a01b03888116825260806020808401829052908301889052600091899160a08501845b8b8110156104c757836104b4866102ce565b16825293820193908201906001016104a2565b5085810360408701528881526001600160fb1b038911156104e757600080fd5b8860051b9350838a83830137909201848103830160608601529161050e8184018789610451565b9c9b50505050505050505050505056fea2646970667358221220e72659b56d39addfe0c7cb7ce573b2f94542c8724a9e459b0cf62bbd73046dd764736f6c63430008140033",
  "immutableReferences": {},
  "source": "// SPDX-License-Identifier: MIT\npragma solidity ^0.8.20;\n\nimport \"./VaultModule.sol\";\nimport \"./NFTModule.sol\";\nimport \"./FlashloanModule.sol\";\n\ncontract LendingPool {\n    VaultModule public vaultModule;\n    NFTModule public nftModule;\n    FlashloanModule public flashloanModule;\n\n    constructor(\n        address vaultModuleAddress,\n        address nftModuleAddress,\n        address flashloanModuleAddress\n    ) {\n        vaultModule = VaultModule(vaultModuleAddress);\n        nftModule = NFTModule(nftModuleAddress);\n        flashloanModule = FlashloanModule(flashloanModuleAddress);\n    }\n\n    function deposit(address token, uint256 amount) external {\n        vaultModule.deposit(token, amount, msg.sender);\n    }\n\n    function borrow(address token, uint256 amount) external {\n        vaultModule.borrow(token, amount, msg.sender);\n    }\n\n    function depositNFT(address nftAddress, uint256 tokenId) external {\n        nftModule.depositNFT(nftAddress, tokenId, msg.sender);\n    }\n\n    function flashloan(\n        address receiver,\n        address[] calldata tokens,\n        uint256[] calldata amounts,\n        bytes calldata data\n    ) external {\n        flashloanModule.flashloan(receiver, tokens, amounts, data);\n    }\n}\n",
  "sourcePath": "/Users/yosgi/freelancer/DeFiForge/apps/contracts/contracts/LendingPool.sol",
  "compiler": {
    "name": "solc",
    "version": "0.8.20+commit.a1b79de6.Emscripten.clang"
  },
  "schemaVersion": "3.4.16",
  "updatedAt": "2025-02-23T06:27:44.112Z",
  "networkType": "ethereum",
  "devdoc": {
    "kind": "dev",
    "methods": {},
    "version": 1
  },
  "userdoc": {
    "kind": "user",
    "methods": {},
    "version": 1
  }
}