{
  "contractName": "MockUSDT",
  "abi": [
    {
      "inputs": [],
      "stateMutability": "nonpayable",
      "type": "constructor"
    },
    {
      "inputs": [
        {
          "internalType": "address",
          "name": "spender",
          "type": "address"
        },
        {
          "internalType": "uint256",
          "name": "allowance",
          "type": "uint256"
        },
        {
          "internalType": "uint256",
          "name": "needed",
          "type": "uint256"
        }
      ],
      "name": "ERC20InsufficientAllowance",
      "type": "error"
    },
    {
      "inputs": [
        {
          "internalType": "address",
          "name": "sender",
          "type": "address"
        },
        {
          "internalType": "uint256",
          "name": "balance",
          "type": "uint256"
        },
        {
          "internalType": "uint256",
          "name": "needed",
          "type": "uint256"
        }
      ],
      "name": "ERC20InsufficientBalance",
      "type": "error"
    },
    {
      "inputs": [
        {
          "internalType": "address",
          "name": "approver",
          "type": "address"
        }
      ],
      "name": "ERC20InvalidApprover",
      "type": "error"
    },
    {
      "inputs": [
        {
          "internalType": "address",
          "name": "receiver",
          "type": "address"
        }
      ],
      "name": "ERC20InvalidReceiver",
      "type": "error"
    },
    {
      "inputs": [
        {
          "internalType": "address",
          "name": "sender",
          "type": "address"
        }
      ],
      "name": "ERC20InvalidSender",
      "type": "error"
    },
    {
      "inputs": [
        {
          "internalType": "address",
          "name": "spender",
          "type": "address"
        }
      ],
      "name": "ERC20InvalidSpender",
      "type": "error"
    },
    {
      "anonymous": false,
      "inputs": [
        {
          "indexed": true,
          "internalType": "address",
          "name": "owner",
          "type": "address"
        },
        {
          "indexed": true,
          "internalType": "address",
          "name": "spender",
          "type": "address"
        },
        {
          "indexed": false,
          "internalType": "uint256",
          "name": "value",
          "type": "uint256"
        }
      ],
      "name": "Approval",
      "type": "event"
    },
    {
      "anonymous": false,
      "inputs": [
        {
          "indexed": true,
          "internalType": "address",
          "name": "from",
          "type": "address"
        },
        {
          "indexed": true,
          "internalType": "address",
          "name": "to",
          "type": "address"
        },
        {
          "indexed": false,
          "internalType": "uint256",
          "name": "value",
          "type": "uint256"
        }
      ],
      "name": "Transfer",
      "type": "event"
    },
    {
      "inputs": [
        {
          "internalType": "address",
          "name": "owner",
          "type": "address"
        },
        {
          "internalType": "address",
          "name": "spender",
          "type": "address"
        }
      ],
      "name": "allowance",
      "outputs": [
        {
          "internalType": "uint256",
          "name": "",
          "type": "uint256"
        }
      ],
      "stateMutability": "view",
      "type": "function",
      "constant": true
    },
    {
      "inputs": [
        {
          "internalType": "address",
          "name": "spender",
          "type": "address"
        },
        {
          "internalType": "uint256",
          "name": "value",
          "type": "uint256"
        }
      ],
      "name": "approve",
      "outputs": [
        {
          "internalType": "bool",
          "name": "",
          "type": "bool"
        }
      ],
      "stateMutability": "nonpayable",
      "type": "function"
    },
    {
      "inputs": [
        {
          "internalType": "address",
          "name": "account",
          "type": "address"
        }
      ],
      "name": "balanceOf",
      "outputs": [
        {
          "internalType": "uint256",
          "name": "",
          "type": "uint256"
        }
      ],
      "stateMutability": "view",
      "type": "function",
      "constant": true
    },
    {
      "inputs": [],
      "name": "decimals",
      "outputs": [
        {
          "internalType": "uint8",
          "name": "",
          "type": "uint8"
        }
      ],
      "stateMutability": "view",
      "type": "function",
      "constant": true
    },
    {
      "inputs": [],
      "name": "name",
      "outputs": [
        {
          "internalType": "string",
          "name": "",
          "type": "string"
        }
      ],
      "stateMutability": "view",
      "type": "function",
      "constant": true
    },
    {
      "inputs": [],
      "name": "symbol",
      "outputs": [
        {
          "internalType": "string",
          "name": "",
          "type": "string"
        }
      ],
      "stateMutability": "view",
      "type": "function",
      "constant": true
    },
    {
      "inputs": [],
      "name": "totalSupply",
      "outputs": [
        {
          "internalType": "uint256",
          "name": "",
          "type": "uint256"
        }
      ],
      "stateMutability": "view",
      "type": "function",
      "constant": true
    },
    {
      "inputs": [
        {
          "internalType": "address",
          "name": "to",
          "type": "address"
        },
        {
          "internalType": "uint256",
          "name": "value",
          "type": "uint256"
        }
      ],
      "name": "transfer",
      "outputs": [
        {
          "internalType": "bool",
          "name": "",
          "type": "bool"
        }
      ],
      "stateMutability": "nonpayable",
      "type": "function"
    },
    {
      "inputs": [
        {
          "internalType": "address",
          "name": "from",
          "type": "address"
        },
        {
          "internalType": "address",
          "name": "to",
          "type": "address"
        },
        {
          "internalType": "uint256",
          "name": "value",
          "type": "uint256"
        }
      ],
      "name": "transferFrom",
      "outputs": [
        {
          "internalType": "bool",
          "name": "",
          "type": "bool"
        }
      ],
      "stateMutability": "nonpayable",
      "type": "function"
    },
    {
      "inputs": [
        {
          "internalType": "address",
          "name": "to",
          "type": "address"
        },
        {
          "internalType": "uint256",
          "name": "amount",
          "type": "uint256"
        }
      ],
      "name": "mint",
      "outputs": [],
      "stateMutability": "nonpayable",
      "type": "function"
    }
  ],
  "bytecode": "0x60806040523480156200001157600080fd5b5060405180604001604052806009815260200168135bd8dac81554d11560ba1b815250604051806040016040528060058152602001641b5554d11560da1b81525081600390816200006391906200040e565b5060046200007282826200040e565b5050506000620000876200014d60201b60201c565b5111620000ce5760405162461bcd60e51b815260206004820152601060248201526f13985b59481b5d5cdd081899481cd95d60821b60448201526064015b60405180910390fd5b6000620000da620001e7565b51116200011f5760405162461bcd60e51b815260206004820152601260248201527114de5b589bdb081b5d5cdd081899481cd95d60721b6044820152606401620000c5565b6200014733620001326012600a620005ef565b6200014190620f424062000604565b620001f8565b62000634565b6060600380546200015e906200037f565b80601f01602080910402602001604051908101604052809291908181526020018280546200018c906200037f565b8015620001dd5780601f10620001b157610100808354040283529160200191620001dd565b820191906000526020600020905b815481529060010190602001808311620001bf57829003601f168201915b5050505050905090565b6060600480546200015e906200037f565b6001600160a01b038216620002245760405163ec442f0560e01b815260006004820152602401620000c5565b620002326000838362000236565b5050565b6001600160a01b038316620002655780600260008282546200025991906200061e565b90915550620002d99050565b6001600160a01b03831660009081526020819052604090205481811015620002ba5760405163391434e360e21b81526001600160a01b03851660048201526024810182905260448101839052606401620000c5565b6001600160a01b03841660009081526020819052604090209082900390555b6001600160a01b038216620002f75760028054829003905562000316565b6001600160a01b03821660009081526020819052604090208054820190555b816001600160a01b0316836001600160a01b03167fddf252ad1be2c89b69c2b068fc378daa952ba7f163c4a11628f55a4df523b3ef836040516200035c91815260200190565b60405180910390a3505050565b634e487b7160e01b600052604160045260246000fd5b600181811c908216806200039457607f821691505b602082108103620003b557634e487b7160e01b600052602260045260246000fd5b50919050565b601f8211156200040957600081815260208120601f850160051c81016020861015620003e45750805b601f850160051c820191505b818110156200040557828155600101620003f0565b5050505b505050565b81516001600160401b038111156200042a576200042a62000369565b62000442816200043b84546200037f565b84620003bb565b602080601f8311600181146200047a5760008415620004615750858301515b600019600386901b1c1916600185901b17855562000405565b600085815260208120601f198616915b82811015620004ab578886015182559484019460019091019084016200048a565b5085821015620004ca5787850151600019600388901b60f8161c191681555b5050505050600190811b01905550565b634e487b7160e01b600052601160045260246000fd5b600181815b8085111562000531578160001904821115620005155762000515620004da565b808516156200052357918102915b93841c9390800290620004f5565b509250929050565b6000826200054a57506001620005e9565b816200055957506000620005e9565b81600181146200057257600281146200057d576200059d565b6001915050620005e9565b60ff841115620005915762000591620004da565b50506001821b620005e9565b5060208310610133831016604e8410600b8410161715620005c2575081810a620005e9565b620005ce8383620004f0565b8060001904821115620005e557620005e5620004da565b0290505b92915050565b6000620005fd838362000539565b9392505050565b8082028115828204841417620005e957620005e9620004da565b80820180821115620005e957620005e9620004da565b61078480620006446000396000f3fe608060405234801561001057600080fd5b506004361061009e5760003560e01c806340c10f191161006657806340c10f191461011857806370a082311461012d57806395d89b4114610156578063a9059cbb1461015e578063dd62ed3e1461017157600080fd5b806306fdde03146100a3578063095ea7b3146100c157806318160ddd146100e457806323b872dd146100f6578063313ce56714610109575b600080fd5b6100ab6101aa565b6040516100b891906105ce565b60405180910390f35b6100d46100cf366004610638565b61023c565b60405190151581526020016100b8565b6002545b6040519081526020016100b8565b6100d4610104366004610662565b610256565b604051601281526020016100b8565b61012b610126366004610638565b61027a565b005b6100e861013b36600461069e565b6001600160a01b031660009081526020819052604090205490565b6100ab610288565b6100d461016c366004610638565b610297565b6100e861017f3660046106c0565b6001600160a01b03918216600090815260016020908152604080832093909416825291909152205490565b6060600380546101b9906106f3565b80601f01602080910402602001604051908101604052809291908181526020018280546101e5906106f3565b80156102325780601f1061020757610100808354040283529160200191610232565b820191906000526020600020905b81548152906001019060200180831161021557829003601f168201915b5050505050905090565b60003361024a8185856102a5565b60019150505b92915050565b6000336102648582856102b7565b61026f85858561033a565b506001949350505050565b6102848282610399565b5050565b6060600480546101b9906106f3565b60003361024a81858561033a565b6102b283838360016103cf565b505050565b6001600160a01b038381166000908152600160209081526040808320938616835292905220546000198114610334578181101561032557604051637dc7a0d960e11b81526001600160a01b038416600482015260248101829052604481018390526064015b60405180910390fd5b610334848484840360006103cf565b50505050565b6001600160a01b03831661036457604051634b637e8f60e11b81526000600482015260240161031c565b6001600160a01b03821661038e5760405163ec442f0560e01b81526000600482015260240161031c565b6102b28383836104a4565b6001600160a01b0382166103c35760405163ec442f0560e01b81526000600482015260240161031c565b610284600083836104a4565b6001600160a01b0384166103f95760405163e602df0560e01b81526000600482015260240161031c565b6001600160a01b03831661042357604051634a1406b160e11b81526000600482015260240161031c565b6001600160a01b038085166000908152600160209081526040808320938716835292905220829055801561033457826001600160a01b0316846001600160a01b03167f8c5be1e5ebec7d5bd14f71427d1e84f3dd0314c0f7b2291e5b200ac8c7c3b9258460405161049691815260200190565b60405180910390a350505050565b6001600160a01b0383166104cf5780600260008282546104c4919061072d565b909155506105419050565b6001600160a01b038316600090815260208190526040902054818110156105225760405163391434e360e21b81526001600160a01b0385166004820152602481018290526044810183905260640161031c565b6001600160a01b03841660009081526020819052604090209082900390555b6001600160a01b03821661055d5760028054829003905561057c565b6001600160a01b03821660009081526020819052604090208054820190555b816001600160a01b0316836001600160a01b03167fddf252ad1be2c89b69c2b068fc378daa952ba7f163c4a11628f55a4df523b3ef836040516105c191815260200190565b60405180910390a3505050565b600060208083528351808285015260005b818110156105fb578581018301518582016040015282016105df565b506000604082860101526040601f19601f8301168501019250505092915050565b80356001600160a01b038116811461063357600080fd5b919050565b6000806040838503121561064b57600080fd5b6106548361061c565b946020939093013593505050565b60008060006060848603121561067757600080fd5b6106808461061c565b925061068e6020850161061c565b9150604084013590509250925092565b6000602082840312156106b057600080fd5b6106b98261061c565b9392505050565b600080604083850312156106d357600080fd5b6106dc8361061c565b91506106ea6020840161061c565b90509250929050565b600181811c9082168061070757607f821691505b60208210810361072757634e487b7160e01b600052602260045260246000fd5b50919050565b8082018082111561025057634e487b7160e01b600052601160045260246000fdfea264697066735822122025369e5105b3ab287e248ac242e58db648adb19ef369d3cb43ed3520ae71334764736f6c63430008140033",
  "immutableReferences": {},
  "source": "// SPDX-License-Identifier: MIT\npragma solidity ^0.8.20;\n\nimport \"@openzeppelin/contracts/token/ERC20/ERC20.sol\";\n\ncontract MockUSDT is ERC20 {\n    constructor() ERC20(\"Mock USDT\", \"mUSDT\") {\n        require(bytes(name()).length > 0, \"Name must be set\");\n        require(bytes(symbol()).length > 0, \"Symbol must be set\");\n        _mint(msg.sender, 1000000 * (10 ** uint256(decimals()))); // 100mUSDTUSDT\n    }\n\n   \n    function mint(address to, uint256 amount) public {\n        _mint(to, amount);\n    }\n}\n",
  "sourcePath": "/Users/yosgi/freelancer/bitnestLoop/contracts/contracts/MockUSDT.sol",
  "compiler": {
    "name": "solc",
    "version": "0.8.20+commit.a1b79de6.Emscripten.clang"
  },
  "schemaVersion": "3.4.16",
  "updatedAt": "2024-07-11T09:50:50.094Z",
  "networkType": "ethereum",
  "devdoc": {
    "errors": {
      "ERC20InsufficientAllowance(address,uint256,uint256)": [
        {
          "details": "Indicates a failure with the `spender`s `allowance`. Used in transfers.",
          "params": {
            "allowance": "Amount of tokens a `spender` is allowed to operate with.",
            "needed": "Minimum amount required to perform a transfer.",
            "spender": "Address that may be allowed to operate on tokens without being their owner."
          }
        }
      ],
      "ERC20InsufficientBalance(address,uint256,uint256)": [
        {
          "details": "Indicates an error related to the current `balance` of a `sender`. Used in transfers.",
          "params": {
            "balance": "Current balance for the interacting account.",
            "needed": "Minimum amount required to perform a transfer.",
            "sender": "Address whose tokens are being transferred."
          }
        }
      ],
      "ERC20InvalidApprover(address)": [
        {
          "details": "Indicates a failure with the `approver` of a token to be approved. Used in approvals.",
          "params": {
            "approver": "Address initiating an approval operation."
          }
        }
      ],
      "ERC20InvalidReceiver(address)": [
        {
          "details": "Indicates a failure with the token `receiver`. Used in transfers.",
          "params": {
            "receiver": "Address to which tokens are being transferred."
          }
        }
      ],
      "ERC20InvalidSender(address)": [
        {
          "details": "Indicates a failure with the token `sender`. Used in transfers.",
          "params": {
            "sender": "Address whose tokens are being transferred."
          }
        }
      ],
      "ERC20InvalidSpender(address)": [
        {
          "details": "Indicates a failure with the `spender` to be approved. Used in approvals.",
          "params": {
            "spender": "Address that may be allowed to operate on tokens without being their owner."
          }
        }
      ]
    },
    "events": {
      "Approval(address,address,uint256)": {
        "details": "Emitted when the allowance of a `spender` for an `owner` is set by a call to {approve}. `value` is the new allowance."
      },
      "Transfer(address,address,uint256)": {
        "details": "Emitted when `value` tokens are moved from one account (`from`) to another (`to`). Note that `value` may be zero."
      }
    },
    "kind": "dev",
    "methods": {
      "allowance(address,address)": {
        "details": "See {IERC20-allowance}."
      },
      "approve(address,uint256)": {
        "details": "See {IERC20-approve}. NOTE: If `value` is the maximum `uint256`, the allowance is not updated on `transferFrom`. This is semantically equivalent to an infinite approval. Requirements: - `spender` cannot be the zero address."
      },
      "balanceOf(address)": {
        "details": "See {IERC20-balanceOf}."
      },
      "decimals()": {
        "details": "Returns the number of decimals used to get its user representation. For example, if `decimals` equals `2`, a balance of `505` tokens should be displayed to a user as `5.05` (`505 / 10 ** 2`). Tokens usually opt for a value of 18, imitating the relationship between Ether and Wei. This is the default value returned by this function, unless it's overridden. NOTE: This information is only used for _display_ purposes: it in no way affects any of the arithmetic of the contract, including {IERC20-balanceOf} and {IERC20-transfer}."
      },
      "name()": {
        "details": "Returns the name of the token."
      },
      "symbol()": {
        "details": "Returns the symbol of the token, usually a shorter version of the name."
      },
      "totalSupply()": {
        "details": "See {IERC20-totalSupply}."
      },
      "transfer(address,uint256)": {
        "details": "See {IERC20-transfer}. Requirements: - `to` cannot be the zero address. - the caller must have a balance of at least `value`."
      },
      "transferFrom(address,address,uint256)": {
        "details": "See {IERC20-transferFrom}. Emits an {Approval} event indicating the updated allowance. This is not required by the EIP. See the note at the beginning of {ERC20}. NOTE: Does not update the allowance if the current allowance is the maximum `uint256`. Requirements: - `from` and `to` cannot be the zero address. - `from` must have a balance of at least `value`. - the caller must have allowance for ``from``'s tokens of at least `value`."
      }
    },
    "version": 1
  },
  "userdoc": {
    "kind": "user",
    "methods": {},
    "version": 1
  }
}