{
  "contractName": "NFTModule",
  "abi": [
    {
      "anonymous": false,
      "inputs": [
        {
          "indexed": true,
          "internalType": "address",
          "name": "user",
          "type": "address"
        },
        {
          "indexed": true,
          "internalType": "address",
          "name": "nftAddress",
          "type": "address"
        },
        {
          "indexed": true,
          "internalType": "uint256",
          "name": "tokenId",
          "type": "uint256"
        }
      ],
      "name": "DepositNFT",
      "type": "event"
    },
    {
      "anonymous": false,
      "inputs": [
        {
          "indexed": true,
          "internalType": "address",
          "name": "user",
          "type": "address"
        },
        {
          "indexed": true,
          "internalType": "address",
          "name": "nftAddress",
          "type": "address"
        },
        {
          "indexed": true,
          "internalType": "uint256",
          "name": "tokenId",
          "type": "uint256"
        }
      ],
      "name": "WithdrawNFT",
      "type": "event"
    },
    {
      "inputs": [
        {
          "internalType": "address",
          "name": "nftAddress",
          "type": "address"
        },
        {
          "internalType": "uint256",
          "name": "tokenId",
          "type": "uint256"
        },
        {
          "internalType": "address",
          "name": "user",
          "type": "address"
        }
      ],
      "name": "depositNFT",
      "outputs": [],
      "stateMutability": "nonpayable",
      "type": "function"
    },
    {
      "inputs": [
        {
          "internalType": "address",
          "name": "nftAddress",
          "type": "address"
        },
        {
          "internalType": "uint256",
          "name": "tokenId",
          "type": "uint256"
        },
        {
          "internalType": "address",
          "name": "user",
          "type": "address"
        }
      ],
      "name": "withdrawNFT",
      "outputs": [],
      "stateMutability": "nonpayable",
      "type": "function"
    }
  ],
  "bytecode": "0x608060405234801561001057600080fd5b506102f8806100206000396000f3fe608060405234801561001057600080fd5b50600436106100355760003560e01c8062f2a6ab1461003a57806397be55231461004f575b600080fd5b61004d610048366004610286565b610062565b005b61004d61005d366004610286565b61019f565b6001600160a01b038381166000908152602081815260408083208684529091529020548116908216146100cb5760405162461bcd60e51b815260206004820152600d60248201526c2737ba103a34329037bbb732b960991b604482015260640160405180910390fd5b6001600160a01b038381166000818152602081815260408083208784529091529081902080546001600160a01b0319169055516323b872dd60e01b8152306004820152918316602483015260448201849052906323b872dd90606401600060405180830381600087803b15801561014157600080fd5b505af1158015610155573d6000803e3d6000fd5b5050505081836001600160a01b0316826001600160a01b03167fe7a9bbc68ffc5ef55c4992454bd401d15a750ba00be3c3f868b16d92d8a0d30e60405160405180910390a4505050565b6040516323b872dd60e01b81526001600160a01b038281166004830152306024830152604482018490528416906323b872dd90606401600060405180830381600087803b1580156101ef57600080fd5b505af1158015610203573d6000803e3d6000fd5b505050506001600160a01b0383811660008181526020818152604080832087845290915280822080546001600160a01b0319169486169485179055518593917fc7e8b1bdbecdc8a549557efb2a2ab715cff51630caead31610000019e61dfa4b91a4505050565b80356001600160a01b038116811461028157600080fd5b919050565b60008060006060848603121561029b57600080fd5b6102a48461026a565b9250602084013591506102b96040850161026a565b9050925092509256fea26469706673582212202e2e7b1efb76206dd7a3a7618d2fc3a7a1229be48a4caa8d2eda46616268c4f164736f6c63430008140033",
  "immutableReferences": {},
  "source": "// SPDX-License-Identifier: MIT\npragma solidity ^0.8.18;\n\nimport \"@openzeppelin/contracts/token/ERC721/IERC721.sol\";\nimport \"./interfaces/PoolStructs.sol\";\n\ncontract NFTModule {\n    mapping(address => mapping(uint256 => address)) private nftOwners;\n\n    event DepositNFT(address indexed user, address indexed nftAddress, uint256 indexed tokenId);\n    event WithdrawNFT(address indexed user, address indexed nftAddress, uint256 indexed tokenId);\n\n    function depositNFT(address nftAddress, uint256 tokenId, address user) external {\n        IERC721(nftAddress).transferFrom(user, address(this), tokenId);\n        nftOwners[nftAddress][tokenId] = user;\n        emit DepositNFT(user, nftAddress, tokenId);\n    }\n\n    function withdrawNFT(address nftAddress, uint256 tokenId, address user) external {\n        require(nftOwners[nftAddress][tokenId] == user, \"Not the owner\");\n        nftOwners[nftAddress][tokenId] = address(0);\n        IERC721(nftAddress).transferFrom(address(this), user, tokenId);\n        emit WithdrawNFT(user, nftAddress, tokenId);\n    }\n}\n",
  "sourcePath": "/Users/yosgi/freelancer/DeFiForge/apps/contracts/contracts/NFTModule.sol",
  "compiler": {
    "name": "solc",
    "version": "0.8.20+commit.a1b79de6.Emscripten.clang"
  },
  "schemaVersion": "3.4.16",
  "updatedAt": "2025-02-23T06:27:44.108Z",
  "networkType": "ethereum",
  "devdoc": {
    "kind": "dev",
    "methods": {},
    "version": 1
  },
  "userdoc": {
    "kind": "user",
    "methods": {},
    "version": 1
  }
}