{
  "contractName": "TokenSupport",
  "abi": [
    {
      "inputs": [
        {
          "internalType": "address",
          "name": "token",
          "type": "address"
        }
      ],
      "name": "AlreadySupported",
      "type": "error"
    },
    {
      "inputs": [],
      "name": "InvalidPrice",
      "type": "error"
    },
    {
      "inputs": [
        {
          "internalType": "enum PoolStructs.TokenType",
          "name": "tokenType",
          "type": "uint8"
        }
      ],
      "name": "InvalidTokenType",
      "type": "error"
    },
    {
      "inputs": [],
      "name": "TokenNotSupported",
      "type": "error"
    },
    {
      "anonymous": false,
      "inputs": [
        {
          "indexed": false,
          "internalType": "address",
          "name": "token",
          "type": "address"
        },
        {
          "indexed": false,
          "internalType": "enum PoolStructs.TokenType",
          "name": "tokenType",
          "type": "uint8"
        }
      ],
      "name": "AddSupportedToken",
      "type": "event"
    },
    {
      "inputs": [],
      "name": "BLOCKS_PER_YEAR",
      "outputs": [
        {
          "internalType": "uint256",
          "name": "",
          "type": "uint256"
        }
      ],
      "stateMutability": "view",
      "type": "function"
    },
    {
      "inputs": [],
      "name": "BPS",
      "outputs": [
        {
          "internalType": "uint256",
          "name": "",
          "type": "uint256"
        }
      ],
      "stateMutability": "view",
      "type": "function"
    },
    {
      "inputs": [],
      "name": "PRECISION",
      "outputs": [
        {
          "internalType": "uint256",
          "name": "",
          "type": "uint256"
        }
      ],
      "stateMutability": "view",
      "type": "function"
    },
    {
      "inputs": [
        {
          "internalType": "address",
          "name": "token",
          "type": "address"
        }
      ],
      "name": "getTokenPrice",
      "outputs": [
        {
          "internalType": "uint256",
          "name": "price",
          "type": "uint256"
        }
      ],
      "stateMutability": "view",
      "type": "function"
    }
  ],
  "bytecode": "0x608060405234801561001057600080fd5b506103eb806100206000396000f3fe608060405234801561001057600080fd5b506004361061004c5760003560e01c8063249d39e914610051578063aaf5eb681461006d578063d02641a01461007c578063d37db1d21461008f575b600080fd5b61005b620186a081565b60405190815260200160405180910390f35b61005b670de0b6b3a764000081565b61005b61008a3660046101e7565b610099565b61005b6220148081565b6001600160a01b038116600090815260026020526040812054600160a81b900460ff166100c857506000919050565b6001600160a01b03808316600090815260026020526040902054166100ec816100f3565b9392505050565b6000806000806000856001600160a01b031663feaf968c6040518163ffffffff1660e01b815260040160a060405180830381865afa158015610139573d6000803e3d6000fd5b505050506040513d601f19601f8201168201806040525081019061015d919061022f565b945094505093509350600083131580610174575081155b8061019657508369ffffffffffffffffffff168169ffffffffffffffffffff16105b806101ab5750611c206101a98342610295565b115b156101c85760405162bfc92160e01b815260040160405180910390fd5b6101d3600a80610392565b6101dd908461039e565b9695505050505050565b6000602082840312156101f957600080fd5b81356001600160a01b03811681146100ec57600080fd5b805169ffffffffffffffffffff8116811461022a57600080fd5b919050565b600080600080600060a0868803121561024757600080fd5b61025086610210565b945060208601519350604086015192506060860151915061027360808701610210565b90509295509295909350565b634e487b7160e01b600052601160045260246000fd5b818103818111156102a8576102a861027f565b92915050565b600181815b808511156102e95781600019048211156102cf576102cf61027f565b808516156102dc57918102915b93841c93908002906102b3565b509250929050565b600082610300575060016102a8565b8161030d575060006102a8565b8160018114610323576002811461032d57610349565b60019150506102a8565b60ff84111561033e5761033e61027f565b50506001821b6102a8565b5060208310610133831016604e8410600b841016171561036c575081810a6102a8565b61037683836102ae565b806000190482111561038a5761038a61027f565b029392505050565b60006100ec83836102f1565b80820281158282048414176102a8576102a861027f56fea264697066735822122073a8cf265d1a8adf8e21740bfcc17ea9884418bae0087b4e09c171fc36ab110e64736f6c63430008140033",
  "immutableReferences": {},
  "source": "// SPDX-License-Identifier: MIT\n\npragma solidity ^0.8.18;\n\nimport \"@chainlink/contracts/src/v0.8/shared/interfaces/AggregatorV3Interface.sol\";\nimport \"./libraries/ChainlinkOracle.sol\";\nimport \"./utils/Constants.sol\";\nimport \"./interfaces/PoolStructs.sol\";\n\n/**\n * @title Lending Pool Token Support\n * @dev used to add new supported ERC20 or ERC721 tokens to the lending pool, will give access to the chainlink USD price feeds.\n */\ncontract TokenSupport is Constants {\n    using ChainlinkOracle for AggregatorV3Interface;\n\n    //--------------------------------------------------------------------\n    /** VARIABLES */\n\n    // list of all supported ERC20 tokens\n    address[] internal supportedERC20s;\n    // list of all supported NFT ERC721 tokens\n    address[] internal supportedNFTs;\n    // token => SupportedToken\n    mapping(address => PoolStructs.SupportedToken) internal supportedTokens;\n\n    //--------------------------------------------------------------------\n    /** ERRORS */\n\n    error TokenNotSupported();\n    error AlreadySupported(address token);\n    error InvalidTokenType(PoolStructs.TokenType tokenType);\n\n    //--------------------------------------------------------------------\n    /** EVENTS */\n\n    event AddSupportedToken(address token, PoolStructs.TokenType tokenType);\n\n    //--------------------------------------------------------------------\n    /** FUNCTIONS */\n\n    /**\n     * @dev Adds support for a new ERC20 or ERC721 token.\n     * @param token The address of the token.\n     * @param priceFeed The address of the Chainlink price feed.\n     * @param tokenType The type of the token (ERC20 or ERC721).\n     */\n    function addSupportedToken(\n        address token,\n        address priceFeed,\n        PoolStructs.TokenType tokenType\n    ) internal {\n        if (supportedTokens[token].supported) revert AlreadySupported(token);\n        if (uint256(tokenType) > 1) revert InvalidTokenType(tokenType);\n\n        supportedTokens[token].usdPriceFeed = priceFeed;\n        supportedTokens[token].tokenType = tokenType;\n        supportedTokens[token].supported = true;\n\n        if (tokenType == PoolStructs.TokenType.ERC721) {\n            supportedNFTs.push(token);\n        } else {\n            supportedERC20s.push(token);\n        }\n\n        emit AddSupportedToken(token, tokenType);\n    }\n\n    /**\n     * @dev Gets the USD price of a supported token using Chainlink Oracle.\n     * @param token The address of the token.\n     */\n    function getTokenPrice(address token) public view returns (uint256 price) {\n        if (!supportedTokens[token].supported) return 0;\n        AggregatorV3Interface priceFeed = AggregatorV3Interface(\n            supportedTokens[token].usdPriceFeed\n        );\n        price = priceFeed.getPrice();\n    }\n\n    //--------------------------------------------------------------------\n    /** INTERNAL FUNCTIONS */\n\n    /**\n     * @dev Checks if a token is supported.\n     * @param token The address of the token.\n     */\n    function allowedToken(address token) internal view {\n        if (!supportedTokens[token].supported) revert TokenNotSupported();\n    }\n}\n",
  "sourcePath": "/Users/yosgi/freelancer/DeFiForge/apps/contracts/contracts/TokenSupport.sol",
  "compiler": {
    "name": "solc",
    "version": "0.8.20+commit.a1b79de6.Emscripten.clang"
  },
  "schemaVersion": "3.4.16",
  "updatedAt": "2025-02-21T10:35:06.505Z",
  "devdoc": {
    "details": "used to add new supported ERC20 or ERC721 tokens to the lending pool, will give access to the chainlink USD price feeds.",
    "kind": "dev",
    "methods": {
      "getTokenPrice(address)": {
        "details": "Gets the USD price of a supported token using Chainlink Oracle.",
        "params": {
          "token": "The address of the token."
        }
      }
    },
    "title": "Lending Pool Token Support",
    "version": 1
  },
  "userdoc": {
    "errors": {
      "TokenNotSupported()": [
        {
          "notice": "ERRORS "
        }
      ]
    },
    "events": {
      "AddSupportedToken(address,uint8)": {
        "notice": "EVENTS "
      }
    },
    "kind": "user",
    "methods": {},
    "version": 1
  }
}