{
  "contractName": "VaultModule",
  "abi": [
    {
      "anonymous": false,
      "inputs": [
        {
          "indexed": true,
          "internalType": "address",
          "name": "user",
          "type": "address"
        },
        {
          "indexed": true,
          "internalType": "address",
          "name": "token",
          "type": "address"
        },
        {
          "indexed": false,
          "internalType": "uint256",
          "name": "amount",
          "type": "uint256"
        },
        {
          "indexed": false,
          "internalType": "uint256",
          "name": "shares",
          "type": "uint256"
        }
      ],
      "name": "Borrow",
      "type": "event"
    },
    {
      "anonymous": false,
      "inputs": [
        {
          "indexed": true,
          "internalType": "address",
          "name": "user",
          "type": "address"
        },
        {
          "indexed": true,
          "internalType": "address",
          "name": "token",
          "type": "address"
        },
        {
          "indexed": false,
          "internalType": "uint256",
          "name": "amount",
          "type": "uint256"
        },
        {
          "indexed": false,
          "internalType": "uint256",
          "name": "shares",
          "type": "uint256"
        }
      ],
      "name": "Deposit",
      "type": "event"
    },
    {
      "anonymous": false,
      "inputs": [
        {
          "indexed": true,
          "internalType": "address",
          "name": "user",
          "type": "address"
        },
        {
          "indexed": true,
          "internalType": "address",
          "name": "token",
          "type": "address"
        },
        {
          "indexed": false,
          "internalType": "uint256",
          "name": "amount",
          "type": "uint256"
        },
        {
          "indexed": false,
          "internalType": "uint256",
          "name": "shares",
          "type": "uint256"
        }
      ],
      "name": "Repay",
      "type": "event"
    },
    {
      "anonymous": false,
      "inputs": [
        {
          "indexed": true,
          "internalType": "address",
          "name": "user",
          "type": "address"
        },
        {
          "indexed": true,
          "internalType": "address",
          "name": "token",
          "type": "address"
        },
        {
          "indexed": false,
          "internalType": "uint256",
          "name": "amount",
          "type": "uint256"
        },
        {
          "indexed": false,
          "internalType": "uint256",
          "name": "shares",
          "type": "uint256"
        }
      ],
      "name": "Withdraw",
      "type": "event"
    },
    {
      "inputs": [
        {
          "internalType": "address",
          "name": "token",
          "type": "address"
        },
        {
          "internalType": "uint256",
          "name": "amount",
          "type": "uint256"
        },
        {
          "internalType": "address",
          "name": "user",
          "type": "address"
        }
      ],
      "name": "deposit",
      "outputs": [
        {
          "internalType": "uint256",
          "name": "shares",
          "type": "uint256"
        }
      ],
      "stateMutability": "nonpayable",
      "type": "function"
    },
    {
      "inputs": [
        {
          "internalType": "address",
          "name": "token",
          "type": "address"
        },
        {
          "internalType": "uint256",
          "name": "amount",
          "type": "uint256"
        },
        {
          "internalType": "address",
          "name": "user",
          "type": "address"
        }
      ],
      "name": "borrow",
      "outputs": [
        {
          "internalType": "uint256",
          "name": "shares",
          "type": "uint256"
        }
      ],
      "stateMutability": "nonpayable",
      "type": "function"
    },
    {
      "inputs": [
        {
          "internalType": "address",
          "name": "token",
          "type": "address"
        },
        {
          "internalType": "uint256",
          "name": "amount",
          "type": "uint256"
        },
        {
          "internalType": "address",
          "name": "user",
          "type": "address"
        }
      ],
      "name": "repay",
      "outputs": [
        {
          "internalType": "uint256",
          "name": "shares",
          "type": "uint256"
        }
      ],
      "stateMutability": "nonpayable",
      "type": "function"
    },
    {
      "inputs": [
        {
          "internalType": "address",
          "name": "token",
          "type": "address"
        },
        {
          "internalType": "uint256",
          "name": "shares",
          "type": "uint256"
        },
        {
          "internalType": "address",
          "name": "user",
          "type": "address"
        }
      ],
      "name": "withdraw",
      "outputs": [
        {
          "internalType": "uint256",
          "name": "amount",
          "type": "uint256"
        }
      ],
      "stateMutability": "nonpayable",
      "type": "function"
    },
    {
      "inputs": [
        {
          "internalType": "address",
          "name": "token",
          "type": "address"
        },
        {
          "internalType": "address",
          "name": "user",
          "type": "address"
        }
      ],
      "name": "getBalance",
      "outputs": [
        {
          "internalType": "uint256",
          "name": "",
          "type": "uint256"
        }
      ],
      "stateMutability": "view",
      "type": "function",
      "constant": true
    }
  ],
  "bytecode": "0x608060405234801561001057600080fd5b50610ba2806100206000396000f3fe608060405234801561001057600080fd5b50600436106100575760003560e01c80635ceae9c41461005c57806369328dec146100815780636c665a5514610094578063d4fac45d146100a7578063f45346dc146100ba575b600080fd5b61006f61006a366004610a1f565b6100cd565b60405190815260200160405180910390f35b61006f61008f366004610a1f565b6102bf565b61006f6100a2366004610a1f565b6104ae565b61006f6100b5366004610a5b565b610689565b61006f6100c8366004610a1f565b6106b6565b6001600160a01b03831660009081526020818152604080832081518083019092526001908101546001600160801b038082168452600160801b909104169282019290925261011c9185906108f0565b6001600160a01b0385166000908152602081905260408120600101805492935085929091906101559084906001600160801b0316610aa4565b92506101000a8154816001600160801b0302191690836001600160801b0316021790555080600080866001600160a01b03166001600160a01b0316815260200190815260200160002060010160000160108282829054906101000a90046001600160801b03166101c59190610aa4565b82546001600160801b039182166101009390930a9283029190920219909116179055506040516323b872dd60e01b81526001600160a01b038381166004830152306024830152604482018590528516906323b872dd906064016020604051808303816000875af115801561023d573d6000803e3d6000fd5b505050506040513d601f19601f820116820180604052508101906102619190610acb565b50836001600160a01b0316826001600160a01b03167fe4a1ae657f49cb1fb1c7d3a94ae6093565c4c8c0e03de488f79c377c3c3a24e085846040516102b0929190918252602082015260400190565b60405180910390a39392505050565b6001600160a01b0383166000908152602081815260408083208151808301909252546001600160801b038082168352600160801b909104169181019190915261030a9084600161098b565b6001600160a01b0385166000908152602081905260408120805492935083929091906103409084906001600160801b0316610aa4565b82546101009290920a6001600160801b038181021990931691831602179091556001600160a01b038616600090815260208190526040902080548693509091601091610395918591600160801b900416610aa4565b82546001600160801b039182166101009390930a92830291909202199091161790555060405163a9059cbb60e01b81526001600160a01b0383811660048301526024820183905285169063a9059cbb906044016020604051808303816000875af1158015610407573d6000803e3d6000fd5b505050506040513d601f19601f8201168201806040525081019061042b9190610acb565b506001600160a01b03808516600090815260016020908152604080832093861683529290529081208054839290610463908490610aed565b909155505060408051828152602081018590526001600160a01b0380871692908516917ff341246adaac6f497bc2a656f546ab9e182111d630394f0c57c710a59a2cb56791016102b0565b6001600160a01b0383166000908152602081815260408083208151808301909252600101546001600160801b038082168352600160801b90910416918101919091526104fb9084836108f0565b6001600160a01b0385166000908152602081905260408120600101805492935085929091906105349084906001600160801b0316610b00565b92506101000a8154816001600160801b0302191690836001600160801b0316021790555080600080866001600160a01b03166001600160a01b0316815260200190815260200160002060010160000160108282829054906101000a90046001600160801b03166105a49190610b00565b82546001600160801b039182166101009390930a92830291909202199091161790555060405163a9059cbb60e01b81526001600160a01b0383811660048301526024820185905285169063a9059cbb906044016020604051808303816000875af1158015610616573d6000803e3d6000fd5b505050506040513d601f19601f8201168201806040525081019061063a9190610acb565b50836001600160a01b0316826001600160a01b03167fc1561b330e73faa7d5d1ac03c968d8f359b0191ccdb9cc002cf7d8eb6ae038cb85846040516102b0929190918252602082015260400190565b6001600160a01b038083166000908152600160209081526040808320938516835292905220545b92915050565b60008083116106fc5760405162461bcd60e51b815260206004820152600e60248201526d125b9d985b1a5908185b5bdd5b9d60921b604482015260640160405180910390fd5b6001600160a01b0384166000908152602081815260408083208151808301909252546001600160801b038082168352600160801b90910416918101919091526107469185906108f0565b6001600160a01b03851660009081526020819052604081208054929350859290919061077c9084906001600160801b0316610b00565b82546101009290920a6001600160801b038181021990931691831602179091556001600160a01b0386166000908152602081905260409020805484935090916010916107d1918591600160801b900416610b00565b82546001600160801b039182166101009390930a9283029190920219909116179055506040516323b872dd60e01b81526001600160a01b038381166004830152306024830152604482018590528516906323b872dd906064016020604051808303816000875af1158015610849573d6000803e3d6000fd5b505050506040513d601f19601f8201168201806040525081019061086d9190610acb565b506001600160a01b038085166000908152600160209081526040808320938616835292905290812080548592906108a5908490610b20565b909155505060408051848152602081018390526001600160a01b0380871692908516917fdcbc1c05240f31ff3ad067ef1ee35ce4997762752e3a095284754544f4c709d791016102b0565b82516000906001600160801b0316810361090b575081610984565b835160208501516001600160801b0391821691610929911685610b33565b6109339190610b4a565b905081801561097157508284602001516001600160801b031685600001516001600160801b0316836109659190610b33565b61096f9190610b4a565b105b1561098457610981816001610b20565b90505b9392505050565b600083602001516001600160801b03166000036109a9575081610984565b602084015184516001600160801b03918216916109c7911685610b33565b6109d19190610b4a565b905081801561097157508284600001516001600160801b031685602001516001600160801b0316836109659190610b33565b80356001600160a01b0381168114610a1a57600080fd5b919050565b600080600060608486031215610a3457600080fd5b610a3d84610a03565b925060208401359150610a5260408501610a03565b90509250925092565b60008060408385031215610a6e57600080fd5b610a7783610a03565b9150610a8560208401610a03565b90509250929050565b634e487b7160e01b600052601160045260246000fd5b6001600160801b03828116828216039080821115610ac457610ac4610a8e565b5092915050565b600060208284031215610add57600080fd5b8151801515811461098457600080fd5b818103818111156106b0576106b0610a8e565b6001600160801b03818116838216019080821115610ac457610ac4610a8e565b808201808211156106b0576106b0610a8e565b80820281158282048414176106b0576106b0610a8e565b600082610b6757634e487b7160e01b600052601260045260246000fd5b50049056fea264697066735822122049223fdaa2d7e8ff13dbc10a2c19c1c3b5ca5dab0a0d808d630498ab60b00ddb64736f6c63430008140033",
  "immutableReferences": {},
  "source": "// SPDX-License-Identifier: MIT\npragma solidity ^0.8.18;\n\nimport \"@openzeppelin/contracts/token/ERC20/IERC20.sol\";\nimport \"./libraries/VaultAccounting.sol\";\nimport \"./interfaces/PoolStructs.sol\";\n\ncontract VaultModule {\n    using VaultAccounting for PoolStructs.Vault;\n\n    // Mapping from token address to its vault data.\n    mapping(address => PoolStructs.TokenVault) private vaults;\n    // New mapping: token => (user => balance)\n    mapping(address => mapping(address => uint256)) private userBalances;\n\n    event Deposit(address indexed user, address indexed token, uint256 amount, uint256 shares);\n    event Borrow(address indexed user, address indexed token, uint256 amount, uint256 shares);\n    event Repay(address indexed user, address indexed token, uint256 amount, uint256 shares);\n    event Withdraw(address indexed user, address indexed token, uint256 amount, uint256 shares);\n\n    /**\n     * @notice Deposits a specified amount of tokens into the vault.\n     * @param token The address of the token.\n     * @param amount The amount to deposit.\n     * @param user The depositor's address.\n     * @return shares The number of shares allocated for the deposit.\n     */\n    function deposit(address token, uint256 amount, address user) external returns (uint256 shares) {\n        require(amount > 0, \"Invalid amount\");\n        shares = vaults[token].totalAsset.toShares(amount, false);\n        vaults[token].totalAsset.amount += uint128(amount);\n        vaults[token].totalAsset.shares += uint128(shares);\n\n        IERC20(token).transferFrom(user, address(this), amount);\n        // Update user's deposited balance.\n        userBalances[token][user] += amount;\n\n        emit Deposit(user, token, amount, shares);\n    }\n\n    /**\n     * @notice Borrows a specified amount of tokens from the vault.\n     * @param token The address of the token.\n     * @param amount The amount to borrow.\n     * @param user The borrower's address.\n     * @return shares The number of shares allocated for the borrow.\n     */\n    function borrow(address token, uint256 amount, address user) external returns (uint256 shares) {\n        shares = vaults[token].totalBorrow.toShares(amount, false);\n        vaults[token].totalBorrow.amount += uint128(amount);\n        vaults[token].totalBorrow.shares += uint128(shares);\n\n        IERC20(token).transfer(user, amount);\n        emit Borrow(user, token, amount, shares);\n    }\n\n    /**\n     * @notice Repays a specified amount of borrowed tokens.\n     * @param token The address of the token.\n     * @param amount The amount to repay.\n     * @param user The repayer's address.\n     * @return shares The number of shares reduced by the repayment.\n     */\n    function repay(address token, uint256 amount, address user) external returns (uint256 shares) {\n        shares = vaults[token].totalBorrow.toShares(amount, true);\n        vaults[token].totalBorrow.amount -= uint128(amount);\n        vaults[token].totalBorrow.shares -= uint128(shares);\n\n        IERC20(token).transferFrom(user, address(this), amount);\n        emit Repay(user, token, amount, shares);\n    }\n\n    /**\n     * @notice Withdraws tokens from the vault based on the user's shares.\n     * @param token The address of the token.\n     * @param shares The number of shares to withdraw.\n     * @param user The withdrawer's address.\n     * @return amount The actual token amount withdrawn.\n     */\n    function withdraw(address token, uint256 shares, address user) external returns (uint256 amount) {\n        amount = vaults[token].totalAsset.toAmount(shares, true);\n        vaults[token].totalAsset.amount -= uint128(amount);\n        vaults[token].totalAsset.shares -= uint128(shares);\n\n        IERC20(token).transfer(user, amount);\n        // Update user's deposited balance.\n        userBalances[token][user] -= amount;\n\n        emit Withdraw(user, token, amount, shares);\n    }\n\n    /**\n     * @notice Returns the deposited balance for a given token and user.\n     * @param token The address of the token.\n     * @param user The user's address.\n     * @return The token balance deposited by the user.\n     */\n    function getBalance(address token, address user) external view returns (uint256) {\n        return userBalances[token][user];\n    }\n}\n",
  "sourcePath": "/Users/yosgi/freelancer/DeFiForge/apps/contracts/contracts/VaultModule.sol",
  "compiler": {
    "name": "solc",
    "version": "0.8.20+commit.a1b79de6.Emscripten.clang"
  },
  "schemaVersion": "3.4.16",
  "updatedAt": "2025-02-23T06:27:44.107Z",
  "networkType": "ethereum",
  "devdoc": {
    "kind": "dev",
    "methods": {
      "borrow(address,uint256,address)": {
        "params": {
          "amount": "The amount to borrow.",
          "token": "The address of the token.",
          "user": "The borrower's address."
        },
        "returns": {
          "shares": "The number of shares allocated for the borrow."
        }
      },
      "deposit(address,uint256,address)": {
        "params": {
          "amount": "The amount to deposit.",
          "token": "The address of the token.",
          "user": "The depositor's address."
        },
        "returns": {
          "shares": "The number of shares allocated for the deposit."
        }
      },
      "getBalance(address,address)": {
        "params": {
          "token": "The address of the token.",
          "user": "The user's address."
        },
        "returns": {
          "_0": "The token balance deposited by the user."
        }
      },
      "repay(address,uint256,address)": {
        "params": {
          "amount": "The amount to repay.",
          "token": "The address of the token.",
          "user": "The repayer's address."
        },
        "returns": {
          "shares": "The number of shares reduced by the repayment."
        }
      },
      "withdraw(address,uint256,address)": {
        "params": {
          "shares": "The number of shares to withdraw.",
          "token": "The address of the token.",
          "user": "The withdrawer's address."
        },
        "returns": {
          "amount": "The actual token amount withdrawn."
        }
      }
    },
    "version": 1
  },
  "userdoc": {
    "kind": "user",
    "methods": {
      "borrow(address,uint256,address)": {
        "notice": "Borrows a specified amount of tokens from the vault."
      },
      "deposit(address,uint256,address)": {
        "notice": "Deposits a specified amount of tokens into the vault."
      },
      "getBalance(address,address)": {
        "notice": "Returns the deposited balance for a given token and user."
      },
      "repay(address,uint256,address)": {
        "notice": "Repays a specified amount of borrowed tokens."
      },
      "withdraw(address,uint256,address)": {
        "notice": "Withdraws tokens from the vault based on the user's shares."
      }
    },
    "version": 1
  }
}