{
  "contractName": "MultiSigWallet",
  "abi": [
    {
      "inputs": [
        {
          "internalType": "address[]",
          "name": "_owners",
          "type": "address[]"
        },
        {
          "internalType": "uint256",
          "name": "_requiredConfirmations",
          "type": "uint256"
        },
        {
          "internalType": "uint256",
          "name": "_taskId",
          "type": "uint256"
        },
        {
          "internalType": "address",
          "name": "_taskContract",
          "type": "address"
        }
      ],
      "stateMutability": "nonpayable",
      "type": "constructor"
    },
    {
      "anonymous": false,
      "inputs": [
        {
          "indexed": true,
          "internalType": "address",
          "name": "owner",
          "type": "address"
        },
        {
          "indexed": true,
          "internalType": "uint256",
          "name": "txIndex",
          "type": "uint256"
        }
      ],
      "name": "ConfirmTransaction",
      "type": "event"
    },
    {
      "anonymous": false,
      "inputs": [
        {
          "indexed": true,
          "internalType": "address",
          "name": "sender",
          "type": "address"
        },
        {
          "indexed": false,
          "internalType": "uint256",
          "name": "amount",
          "type": "uint256"
        }
      ],
      "name": "Deposit",
      "type": "event"
    },
    {
      "anonymous": false,
      "inputs": [
        {
          "indexed": true,
          "internalType": "address",
          "name": "owner",
          "type": "address"
        },
        {
          "indexed": true,
          "internalType": "uint256",
          "name": "txIndex",
          "type": "uint256"
        }
      ],
      "name": "ExecuteTransaction",
      "type": "event"
    },
    {
      "anonymous": false,
      "inputs": [
        {
          "indexed": true,
          "internalType": "address",
          "name": "owner",
          "type": "address"
        },
        {
          "indexed": true,
          "internalType": "uint256",
          "name": "txIndex",
          "type": "uint256"
        }
      ],
      "name": "RevokeConfirmation",
      "type": "event"
    },
    {
      "anonymous": false,
      "inputs": [
        {
          "indexed": true,
          "internalType": "address",
          "name": "owner",
          "type": "address"
        },
        {
          "indexed": true,
          "internalType": "uint256",
          "name": "txIndex",
          "type": "uint256"
        },
        {
          "indexed": true,
          "internalType": "address",
          "name": "to",
          "type": "address"
        },
        {
          "indexed": false,
          "internalType": "uint256",
          "name": "value",
          "type": "uint256"
        },
        {
          "indexed": false,
          "internalType": "bytes",
          "name": "data",
          "type": "bytes"
        }
      ],
      "name": "SubmitTransaction",
      "type": "event"
    },
    {
      "inputs": [
        {
          "internalType": "uint256",
          "name": "",
          "type": "uint256"
        },
        {
          "internalType": "address",
          "name": "",
          "type": "address"
        }
      ],
      "name": "isConfirmed",
      "outputs": [
        {
          "internalType": "bool",
          "name": "",
          "type": "bool"
        }
      ],
      "stateMutability": "view",
      "type": "function"
    },
    {
      "inputs": [
        {
          "internalType": "address",
          "name": "",
          "type": "address"
        }
      ],
      "name": "isOwner",
      "outputs": [
        {
          "internalType": "bool",
          "name": "",
          "type": "bool"
        }
      ],
      "stateMutability": "view",
      "type": "function"
    },
    {
      "inputs": [
        {
          "internalType": "uint256",
          "name": "",
          "type": "uint256"
        }
      ],
      "name": "owners",
      "outputs": [
        {
          "internalType": "address",
          "name": "",
          "type": "address"
        }
      ],
      "stateMutability": "view",
      "type": "function"
    },
    {
      "inputs": [],
      "name": "requiredConfirmations",
      "outputs": [
        {
          "internalType": "uint256",
          "name": "",
          "type": "uint256"
        }
      ],
      "stateMutability": "view",
      "type": "function"
    },
    {
      "inputs": [],
      "name": "taskContract",
      "outputs": [
        {
          "internalType": "address",
          "name": "",
          "type": "address"
        }
      ],
      "stateMutability": "view",
      "type": "function"
    },
    {
      "inputs": [],
      "name": "taskId",
      "outputs": [
        {
          "internalType": "uint256",
          "name": "",
          "type": "uint256"
        }
      ],
      "stateMutability": "view",
      "type": "function"
    },
    {
      "inputs": [
        {
          "internalType": "uint256",
          "name": "",
          "type": "uint256"
        }
      ],
      "name": "transactions",
      "outputs": [
        {
          "internalType": "address",
          "name": "to",
          "type": "address"
        },
        {
          "internalType": "uint256",
          "name": "value",
          "type": "uint256"
        },
        {
          "internalType": "bytes",
          "name": "data",
          "type": "bytes"
        },
        {
          "internalType": "bool",
          "name": "executed",
          "type": "bool"
        },
        {
          "internalType": "uint256",
          "name": "confirmations",
          "type": "uint256"
        }
      ],
      "stateMutability": "view",
      "type": "function"
    },
    {
      "stateMutability": "payable",
      "type": "receive"
    },
    {
      "inputs": [
        {
          "internalType": "address",
          "name": "_to",
          "type": "address"
        },
        {
          "internalType": "uint256",
          "name": "_value",
          "type": "uint256"
        },
        {
          "internalType": "bytes",
          "name": "_data",
          "type": "bytes"
        }
      ],
      "name": "submitTransaction",
      "outputs": [
        {
          "internalType": "uint256",
          "name": "",
          "type": "uint256"
        }
      ],
      "stateMutability": "nonpayable",
      "type": "function"
    },
    {
      "inputs": [
        {
          "internalType": "uint256",
          "name": "_txIndex",
          "type": "uint256"
        }
      ],
      "name": "confirmTransaction",
      "outputs": [],
      "stateMutability": "nonpayable",
      "type": "function"
    },
    {
      "inputs": [
        {
          "internalType": "uint256",
          "name": "_txIndex",
          "type": "uint256"
        }
      ],
      "name": "executeTransaction",
      "outputs": [],
      "stateMutability": "nonpayable",
      "type": "function"
    },
    {
      "inputs": [
        {
          "internalType": "uint256",
          "name": "_txIndex",
          "type": "uint256"
        }
      ],
      "name": "revokeConfirmation",
      "outputs": [],
      "stateMutability": "nonpayable",
      "type": "function"
    },
    {
      "inputs": [],
      "name": "getOwnersCount",
      "outputs": [
        {
          "internalType": "uint256",
          "name": "",
          "type": "uint256"
        }
      ],
      "stateMutability": "view",
      "type": "function"
    },
    {
      "inputs": [],
      "name": "getOwners",
      "outputs": [
        {
          "internalType": "address[]",
          "name": "",
          "type": "address[]"
        }
      ],
      "stateMutability": "view",
      "type": "function"
    },
    {
      "inputs": [],
      "name": "getTransactionCount",
      "outputs": [
        {
          "internalType": "uint256",
          "name": "",
          "type": "uint256"
        }
      ],
      "stateMutability": "view",
      "type": "function"
    },
    {
      "inputs": [
        {
          "internalType": "uint256",
          "name": "_txIndex",
          "type": "uint256"
        }
      ],
      "name": "getTransaction",
      "outputs": [
        {
          "internalType": "address",
          "name": "to",
          "type": "address"
        },
        {
          "internalType": "uint256",
          "name": "value",
          "type": "uint256"
        },
        {
          "internalType": "bytes",
          "name": "data",
          "type": "bytes"
        },
        {
          "internalType": "bool",
          "name": "executed",
          "type": "bool"
        },
        {
          "internalType": "uint256",
          "name": "confirmations",
          "type": "uint256"
        }
      ],
      "stateMutability": "view",
      "type": "function"
    }
  ],
  "bytecode": "0x60806040523480156200001157600080fd5b506040516200156f3803806200156f833981016040819052620000349162000297565b60008451116200007d5760405162461bcd60e51b815260206004820152600f60248201526e13dddb995c9cc81c995c5d5a5c9959608a1b60448201526064015b60405180910390fd5b6000831180156200008f575083518311155b620000dd5760405162461bcd60e51b815260206004820152601560248201527f496e76616c696420636f6e6669726d6174696f6e730000000000000000000000604482015260640162000074565b60005b84518110156200023457600085828151811062000101576200010162000391565b6020026020010151905060006001600160a01b0316816001600160a01b0316036200015f5760405162461bcd60e51b815260206004820152600d60248201526c24b73b30b634b21037bbb732b960991b604482015260640162000074565b6001600160a01b03811660009081526004602052604090205460ff1615620001bd5760405162461bcd60e51b815260206004820152601060248201526f4f776e6572206e6f7420756e6971756560801b604482015260640162000074565b6001600160a01b03166000818152600460205260408120805460ff19166001908117909155815490810182559080527f290decd9548b62a8d60345a988386fc84ba6bc95484008f6362f93160ef3e5630180546001600160a01b0319169091179055806200022b81620003a7565b915050620000e0565b50600192909255600255600380546001600160a01b0319166001600160a01b0390921691909117905550620003cf565b634e487b7160e01b600052604160045260246000fd5b80516001600160a01b03811681146200029257600080fd5b919050565b60008060008060808587031215620002ae57600080fd5b84516001600160401b0380821115620002c657600080fd5b818701915087601f830112620002db57600080fd5b8151602082821115620002f257620002f262000264565b8160051b604051601f19603f830116810181811086821117156200031a576200031a62000264565b60405292835281830193508481018201928b8411156200033957600080fd5b948201945b83861015620003625762000352866200027a565b855294820194938201936200033e565b8099505050808901519650505050506040850151915062000386606086016200027a565b905092959194509250565b634e487b7160e01b600052603260045260246000fd5b600060018201620003c857634e487b7160e01b600052601160045260246000fd5b5060010190565b61119080620003df6000396000f3fe6080604052600436106100ec5760003560e01c806373ff81cc1161008a578063a0e67e2b11610059578063a0e67e2b146102d8578063c01a8c84146102fa578063c64274741461031a578063ee22610b1461033a57600080fd5b806373ff81cc1461025257806380f59a651461026757806382e717f7146102a25780639ace38c2146102b857600080fd5b80632f54bf6e116100c65780632f54bf6e146101ab5780633322b23d146101eb57806333ea3dc8146102015780633b70aebc1461023257600080fd5b8063025e7c271461012d57806320ea8d861461016a5780632e7700f01461018c57600080fd5b366101285760405134815233907fe1fffcc4923d04b559f4d29a8bfc6cda04eb5b0d3c460751c2402c5c5cc9109c9060200160405180910390a2005b600080fd5b34801561013957600080fd5b5061014d610148366004610c7d565b61035a565b6040516001600160a01b0390911681526020015b60405180910390f35b34801561017657600080fd5b5061018a610185366004610c7d565b610384565b005b34801561019857600080fd5b506006545b604051908152602001610161565b3480156101b757600080fd5b506101db6101c6366004610cb2565b60046020526000908152604090205460ff1681565b6040519015158152602001610161565b3480156101f757600080fd5b5061019d60025481565b34801561020d57600080fd5b5061022161021c366004610c7d565b610510565b604051610161959493929190610d1a565b34801561023e57600080fd5b5060035461014d906001600160a01b031681565b34801561025e57600080fd5b5060005461019d565b34801561027357600080fd5b506101db610282366004610d55565b600560209081526000928352604080842090915290825290205460ff1681565b3480156102ae57600080fd5b5061019d60015481565b3480156102c457600080fd5b506102216102d3366004610c7d565b61060b565b3480156102e457600080fd5b506102ed6106e4565b6040516101619190610d81565b34801561030657600080fd5b5061018a610315366004610c7d565b610746565b34801561032657600080fd5b5061019d610335366004610de4565b6108ea565b34801561034657600080fd5b5061018a610355366004610c7d565b610a75565b6000818154811061036a57600080fd5b6000918252602090912001546001600160a01b0316905081565b3360009081526004602052604090205460ff166103bc5760405162461bcd60e51b81526004016103b390610eaf565b60405180910390fd5b600654819081106103df5760405162461bcd60e51b81526004016103b390610ed2565b81600681815481106103f3576103f3610efd565b600091825260209091206003600590920201015460ff16156104275760405162461bcd60e51b81526004016103b390610f13565b600083815260056020908152604080832033845290915290205460ff166104835760405162461bcd60e51b815260206004820152601060248201526f151e081b9bdd0818dbdb999a5c9b595960821b60448201526064016103b3565b60006006848154811061049857610498610efd565b9060005260206000209060050201905060018160040160008282546104bd9190610f56565b90915550506000848152600560209081526040808320338085529252808320805460ff191690555186927ff0dca620e2e81f7841d07bcc105e1704fb01475b278a9d4c236e1c62945edd5591a350505050565b600080606060008060006006878154811061052d5761052d610efd565b6000918252602090912060059091020180546001820154600383015460048401546002850180549596506001600160a01b039094169492939260ff90921691839061057790610f6f565b80601f01602080910402602001604051908101604052809291908181526020018280546105a390610f6f565b80156105f05780601f106105c5576101008083540402835291602001916105f0565b820191906000526020600020905b8154815290600101906020018083116105d357829003601f168201915b50505050509250955095509550955095505091939590929450565b6006818154811061061b57600080fd5b60009182526020909120600590910201805460018201546002830180546001600160a01b03909316945090929161065190610f6f565b80601f016020809104026020016040519081016040528092919081815260200182805461067d90610f6f565b80156106ca5780601f1061069f576101008083540402835291602001916106ca565b820191906000526020600020905b8154815290600101906020018083116106ad57829003601f168201915b505050506003830154600490930154919260ff1691905085565b6060600080548060200260200160405190810160405280929190818152602001828054801561073c57602002820191906000526020600020905b81546001600160a01b0316815260019091019060200180831161071e575b5050505050905090565b3360009081526004602052604090205460ff166107755760405162461bcd60e51b81526004016103b390610eaf565b600654819081106107985760405162461bcd60e51b81526004016103b390610ed2565b81600681815481106107ac576107ac610efd565b600091825260209091206003600590920201015460ff16156107e05760405162461bcd60e51b81526004016103b390610f13565b6000838152600560209081526040808320338452909152902054839060ff16156108435760405162461bcd60e51b8152602060048201526014602482015273151e08185b1c9958591e4818dbdb999a5c9b595960621b60448201526064016103b3565b60006006858154811061085857610858610efd565b90600052602060002090600502019050600181600401600082825461087d9190610fa9565b90915550506000858152600560209081526040808320338085529252808320805460ff191660011790555187927f5cbe105e36805f7820e291f799d5794ff948af2a5f664e580382defb6339004191a36001548160040154106108e3576108e385610a75565b5050505050565b3360009081526004602052604081205460ff166109195760405162461bcd60e51b81526004016103b390610eaf565b600680546040805160a0810182526001600160a01b03888116825260208201888152928201878152600060608401819052608084018190526001860187559590955281517ff652222313e28459528d920b65115c16c04f3efc82aaedc97be59f3f377c0d3f6005860290810180546001600160a01b0319169290931691909117825592517ff652222313e28459528d920b65115c16c04f3efc82aaedc97be59f3f377c0d4084015593519293909290917ff652222313e28459528d920b65115c16c04f3efc82aaedc97be59f3f377c0d4101906109f6908261100b565b50606082015160038201805460ff19169115159190911790556080909101516004909101556040516001600160a01b03861690829033907fd5a05bf70715ad82a09a756320284a1b54c9ff74cd0f8cce6219e79b563fe59d90610a5c90899089906110cb565b60405180910390a4610a6d81610746565b949350505050565b3360009081526004602052604090205460ff16610aa45760405162461bcd60e51b81526004016103b390610eaf565b60065481908110610ac75760405162461bcd60e51b81526004016103b390610ed2565b8160068181548110610adb57610adb610efd565b600091825260209091206003600590920201015460ff1615610b0f5760405162461bcd60e51b81526004016103b390610f13565b600060068481548110610b2457610b24610efd565b9060005260206000209060050201905060015481600401541015610b8a5760405162461bcd60e51b815260206004820152601860248201527f4e6f7420656e6f75676820636f6e6669726d6174696f6e73000000000000000060448201526064016103b3565b60038101805460ff191660019081179091558154908201546040516000926001600160a01b03169190610bc19060028601906110e4565b60006040518083038185875af1925050503d8060008114610bfe576040519150601f19603f3d011682016040523d82523d6000602084013e610c03565b606091505b5050905080610c495760405162461bcd60e51b8152602060048201526012602482015271151c985b9cd858dd1a5bdb8819985a5b195960721b60448201526064016103b3565b604051859033907f5445f318f4f5fcfb66592e68e0cc5822aa15664039bd5f0ffde24c5a8142b1ac90600090a35050505050565b600060208284031215610c8f57600080fd5b5035919050565b80356001600160a01b0381168114610cad57600080fd5b919050565b600060208284031215610cc457600080fd5b610ccd82610c96565b9392505050565b6000815180845260005b81811015610cfa57602081850181015186830182015201610cde565b506000602082860101526020601f19601f83011685010191505092915050565b60018060a01b038616815284602082015260a060408201526000610d4160a0830186610cd4565b931515606083015250608001529392505050565b60008060408385031215610d6857600080fd5b82359150610d7860208401610c96565b90509250929050565b6020808252825182820181905260009190848201906040850190845b81811015610dc25783516001600160a01b031683529284019291840191600101610d9d565b50909695505050505050565b634e487b7160e01b600052604160045260246000fd5b600080600060608486031215610df957600080fd5b610e0284610c96565b925060208401359150604084013567ffffffffffffffff80821115610e2657600080fd5b818601915086601f830112610e3a57600080fd5b813581811115610e4c57610e4c610dce565b604051601f8201601f19908116603f01168101908382118183101715610e7457610e74610dce565b81604052828152896020848701011115610e8d57600080fd5b8260208601602083013760006020848301015280955050505050509250925092565b6020808252600990820152682737ba1037bbb732b960b91b604082015260600190565b602080825260119082015270151e08191bd95cc81b9bdd08195e1a5cdd607a1b604082015260600190565b634e487b7160e01b600052603260045260246000fd5b602080825260139082015272151e08185b1c9958591e48195e1958dd5d1959606a1b604082015260600190565b634e487b7160e01b600052601160045260246000fd5b81810381811115610f6957610f69610f40565b92915050565b600181811c90821680610f8357607f821691505b602082108103610fa357634e487b7160e01b600052602260045260246000fd5b50919050565b80820180821115610f6957610f69610f40565b601f82111561100657600081815260208120601f850160051c81016020861015610fe35750805b601f850160051c820191505b8181101561100257828155600101610fef565b5050505b505050565b815167ffffffffffffffff81111561102557611025610dce565b611039816110338454610f6f565b84610fbc565b602080601f83116001811461106e57600084156110565750858301515b600019600386901b1c1916600185901b178555611002565b600085815260208120601f198616915b8281101561109d5788860151825594840194600190910190840161107e565b50858210156110bb5787850151600019600388901b60f8161c191681555b5050505050600190811b01905550565b828152604060208201526000610a6d6040830184610cd4565b60008083546110f281610f6f565b6001828116801561110a576001811461111f5761114e565b60ff198416875282151583028701945061114e565b8760005260208060002060005b858110156111455781548a82015290840190820161112c565b50505082870194505b5092969550505050505056fea26469706673582212205a8cc8ccb063b715b83b8a83d014d2984ab4f0a60b59a8dc638b9e0c0aa208b364736f6c63430008140033",
  "immutableReferences": {},
  "source": "// SPDX-License-Identifier: MIT\npragma solidity ^0.8.20;\n\nimport \"@openzeppelin/contracts/access/Ownable.sol\";\n\n/**\n * @title MultiSigWallet\n * @dev \n */\ncontract MultiSigWallet {\n    // \n    struct Transaction {\n        address to;\n        uint256 value;\n        bytes data;\n        bool executed;\n        uint256 confirmations;\n    }\n    \n    // \n    address[] public owners;\n    uint256 public requiredConfirmations;\n    uint256 public taskId;\n    address public taskContract;\n    \n    // \n    mapping(address => bool) public isOwner;\n    mapping(uint256 => mapping(address => bool)) public isConfirmed;\n    \n    // \n    Transaction[] public transactions;\n    \n    // \n    event Deposit(address indexed sender, uint256 amount);\n    event SubmitTransaction(address indexed owner, uint256 indexed txIndex, address indexed to, uint256 value, bytes data);\n    event ConfirmTransaction(address indexed owner, uint256 indexed txIndex);\n    event RevokeConfirmation(address indexed owner, uint256 indexed txIndex);\n    event ExecuteTransaction(address indexed owner, uint256 indexed txIndex);\n    \n    /**\n     * @dev \n     */\n    modifier onlyOwner() {\n        require(isOwner[msg.sender], \"Not owner\");\n        _;\n    }\n    \n    /**\n     * @dev \n     */\n    modifier txExists(uint256 _txIndex) {\n        require(_txIndex < transactions.length, \"Tx does not exist\");\n        _;\n    }\n    \n    /**\n     * @dev \n     */\n    modifier notExecuted(uint256 _txIndex) {\n        require(!transactions[_txIndex].executed, \"Tx already executed\");\n        _;\n    }\n    \n    /**\n     * @dev \n     */\n    modifier notConfirmed(uint256 _txIndex) {\n        require(!isConfirmed[_txIndex][msg.sender], \"Tx already confirmed\");\n        _;\n    }\n    \n    /**\n     * @dev \n     * @param _owners \n     * @param _requiredConfirmations \n     * @param _taskId ID\n     * @param _taskContract \n     */\n    constructor(\n        address[] memory _owners,\n        uint256 _requiredConfirmations,\n        uint256 _taskId,\n        address _taskContract\n    ) {\n        require(_owners.length > 0, \"Owners required\");\n        require(\n            _requiredConfirmations > 0 && _requiredConfirmations <= _owners.length,\n            \"Invalid confirmations\"\n        );\n        \n        for (uint256 i = 0; i < _owners.length; i++) {\n            address owner = _owners[i];\n            \n            require(owner != address(0), \"Invalid owner\");\n            require(!isOwner[owner], \"Owner not unique\");\n            \n            isOwner[owner] = true;\n            owners.push(owner);\n        }\n        \n        requiredConfirmations = _requiredConfirmations;\n        taskId = _taskId;\n        taskContract = _taskContract;\n    }\n    \n    /**\n     * @dev ETH\n     */\n    receive() external payable {\n        emit Deposit(msg.sender, msg.value);\n    }\n    \n    /**\n     * @dev \n     * @param _to \n     * @param _value \n     * @param _data \n     * @return \n     */\n    function submitTransaction(\n        address _to,\n        uint256 _value,\n        bytes memory _data\n    ) public onlyOwner returns (uint256) {\n        uint256 txIndex = transactions.length;\n        \n        transactions.push(Transaction({\n            to: _to,\n            value: _value,\n            data: _data,\n            executed: false,\n            confirmations: 0\n        }));\n        \n        emit SubmitTransaction(msg.sender, txIndex, _to, _value, _data);\n        \n        // \n        confirmTransaction(txIndex);\n        \n        return txIndex;\n    }\n    \n    /**\n     * @dev \n     * @param _txIndex \n     */\n    function confirmTransaction(uint256 _txIndex)\n        public\n        onlyOwner\n        txExists(_txIndex)\n        notExecuted(_txIndex)\n        notConfirmed(_txIndex)\n    {\n        Transaction storage transaction = transactions[_txIndex];\n        transaction.confirmations += 1;\n        isConfirmed[_txIndex][msg.sender] = true;\n        \n        emit ConfirmTransaction(msg.sender, _txIndex);\n        \n        // \n        if (transaction.confirmations >= requiredConfirmations) {\n            executeTransaction(_txIndex);\n        }\n    }\n    \n    /**\n     * @dev \n     * @param _txIndex \n     */\n    function executeTransaction(uint256 _txIndex)\n        public\n        onlyOwner\n        txExists(_txIndex)\n        notExecuted(_txIndex)\n    {\n        Transaction storage transaction = transactions[_txIndex];\n        \n        require(transaction.confirmations >= requiredConfirmations, \"Not enough confirmations\");\n        \n        transaction.executed = true;\n        \n        (bool success, ) = transaction.to.call{value: transaction.value}(transaction.data);\n        require(success, \"Transaction failed\");\n        \n        emit ExecuteTransaction(msg.sender, _txIndex);\n    }\n    \n    /**\n     * @dev \n     * @param _txIndex \n     */\n    function revokeConfirmation(uint256 _txIndex)\n        public\n        onlyOwner\n        txExists(_txIndex)\n        notExecuted(_txIndex)\n    {\n        require(isConfirmed[_txIndex][msg.sender], \"Tx not confirmed\");\n        \n        Transaction storage transaction = transactions[_txIndex];\n        transaction.confirmations -= 1;\n        isConfirmed[_txIndex][msg.sender] = false;\n        \n        emit RevokeConfirmation(msg.sender, _txIndex);\n    }\n    \n    /**\n     * @dev \n     * @return \n     */\n    function getOwnersCount() public view returns (uint256) {\n        return owners.length;\n    }\n    \n    /**\n     * @dev \n     * @return \n     */\n    function getOwners() public view returns (address[] memory) {\n        return owners;\n    }\n    \n    /**\n     * @dev \n     * @return \n     */\n    function getTransactionCount() public view returns (uint256) {\n        return transactions.length;\n    }\n    function getTransaction(uint256 _txIndex)\n        public\n        view\n        returns (\n            address to,\n            uint256 value,\n            bytes memory data,\n            bool executed,\n            uint256 confirmations\n        )\n    {\n        Transaction storage transaction = transactions[_txIndex];\n        \n        return (\n            transaction.to,\n            transaction.value,\n            transaction.data,\n            transaction.executed,\n            transaction.confirmations\n        );\n    }\n}\n\n/**\n * @title MultiSigWalletFactory\n * @dev \n */\ncontract MultiSigWalletFactory is Ownable {\n    address public trailMaintenanceContract;\n    \n    // : ID => \n    mapping(uint256 => address) public taskMultiSigs;\n    \n    // \n    event MultiSigCreated(uint256 indexed taskId, address multiSigAddress, address[] owners, uint256 threshold);\n    \n    /**\n     * @dev \n     */\n    constructor() Ownable(msg.sender) {}\n    \n    /**\n     * @dev \n     * @param _trailContract \n     */\n    function setTrailMaintenanceContract(address _trailContract) external onlyOwner {\n        require(_trailContract != address(0), \"Invalid address\");\n        trailMaintenanceContract = _trailContract;\n    }\n    \n    /**\n     * @dev \n     * @param _taskId ID\n     * @param _owners \n     * @param _threshold \n     * @return \n     */\n    function createMultiSig(\n        uint256 _taskId,\n        address[] memory _owners,\n        uint256 _threshold\n    ) external returns (address) {\n        require(msg.sender == trailMaintenanceContract || msg.sender == owner(), \"Not authorized\");\n        require(_owners.length > 0, \"Owners required\");\n        require(_threshold > 0 && _threshold <= _owners.length, \"Invalid threshold\");\n        require(taskMultiSigs[_taskId] == address(0), \"MultiSig already exists for task\");\n        \n        // \n        MultiSigWallet multiSig = new MultiSigWallet(\n            _owners,\n            _threshold,\n            _taskId,\n            trailMaintenanceContract\n        );\n        \n        address multiSigAddress = address(multiSig);\n        taskMultiSigs[_taskId] = multiSigAddress;\n        \n        emit MultiSigCreated(_taskId, multiSigAddress, _owners, _threshold);\n        \n        return multiSigAddress;\n    }\n    \n    /**\n     * @dev \n     * @param _taskId ID\n     * @return \n     */\n    function getMultiSig(uint256 _taskId) external view returns (address) {\n        return taskMultiSigs[_taskId];\n    }\n    \n    /**\n     * @dev \n     * @param _taskId ID\n     * @return \n     */\n    function hasMultiSig(uint256 _taskId) external view returns (bool) {\n        return taskMultiSigs[_taskId] != address(0);\n    }\n}",
  "sourcePath": "/Users/yosgi/freelancer/Volunteers3/contracts/contracts/MultiSigWalletFactory.sol",
  "compiler": {
    "name": "solc",
    "version": "0.8.20+commit.a1b79de6.Emscripten.clang"
  },
  "schemaVersion": "3.4.16",
  "updatedAt": "2025-03-22T11:34:51.880Z",
  "devdoc": {
    "details": "",
    "kind": "dev",
    "methods": {
      "confirmTransaction(uint256)": {
        "details": "",
        "params": {
          "_txIndex": ""
        }
      },
      "constructor": {
        "details": "",
        "params": {
          "_owners": "",
          "_requiredConfirmations": "",
          "_taskContract": "",
          "_taskId": "ID"
        }
      },
      "executeTransaction(uint256)": {
        "details": "",
        "params": {
          "_txIndex": ""
        }
      },
      "getOwners()": {
        "details": "",
        "returns": {
          "_0": ""
        }
      },
      "getOwnersCount()": {
        "details": "",
        "returns": {
          "_0": ""
        }
      },
      "getTransactionCount()": {
        "details": "",
        "returns": {
          "_0": ""
        }
      },
      "revokeConfirmation(uint256)": {
        "details": "",
        "params": {
          "_txIndex": ""
        }
      },
      "submitTransaction(address,uint256,bytes)": {
        "details": "",
        "params": {
          "_data": "",
          "_to": "",
          "_value": ""
        },
        "returns": {
          "_0": ""
        }
      }
    },
    "title": "MultiSigWallet",
    "version": 1
  },
  "userdoc": {
    "kind": "user",
    "methods": {},
    "version": 1
  }
}