{
  "contractName": "Pausable",
  "abi": [
    {
      "inputs": [
        {
          "internalType": "address",
          "name": "initialOwner",
          "type": "address"
        }
      ],
      "stateMutability": "nonpayable",
      "type": "constructor"
    },
    {
      "inputs": [
        {
          "internalType": "address",
          "name": "owner",
          "type": "address"
        }
      ],
      "name": "OwnableInvalidOwner",
      "type": "error"
    },
    {
      "inputs": [
        {
          "internalType": "address",
          "name": "account",
          "type": "address"
        }
      ],
      "name": "OwnableUnauthorizedAccount",
      "type": "error"
    },
    {
      "inputs": [],
      "name": "isNotPaused",
      "type": "error"
    },
    {
      "inputs": [],
      "name": "isPaused",
      "type": "error"
    },
    {
      "anonymous": false,
      "inputs": [
        {
          "indexed": true,
          "internalType": "address",
          "name": "previousOwner",
          "type": "address"
        },
        {
          "indexed": true,
          "internalType": "address",
          "name": "newOwner",
          "type": "address"
        }
      ],
      "name": "OwnershipTransferred",
      "type": "event"
    },
    {
      "anonymous": false,
      "inputs": [
        {
          "indexed": false,
          "internalType": "bool",
          "name": "state",
          "type": "bool"
        }
      ],
      "name": "SystemPaused",
      "type": "event"
    },
    {
      "anonymous": false,
      "inputs": [
        {
          "indexed": false,
          "internalType": "address",
          "name": "vault",
          "type": "address"
        },
        {
          "indexed": false,
          "internalType": "bool",
          "name": "state",
          "type": "bool"
        }
      ],
      "name": "VaultPaused",
      "type": "event"
    },
    {
      "inputs": [],
      "name": "globalPaused",
      "outputs": [
        {
          "internalType": "bool",
          "name": "",
          "type": "bool"
        }
      ],
      "stateMutability": "view",
      "type": "function"
    },
    {
      "inputs": [],
      "name": "owner",
      "outputs": [
        {
          "internalType": "address",
          "name": "",
          "type": "address"
        }
      ],
      "stateMutability": "view",
      "type": "function"
    },
    {
      "inputs": [],
      "name": "renounceOwnership",
      "outputs": [],
      "stateMutability": "nonpayable",
      "type": "function"
    },
    {
      "inputs": [
        {
          "internalType": "address",
          "name": "newOwner",
          "type": "address"
        }
      ],
      "name": "transferOwnership",
      "outputs": [],
      "stateMutability": "nonpayable",
      "type": "function"
    },
    {
      "inputs": [
        {
          "internalType": "address",
          "name": "vault",
          "type": "address"
        }
      ],
      "name": "pausedStatus",
      "outputs": [
        {
          "internalType": "bool",
          "name": "",
          "type": "bool"
        }
      ],
      "stateMutability": "view",
      "type": "function"
    },
    {
      "inputs": [
        {
          "internalType": "address",
          "name": "vault",
          "type": "address"
        },
        {
          "internalType": "bool",
          "name": "status",
          "type": "bool"
        }
      ],
      "name": "setPausedStatus",
      "outputs": [],
      "stateMutability": "nonpayable",
      "type": "function"
    }
  ],
  "bytecode": "0x60806040526000805460ff60a01b1916600160a01b17905534801561002357600080fd5b50604051610484380380610484833981016040819052610042916100d1565b806001600160a01b03811661007157604051631e4fbdf760e01b81526000600482015260240160405180910390fd5b61007a81610081565b5050610101565b600080546001600160a01b038381166001600160a01b0319831681178455604051919092169283917f8be0079c531659141344cd1fd0a4f28419497f9722a3daafe3b4186f6b6457e09190a35050565b6000602082840312156100e357600080fd5b81516001600160a01b03811681146100fa57600080fd5b9392505050565b610374806101106000396000f3fe608060405234801561001057600080fd5b50600436106100625760003560e01c80631d81944f1461006757806361a552dc1461007c578063715018a6146100a55780638da5cb5b146100ad578063b6812c99146100c8578063f2fde38b146100db575b600080fd5b61007a6100753660046102e0565b6100ee565b005b60005461009090600160a01b900460ff1681565b60405190151581526020015b60405180910390f35b61007a6101b9565b6000546040516001600160a01b03909116815260200161009c565b6100906100d636600461031c565b6101cd565b61007a6100e936600461031c565b610204565b6100f6610247565b6001600160a01b03821661015d5760008054821515600160a01b0260ff60a01b199091161790556040517f59617e84cd4a4d47c34c76f190da73d3a6a0236e0770dcba41851db53f336f579061015190831515815260200190565b60405180910390a15050565b6001600160a01b038216600081815260016020908152604091829020805460ff19168515159081179091558251938452908301527ff0158690f9b0f41fc31e96038d36f6b6517557ebe2d3202408966ef3c616f5b69101610151565b6101c1610247565b6101cb6000610274565b565b60008054600160a01b900460ff16806101fe57506001600160a01b03821660009081526001602052604090205460ff165b92915050565b61020c610247565b6001600160a01b03811661023b57604051631e4fbdf760e01b8152600060048201526024015b60405180910390fd5b61024481610274565b50565b6000546001600160a01b031633146101cb5760405163118cdaa760e01b8152336004820152602401610232565b600080546001600160a01b038381166001600160a01b0319831681178455604051919092169283917f8be0079c531659141344cd1fd0a4f28419497f9722a3daafe3b4186f6b6457e09190a35050565b80356001600160a01b03811681146102db57600080fd5b919050565b600080604083850312156102f357600080fd5b6102fc836102c4565b91506020830135801515811461031157600080fd5b809150509250929050565b60006020828403121561032e57600080fd5b610337826102c4565b939250505056fea264697066735822122078a459185944224d53768bd7b1e2cee68516d35b122bb7ac215c7fbd423bdfbe64736f6c63430008140033",
  "immutableReferences": {},
  "source": "// SPDX-License-Identifier: MIT\n\npragma solidity ^0.8.18;\n\nimport \"@openzeppelin/contracts/access/Ownable.sol\";\n\n/**\n    A custom implementation for contract pausing functionalities\n*/\ncontract Pausable is Ownable {\n    // global lending pool paused state\n    bool public globalPaused = true;\n\n    // single ERC20 token vault => paused state\n    mapping(address vaultToken => bool status) vaultPaused;\n\n    /** ERRORS */\n    error isPaused();\n    error isNotPaused();\n\n    /** EVENTS */\n    event SystemPaused(bool state);\n    event VaultPaused(address vault, bool state);\n    constructor(address initialOwner) Ownable(initialOwner) {}\n    function WhenPaused(address vault) internal view {\n        if (!globalPaused && !vaultPaused[vault]) revert isNotPaused();\n    }\n\n    function WhenNotPaused(address vault) internal view {\n        if (pausedStatus(vault)) revert isPaused();\n    }\n\n    function pausedStatus(address vault) public view returns (bool) {\n        return globalPaused || vaultPaused[vault];\n    }\n\n    function setPausedStatus(address vault, bool status) external onlyOwner {\n        if (vault == address(0)) {\n            // pass address(0) to pause all lending vault\n            globalPaused = status;\n            emit SystemPaused(status);\n        } else {\n            // change paused status for a given vault in the lending pool\n            vaultPaused[vault] = status;\n            emit VaultPaused(vault, status);\n        }\n    }\n}\n",
  "sourcePath": "/Users/yosgi/freelancer/Volunteers3/contracts/contracts/utils/Pausable.sol",
  "compiler": {
    "name": "solc",
    "version": "0.8.20+commit.a1b79de6.Emscripten.clang"
  },
  "schemaVersion": "3.4.16",
  "updatedAt": "2025-03-22T11:34:51.869Z",
  "devdoc": {
    "errors": {
      "OwnableInvalidOwner(address)": [
        {
          "details": "The owner is not a valid owner account. (eg. `address(0)`)"
        }
      ],
      "OwnableUnauthorizedAccount(address)": [
        {
          "details": "The caller account is not authorized to perform an operation."
        }
      ]
    },
    "kind": "dev",
    "methods": {
      "owner()": {
        "details": "Returns the address of the current owner."
      },
      "renounceOwnership()": {
        "details": "Leaves the contract without owner. It will not be possible to call `onlyOwner` functions. Can only be called by the current owner. NOTE: Renouncing ownership will leave the contract without an owner, thereby disabling any functionality that is only available to the owner."
      },
      "transferOwnership(address)": {
        "details": "Transfers ownership of the contract to a new account (`newOwner`). Can only be called by the current owner."
      }
    },
    "version": 1
  },
  "userdoc": {
    "errors": {
      "isPaused()": [
        {
          "notice": "ERRORS "
        }
      ]
    },
    "events": {
      "SystemPaused(bool)": {
        "notice": "EVENTS "
      }
    },
    "kind": "user",
    "methods": {},
    "notice": "A custom implementation for contract pausing functionalities",
    "version": 1
  }
}