{
  "contractName": "TrailMaintenance",
  "abi": [
    {
      "inputs": [
        {
          "internalType": "address",
          "name": "_rewardToken",
          "type": "address"
        },
        {
          "internalType": "address",
          "name": "_nftToken",
          "type": "address"
        },
        {
          "internalType": "address",
          "name": "_multiSigFactory",
          "type": "address"
        }
      ],
      "stateMutability": "nonpayable",
      "type": "constructor"
    },
    {
      "inputs": [],
      "name": "EnforcedPause",
      "type": "error"
    },
    {
      "inputs": [],
      "name": "ExpectedPause",
      "type": "error"
    },
    {
      "inputs": [
        {
          "internalType": "address",
          "name": "owner",
          "type": "address"
        }
      ],
      "name": "OwnableInvalidOwner",
      "type": "error"
    },
    {
      "inputs": [
        {
          "internalType": "address",
          "name": "account",
          "type": "address"
        }
      ],
      "name": "OwnableUnauthorizedAccount",
      "type": "error"
    },
    {
      "inputs": [],
      "name": "ReentrancyGuardReentrantCall",
      "type": "error"
    },
    {
      "anonymous": false,
      "inputs": [
        {
          "indexed": true,
          "internalType": "uint256",
          "name": "taskId",
          "type": "uint256"
        },
        {
          "indexed": false,
          "internalType": "uint256",
          "name": "unlockTime",
          "type": "uint256"
        }
      ],
      "name": "CompletionRequested",
      "type": "event"
    },
    {
      "anonymous": false,
      "inputs": [
        {
          "indexed": true,
          "internalType": "uint256",
          "name": "taskId",
          "type": "uint256"
        },
        {
          "indexed": true,
          "internalType": "address",
          "name": "donor",
          "type": "address"
        },
        {
          "indexed": false,
          "internalType": "uint256",
          "name": "amount",
          "type": "uint256"
        }
      ],
      "name": "DonationReceived",
      "type": "event"
    },
    {
      "anonymous": false,
      "inputs": [
        {
          "indexed": true,
          "internalType": "uint256",
          "name": "taskId",
          "type": "uint256"
        },
        {
          "indexed": true,
          "internalType": "address",
          "name": "donor",
          "type": "address"
        },
        {
          "indexed": false,
          "internalType": "uint256",
          "name": "amount",
          "type": "uint256"
        }
      ],
      "name": "FundsRefunded",
      "type": "event"
    },
    {
      "anonymous": false,
      "inputs": [
        {
          "indexed": true,
          "internalType": "uint256",
          "name": "taskId",
          "type": "uint256"
        },
        {
          "indexed": true,
          "internalType": "address",
          "name": "recipient",
          "type": "address"
        },
        {
          "indexed": false,
          "internalType": "uint256",
          "name": "amount",
          "type": "uint256"
        }
      ],
      "name": "FundsReleased",
      "type": "event"
    },
    {
      "anonymous": false,
      "inputs": [
        {
          "indexed": true,
          "internalType": "uint256",
          "name": "taskId",
          "type": "uint256"
        },
        {
          "indexed": true,
          "internalType": "address",
          "name": "multiSigWallet",
          "type": "address"
        }
      ],
      "name": "MultiSigCreated",
      "type": "event"
    },
    {
      "anonymous": false,
      "inputs": [
        {
          "indexed": true,
          "internalType": "address",
          "name": "recipient",
          "type": "address"
        },
        {
          "indexed": false,
          "internalType": "uint256",
          "name": "tokenId",
          "type": "uint256"
        },
        {
          "indexed": true,
          "internalType": "uint256",
          "name": "taskId",
          "type": "uint256"
        }
      ],
      "name": "NFTRewarded",
      "type": "event"
    },
    {
      "anonymous": false,
      "inputs": [
        {
          "indexed": true,
          "internalType": "address",
          "name": "previousOwner",
          "type": "address"
        },
        {
          "indexed": true,
          "internalType": "address",
          "name": "newOwner",
          "type": "address"
        }
      ],
      "name": "OwnershipTransferred",
      "type": "event"
    },
    {
      "anonymous": false,
      "inputs": [
        {
          "indexed": false,
          "internalType": "address",
          "name": "account",
          "type": "address"
        }
      ],
      "name": "Paused",
      "type": "event"
    },
    {
      "anonymous": false,
      "inputs": [
        {
          "indexed": true,
          "internalType": "uint256",
          "name": "taskId",
          "type": "uint256"
        },
        {
          "indexed": true,
          "internalType": "address",
          "name": "assignee",
          "type": "address"
        }
      ],
      "name": "TaskAssigned",
      "type": "event"
    },
    {
      "anonymous": false,
      "inputs": [
        {
          "indexed": true,
          "internalType": "uint256",
          "name": "taskId",
          "type": "uint256"
        }
      ],
      "name": "TaskCancelled",
      "type": "event"
    },
    {
      "anonymous": false,
      "inputs": [
        {
          "indexed": true,
          "internalType": "uint256",
          "name": "taskId",
          "type": "uint256"
        }
      ],
      "name": "TaskCompleted",
      "type": "event"
    },
    {
      "anonymous": false,
      "inputs": [
        {
          "indexed": true,
          "internalType": "uint256",
          "name": "taskId",
          "type": "uint256"
        },
        {
          "indexed": true,
          "internalType": "address",
          "name": "issuer",
          "type": "address"
        },
        {
          "indexed": false,
          "internalType": "string",
          "name": "description",
          "type": "string"
        },
        {
          "indexed": false,
          "internalType": "uint256",
          "name": "targetAmount",
          "type": "uint256"
        }
      ],
      "name": "TaskCreated",
      "type": "event"
    },
    {
      "anonymous": false,
      "inputs": [
        {
          "indexed": true,
          "internalType": "address",
          "name": "recipient",
          "type": "address"
        },
        {
          "indexed": false,
          "internalType": "uint256",
          "name": "amount",
          "type": "uint256"
        },
        {
          "indexed": false,
          "internalType": "string",
          "name": "reason",
          "type": "string"
        }
      ],
      "name": "TokensRewarded",
      "type": "event"
    },
    {
      "anonymous": false,
      "inputs": [
        {
          "indexed": false,
          "internalType": "address",
          "name": "account",
          "type": "address"
        }
      ],
      "name": "Unpaused",
      "type": "event"
    },
    {
      "inputs": [],
      "name": "assigneeRewardAmount",
      "outputs": [
        {
          "internalType": "uint256",
          "name": "",
          "type": "uint256"
        }
      ],
      "stateMutability": "view",
      "type": "function",
      "constant": true
    },
    {
      "inputs": [],
      "name": "donationRewardRate",
      "outputs": [
        {
          "internalType": "uint256",
          "name": "",
          "type": "uint256"
        }
      ],
      "stateMutability": "view",
      "type": "function",
      "constant": true
    },
    {
      "inputs": [],
      "name": "multiSigFactory",
      "outputs": [
        {
          "internalType": "address",
          "name": "",
          "type": "address"
        }
      ],
      "stateMutability": "view",
      "type": "function",
      "constant": true
    },
    {
      "inputs": [],
      "name": "nftToken",
      "outputs": [
        {
          "internalType": "address",
          "name": "",
          "type": "address"
        }
      ],
      "stateMutability": "view",
      "type": "function",
      "constant": true
    },
    {
      "inputs": [],
      "name": "owner",
      "outputs": [
        {
          "internalType": "address",
          "name": "",
          "type": "address"
        }
      ],
      "stateMutability": "view",
      "type": "function",
      "constant": true
    },
    {
      "inputs": [],
      "name": "paused",
      "outputs": [
        {
          "internalType": "bool",
          "name": "",
          "type": "bool"
        }
      ],
      "stateMutability": "view",
      "type": "function",
      "constant": true
    },
    {
      "inputs": [],
      "name": "renounceOwnership",
      "outputs": [],
      "stateMutability": "nonpayable",
      "type": "function"
    },
    {
      "inputs": [],
      "name": "rewardToken",
      "outputs": [
        {
          "internalType": "contract IERC20",
          "name": "",
          "type": "address"
        }
      ],
      "stateMutability": "view",
      "type": "function",
      "constant": true
    },
    {
      "inputs": [],
      "name": "timelock",
      "outputs": [
        {
          "internalType": "uint256",
          "name": "",
          "type": "uint256"
        }
      ],
      "stateMutability": "view",
      "type": "function",
      "constant": true
    },
    {
      "inputs": [
        {
          "internalType": "address",
          "name": "newOwner",
          "type": "address"
        }
      ],
      "name": "transferOwnership",
      "outputs": [],
      "stateMutability": "nonpayable",
      "type": "function"
    },
    {
      "stateMutability": "payable",
      "type": "receive",
      "payable": true
    },
    {
      "inputs": [],
      "name": "pause",
      "outputs": [],
      "stateMutability": "nonpayable",
      "type": "function"
    },
    {
      "inputs": [],
      "name": "unpause",
      "outputs": [],
      "stateMutability": "nonpayable",
      "type": "function"
    },
    {
      "inputs": [
        {
          "internalType": "uint256",
          "name": "_taskId",
          "type": "uint256"
        },
        {
          "internalType": "string",
          "name": "_description",
          "type": "string"
        },
        {
          "internalType": "uint256",
          "name": "_targetAmount",
          "type": "uint256"
        }
      ],
      "name": "createTask",
      "outputs": [
        {
          "internalType": "uint256",
          "name": "",
          "type": "uint256"
        }
      ],
      "stateMutability": "nonpayable",
      "type": "function"
    },
    {
      "inputs": [
        {
          "internalType": "uint256",
          "name": "_taskId",
          "type": "uint256"
        }
      ],
      "name": "assignTask",
      "outputs": [],
      "stateMutability": "nonpayable",
      "type": "function"
    },
    {
      "inputs": [
        {
          "internalType": "uint256",
          "name": "_taskId",
          "type": "uint256"
        }
      ],
      "name": "donate",
      "outputs": [],
      "stateMutability": "payable",
      "type": "function",
      "payable": true
    },
    {
      "inputs": [
        {
          "internalType": "uint256",
          "name": "_taskId",
          "type": "uint256"
        },
        {
          "internalType": "address",
          "name": "_multiSigWallet",
          "type": "address"
        }
      ],
      "name": "setMultiSigWallet",
      "outputs": [],
      "stateMutability": "nonpayable",
      "type": "function"
    },
    {
      "inputs": [
        {
          "internalType": "uint256",
          "name": "_taskId",
          "type": "uint256"
        }
      ],
      "name": "requestCompletion",
      "outputs": [],
      "stateMutability": "nonpayable",
      "type": "function"
    },
    {
      "inputs": [
        {
          "internalType": "uint256",
          "name": "_taskId",
          "type": "uint256"
        }
      ],
      "name": "approveCompletion",
      "outputs": [],
      "stateMutability": "nonpayable",
      "type": "function"
    },
    {
      "inputs": [
        {
          "internalType": "uint256",
          "name": "_taskId",
          "type": "uint256"
        }
      ],
      "name": "cancelTask",
      "outputs": [],
      "stateMutability": "nonpayable",
      "type": "function"
    },
    {
      "inputs": [
        {
          "internalType": "uint256",
          "name": "_rate",
          "type": "uint256"
        }
      ],
      "name": "setDonationRewardRate",
      "outputs": [],
      "stateMutability": "nonpayable",
      "type": "function"
    },
    {
      "inputs": [
        {
          "internalType": "uint256",
          "name": "_amount",
          "type": "uint256"
        }
      ],
      "name": "setAssigneeRewardAmount",
      "outputs": [],
      "stateMutability": "nonpayable",
      "type": "function"
    },
    {
      "inputs": [
        {
          "internalType": "uint256",
          "name": "_timelock",
          "type": "uint256"
        }
      ],
      "name": "setTimelock",
      "outputs": [],
      "stateMutability": "nonpayable",
      "type": "function"
    },
    {
      "inputs": [
        {
          "internalType": "address",
          "name": "_rewardToken",
          "type": "address"
        },
        {
          "internalType": "address",
          "name": "_nftToken",
          "type": "address"
        },
        {
          "internalType": "address",
          "name": "_multiSigFactory",
          "type": "address"
        }
      ],
      "name": "setContractAddresses",
      "outputs": [],
      "stateMutability": "nonpayable",
      "type": "function"
    },
    {
      "inputs": [
        {
          "internalType": "uint256",
          "name": "_taskId",
          "type": "uint256"
        }
      ],
      "name": "getTaskDetails",
      "outputs": [
        {
          "internalType": "uint256",
          "name": "id",
          "type": "uint256"
        },
        {
          "internalType": "address",
          "name": "issuer",
          "type": "address"
        },
        {
          "internalType": "string",
          "name": "description",
          "type": "string"
        },
        {
          "internalType": "uint256",
          "name": "targetAmount",
          "type": "uint256"
        },
        {
          "internalType": "uint256",
          "name": "currentAmount",
          "type": "uint256"
        },
        {
          "internalType": "address",
          "name": "assignee",
          "type": "address"
        },
        {
          "internalType": "enum TrailMaintenance.TaskStatus",
          "name": "status",
          "type": "uint8"
        },
        {
          "internalType": "address",
          "name": "multiSigWallet",
          "type": "address"
        },
        {
          "internalType": "uint256",
          "name": "createdAt",
          "type": "uint256"
        },
        {
          "internalType": "uint256",
          "name": "completionTime",
          "type": "uint256"
        }
      ],
      "stateMutability": "view",
      "type": "function",
      "constant": true
    },
    {
      "inputs": [
        {
          "internalType": "uint256",
          "name": "_taskId",
          "type": "uint256"
        }
      ],
      "name": "getDonations",
      "outputs": [
        {
          "internalType": "address[]",
          "name": "donors",
          "type": "address[]"
        },
        {
          "internalType": "uint256[]",
          "name": "amounts",
          "type": "uint256[]"
        },
        {
          "internalType": "uint256[]",
          "name": "timestamps",
          "type": "uint256[]"
        }
      ],
      "stateMutability": "view",
      "type": "function",
      "constant": true
    },
    {
      "inputs": [
        {
          "internalType": "uint256",
          "name": "_taskId",
          "type": "uint256"
        }
      ],
      "name": "getDonors",
      "outputs": [
        {
          "internalType": "address[]",
          "name": "",
          "type": "address[]"
        }
      ],
      "stateMutability": "view",
      "type": "function",
      "constant": true
    },
    {
      "inputs": [
        {
          "internalType": "address",
          "name": "_user",
          "type": "address"
        }
      ],
      "name": "getUserTasks",
      "outputs": [
        {
          "internalType": "uint256[]",
          "name": "",
          "type": "uint256[]"
        }
      ],
      "stateMutability": "view",
      "type": "function",
      "constant": true
    },
    {
      "inputs": [],
      "name": "getTaskCount",
      "outputs": [
        {
          "internalType": "uint256",
          "name": "",
          "type": "uint256"
        }
      ],
      "stateMutability": "view",
      "type": "function",
      "constant": true
    },
    {
      "inputs": [
        {
          "internalType": "uint256",
          "name": "_taskId",
          "type": "uint256"
        }
      ],
      "name": "taskExists",
      "outputs": [
        {
          "internalType": "bool",
          "name": "",
          "type": "bool"
        }
      ],
      "stateMutability": "view",
      "type": "function",
      "constant": true
    },
    {
      "inputs": [
        {
          "internalType": "uint256",
          "name": "_taskId",
          "type": "uint256"
        },
        {
          "internalType": "address",
          "name": "_user",
          "type": "address"
        }
      ],
      "name": "hasApproved",
      "outputs": [
        {
          "internalType": "bool",
          "name": "",
          "type": "bool"
        }
      ],
      "stateMutability": "view",
      "type": "function",
      "constant": true
    },
    {
      "inputs": [
        {
          "internalType": "uint256",
          "name": "_taskId",
          "type": "uint256"
        }
      ],
      "name": "getApprovalCount",
      "outputs": [
        {
          "internalType": "uint256",
          "name": "",
          "type": "uint256"
        }
      ],
      "stateMutability": "view",
      "type": "function",
      "constant": true
    }
  ],
  "bytecode": "0x6080604052600160085568056bc75e2d631000006009556202a300600a553480156200002a57600080fd5b506040516200284e3803806200284e8339810160408190526200004d916200013e565b33806200007457604051631e4fbdf760e01b81526000600482015260240160405180910390fd5b6200007f81620000d1565b50600180556002805460ff19169055600580546001600160a01b039485166001600160a01b03199182161790915560068054938516938216939093179092556007805491909316911617905562000188565b600080546001600160a01b038381166001600160a01b0319831681178455604051919092169283917f8be0079c531659141344cd1fd0a4f28419497f9722a3daafe3b4186f6b6457e09190a35050565b80516001600160a01b03811681146200013957600080fd5b919050565b6000806000606084860312156200015457600080fd5b6200015f8462000121565b92506200016f6020850162000121565b91506200017f6040850162000121565b90509250925092565b6126b680620001986000396000f3fe6080604052600436106101dc5760003560e01c80638ab6338011610102578063c9cb649f11610095578063d90583df11610064578063d90583df14610570578063f14faf6f146105a0578063f2fde38b146105b3578063f7c618c1146105d357600080fd5b8063c9cb649f146104fa578063d06fcba81461051a578063d1f54ac81461053a578063d33219b41461055a57600080fd5b8063a591a0f4116100d1578063a591a0f414610485578063b8573185146104a5578063ba7e7cab146104c5578063c17a340e146104e557600080fd5b80638ab63380146103fa5780638da5cb5b1461041a57806393a5bc411461043857806395d576601461045857600080fd5b80634d2f0c231161017a578063678f935011610149578063678f93501461039a578063715018a6146103b05780637eec20a8146103c55780638456cb59146103e557600080fd5b80634d2f0c2314610305578063596d9ce21461031b5780635c975abb1461034a5780636661e85e1461036257600080fd5b806329516511116101b6578063295165111461026d5780633888b9d51461029a5780633f4ba83a146102d05780634a877ec3146102e557600080fd5b80631e891c0a146101e8578063202e078b1461020a5780632358d5a81461023d57600080fd5b366101e357005b600080fd5b3480156101f457600080fd5b506102086102033660046120dc565b6105f3565b005b34801561021657600080fd5b5061022a6102253660046120f5565b61064d565b6040519081526020015b60405180910390f35b34801561024957600080fd5b5061025d610258366004612193565b610914565b6040519015158152602001610234565b34801561027957600080fd5b5061028d6102883660046120dc565b610970565b6040516102349190612203565b3480156102a657600080fd5b506102ba6102b53660046120dc565b610a0b565b6040516102349a99989796959493929190612255565b3480156102dc57600080fd5b50610208610b56565b3480156102f157600080fd5b506102086103003660046120dc565b610b68565b34801561031157600080fd5b5061022a60095481565b34801561032757600080fd5b5061033b6103363660046120dc565b610b75565b60405161023493929190612342565b34801561035657600080fd5b5060025460ff1661025d565b34801561036e57600080fd5b50600754610382906001600160a01b031681565b6040516001600160a01b039091168152602001610234565b3480156103a657600080fd5b5061022a60085481565b3480156103bc57600080fd5b50610208610d96565b3480156103d157600080fd5b506102086103e03660046120dc565b610da8565b3480156103f157600080fd5b50610208610f59565b34801561040657600080fd5b50610208610415366004612385565b610f69565b34801561042657600080fd5b506000546001600160a01b0316610382565b34801561044457600080fd5b506102086104533660046120dc565b610ff7565b34801561046457600080fd5b506104786104733660046123c8565b6110d9565b60405161023491906123e3565b34801561049157600080fd5b506102086104a03660046120dc565b611144565b3480156104b157600080fd5b506102086104c03660046120dc565b61119b565b3480156104d157600080fd5b5061022a6104e03660046120dc565b611226565b3480156104f157600080fd5b5060035461022a565b34801561050657600080fd5b506102086105153660046120dc565b611267565b34801561052657600080fd5b50600654610382906001600160a01b031681565b34801561054657600080fd5b50610208610555366004612193565b6112ca565b34801561056657600080fd5b5061022a600a5481565b34801561057c57600080fd5b5061025d61058b3660046120dc565b60009081526004602052604090205460ff1690565b6102086105ae3660046120dc565b611523565b3480156105bf57600080fd5b506102086105ce3660046123c8565b611a30565b3480156105df57600080fd5b50600554610382906001600160a01b031681565b6105fb611a6b565b620151808110156106485760405162461bcd60e51b8152602060048201526012602482015271151a5b595b1bd8dac81d1bdbc81cda1bdc9d60721b60448201526064015b60405180910390fd5b600a55565b6000610657611a98565b600085116106a75760405162461bcd60e51b815260206004820152601e60248201527f5461736b204944206d7573742062652067726561746572207468616e20300000604482015260640161063f565b60008581526004602052604090205460ff16156106ff5760405162461bcd60e51b81526020600482015260166024820152755461736b20494420616c72656164792065786973747360501b604482015260640161063f565b6000858152600460205260408120805460ff1916600117905560038054916107268361240c565b9190505550604051806101400160405280868152602001336001600160a01b0316815260200185858080601f016020809104026020016040519081016040528093929190818152602001838380828437600092018290525093855250505060208083018690526040808401839052606084018390526080840183905260a084018390524260c085015260e0909301829052888252600b81529082902083518155908301516001820180546001600160a01b0319166001600160a01b039092169190911790559082015160028201906107fe90826124c3565b5060608201516003808301919091556080830151600483015560a08301516005830180546001600160a01b039092166001600160a01b031983168117825560c08601519391926001600160a81b0319161790600160a01b9084908111156108675761086761221d565b021790555060e08201516006820180546001600160a01b0319166001600160a01b03909216919091179055610100820151600782015561012090910151600890910155336000818152601160209081526040808320805460018101825590845291909220018790555186907f9e3c9757475c00b86393e183b68033bb76e48fa164849c7428ad17f62e1954a79061090390889088908890612583565b60405180910390a350929392505050565b60008281526004602052604081205460ff166109425760405162461bcd60e51b815260040161063f906125bc565b506000828152600f602090815260408083206001600160a01b038516845290915290205460ff165b92915050565b60008181526004602052604090205460609060ff166109a15760405162461bcd60e51b815260040161063f906125bc565b6000828152600d6020908152604091829020805483518184028101840190945280845290918301828280156109ff57602002820191906000526020600020905b81546001600160a01b031681526001909101906020018083116109e1575b50505050509050919050565b6000818152600460205260408120548190606090829081908190819081908190819060ff16610a4c5760405162461bcd60e51b815260040161063f906125bc565b60008b8152600b60205260409020805460018201546003830154600484015460058501546006860154600787015460088801546002890180546001600160a01b03988916989197969582811695600160a01b90910460ff1694921692908890610ab49061243b565b80601f0160208091040260200160405190810160405280929190818152602001828054610ae09061243b565b8015610b2d5780601f10610b0257610100808354040283529160200191610b2d565b820191906000526020600020905b815481529060010190602001808311610b1057829003601f168201915b505050505097509a509a509a509a509a509a509a509a509a509a50509193959799509193959799565b610b5e611a6b565b610b66611abc565b565b610b70611a6b565b600955565b6000818152600460205260409020546060908190819060ff16610baa5760405162461bcd60e51b815260040161063f906125bc565b6000848152600c6020526040902080548067ffffffffffffffff811115610bd357610bd3612425565b604051908082528060200260200182016040528015610bfc578160200160208202803683370190505b5094508067ffffffffffffffff811115610c1857610c18612425565b604051908082528060200260200182016040528015610c41578160200160208202803683370190505b5093508067ffffffffffffffff811115610c5d57610c5d612425565b604051908082528060200260200182016040528015610c86578160200160208202803683370190505b50925060005b81811015610d8c57828181548110610ca657610ca66125e9565b600091825260209091206003909102015486516001600160a01b0390911690879083908110610cd757610cd76125e9565b60200260200101906001600160a01b031690816001600160a01b031681525050828181548110610d0957610d096125e9565b906000526020600020906003020160010154858281518110610d2d57610d2d6125e9565b602002602001018181525050828181548110610d4b57610d4b6125e9565b906000526020600020906003020160020154848281518110610d6f57610d6f6125e9565b602090810291909101015280610d848161240c565b915050610c8c565b5050509193909250565b610d9e611a6b565b610b666000611b0e565b610db0611b5e565b610db8611a98565b6000818152600b6020908152604080832060049092529091205460ff16610df15760405162461bcd60e51b815260040161063f906125bc565b60018101546001600160a01b03163314610e465760405162461bcd60e51b815260206004820152601660248201527513db9b1e481a5cdcdd595c8818d85b8818d85b98d95b60521b604482015260640161063f565b60006005820154600160a01b900460ff166003811115610e6857610e6861221d565b1480610e93575060016005820154600160a01b900460ff166003811115610e9157610e9161221d565b145b610edf5760405162461bcd60e51b815260206004820152601860248201527f5461736b2063616e6e6f742062652063616e63656c6c65640000000000000000604482015260640161063f565b60058101805460ff60a01b1916600360a01b17905560068101546001600160a01b0316158015610f13575060008160040154115b15610f2157610f2182611b88565b60405182907fc6eacc3aa5b2aa77b5a826b832a804ca0b71830ec74f9aa57a15edd978c31ed690600090a250610f5660018055565b50565b610f61611a6b565b610b66611c99565b610f71611a6b565b6001600160a01b03831615610f9c57600580546001600160a01b0319166001600160a01b0385161790555b6001600160a01b03821615610fc757600680546001600160a01b0319166001600160a01b0384161790555b6001600160a01b03811615610ff257600780546001600160a01b0319166001600160a01b0383161790555b505050565b610fff611a98565b6000818152600b60209081526040808320600f83528184203385528352818420805460ff1916600117905584845260109092528220805491926110418361240c565b90915550506000828152600d6020526040812054611061906002906125ff565b61106c906001612621565b6000848152600f6020908152604080832060018701546001600160a01b0316845290915290205490915060ff16156110bb57600181116110ad5760016110b8565b6110b8600182612634565b90505b6000838152601060205260409020548111610ff257610ff283611cd6565b6001600160a01b0381166000908152601160209081526040918290208054835181840281018401909452808452606093928301828280156109ff57602002820191906000526020600020905b8154815260200190600101908083116111255750505050509050919050565b61114c611a6b565b600a8111156111965760405162461bcd60e51b81526020600482015260166024820152750a4c2e8ca40c6c2dcdcdee840caf0c6cacac840dac2f60531b604482015260640161063f565b600855565b6111a3611a98565b6000818152600b602090815260408083206005810180546001600160a81b0319163360ff60a01b19811691909117600160a01b179091558085526011845282852080546001810182559086529385209093018590559051909284917f52476d55ecef5cf13caa64038f297fe6bbf865d9584a98b8722a15a6d5db128f9190a35050565b60008181526004602052604081205460ff166112545760405162461bcd60e51b815260040161063f906125bc565b5060009081526010602052604090205490565b61126f611a98565b6000818152600b60205260409020600a5461128a9042612621565b6008820181905560405190815282907f9331392caf7acaf50b907ab07c10c959137e62d9e84480648e369910ca0705979060200160405180910390a25050565b6112d2611a98565b6000828152600b6020908152604080832060049092529091205460ff1661130b5760405162461bcd60e51b815260040161063f906125bc565b60018101546001600160a01b031633146113675760405162461bcd60e51b815260206004820152601c60248201527f4f6e6c79206973737565722063616e20736574206d756c746973696700000000604482015260640161063f565b60068101546001600160a01b0316156113b95760405162461bcd60e51b8152602060048201526014602482015273135d5b1d1a5cda59c8185b1c9958591e481cd95d60621b604482015260640161063f565b6001600160a01b03821661140f5760405162461bcd60e51b815260206004820152601860248201527f496e76616c6964206d756c746973696720616464726573730000000000000000604482015260640161063f565b6006810180546001600160a01b0319166001600160a01b0384161790556004810154156114e85760048101546040516000916001600160a01b038516918381818185875af1925050503d8060008114611484576040519150601f19603f3d011682016040523d82523d6000602084013e611489565b606091505b50509050806114e65760405162461bcd60e51b8152602060048201526024808201527f4661696c656420746f207472616e736665722066756e647320746f206d756c746044820152636973696760e01b606482015260840161063f565b505b6040516001600160a01b0383169084907f0e8711f03efc1ec0378d408dfd0dc5272ed30963acf3e815f88887c97e546d8490600090a3505050565b61152b611b5e565b611533611a98565b6000818152600b6020908152604080832060049092529091205460ff1661156c5760405162461bcd60e51b815260040161063f906125bc565b60006005820154600160a01b900460ff16600381111561158e5761158e61221d565b14806115b9575060016005820154600160a01b900460ff1660038111156115b7576115b761221d565b145b6116055760405162461bcd60e51b815260206004820152601d60248201527f5461736b2063616e6e6f74207265636569766520646f6e6174696f6e73000000604482015260640161063f565b600034116116645760405162461bcd60e51b815260206004820152602660248201527f446f6e6174696f6e20616d6f756e74206d75737420626520677265617465722060448201526507468616e20360d41b606482015260840161063f565b6003810154156116c95780600301543482600401546116839190612621565b11156116c95760405162461bcd60e51b8152602060048201526015602482015274115e18d959591cc81d185c99d95d08185b5bdd5b9d605a1b604482015260640161063f565b6000828152600c6020908152604080832081516060810183523380825234828601908152428386019081528454600180820187559589528789209451600390910290940180546001600160a01b0319166001600160a01b039095169490941784559051938301939093559151600290910155858452600e835281842090845290915290205460ff166117a8576000828152600d602090815260408083208054600181810183559185528385200180546001600160a01b03191633908117909155868552600e8452828520908552909252909120805460ff191690911790555b348160040160008282546117bc9190612621565b909155505060068101546001600160a01b0316156118875760068101546040516000916001600160a01b03169034908381818185875af1925050503d8060008114611823576040519150601f19603f3d011682016040523d82523d6000602084013e611828565b606091505b50509050806118855760405162461bcd60e51b815260206004820152602360248201527f4661696c656420746f20666f72776172642066756e647320746f206d756c746960448201526273696760e81b606482015260840161063f565b505b60006064600854346118999190612647565b6118a391906125ff565b90506000811180156118bf57506005546001600160a01b031615155b156119ee5760055460405163a9059cbb60e01b8152336004820152602481018390526000916001600160a01b03169063a9059cbb906044016020604051808303816000875af1158015611916573d6000803e3d6000fd5b505050506040513d601f19601f8201168201806040525081019061193a919061265e565b9050806119895760405162461bcd60e51b815260206004820152601c60248201527f52657761726420746f6b656e207472616e73666572206661696c656400000000604482015260640161063f565b336001600160a01b03167fb969d134776a7f04430dbbcac4e68734b1c6c5adcecbf68c3cbe6a9a4f2c8a1d836040516119e4918152604060208201819052600890820152673237b730ba34b7b760c11b606082015260800190565b60405180910390a2505b604051348152339084907f0b5b4c52969ff7329ecf7ee536409fda87812b15a8622bc6e8cdeab3aee14a269060200160405180910390a35050610f5660018055565b611a38611a6b565b6001600160a01b038116611a6257604051631e4fbdf760e01b81526000600482015260240161063f565b610f5681611b0e565b6000546001600160a01b03163314610b665760405163118cdaa760e01b815233600482015260240161063f565b60025460ff1615610b665760405163d93c066560e01b815260040160405180910390fd5b611ac46120b9565b6002805460ff191690557f5db9ee0a495bf2e6ff9c91a7834c1ba4fdd244a5e8aa4e537bd38aeae4b073aa335b6040516001600160a01b03909116815260200160405180910390a1565b600080546001600160a01b038381166001600160a01b0319831681178455604051919092169283917f8be0079c531659141344cd1fd0a4f28419497f9722a3daafe3b4186f6b6457e09190a35050565b600260015403611b8157604051633ee5aeb560e01b815260040160405180910390fd5b6002600155565b6000818152600c60205260408120905b8154811015610ff2576000828281548110611bb557611bb56125e9565b90600052602060002090600302019050600081600101541115611c865780546001820180546000918290556040516001600160a01b0390931692909190839083908381818185875af1925050503d8060008114611c2e576040519150601f19603f3d011682016040523d82523d6000602084013e611c33565b606091505b505090508015611c8257826001600160a01b0316877f80b577b4fc190ab86d963549e29f496afd079c5d81a2480d61217d4b5060a28c84604051611c7991815260200190565b60405180910390a35b5050505b5080611c918161240c565b915050611b98565b611ca1611a98565b6002805460ff191660011790557f62e78cea01bee320cd4e420270b5ea74000d11b0c9f74754ebdbfc544b05a258611af13390565b6000818152600b6020526040902060016005820154600160a01b900460ff166003811115611d0657611d0661221d565b14611d535760405162461bcd60e51b815260206004820152601a60248201527f5461736b206e6f7420696e2061737369676e6564207374617465000000000000604482015260640161063f565b60058101805460ff60a01b1916600160a11b17905560068101546001600160a01b0316158015611d87575060008160040154115b15611e8257600581015460048201546040516000926001600160a01b031691908381818185875af1925050503d8060008114611ddf576040519150601f19603f3d011682016040523d82523d6000602084013e611de4565b606091505b5050905080611e355760405162461bcd60e51b815260206004820181905260248201527f4661696c656420746f2073656e642066756e647320746f2061737369676e6565604482015260640161063f565b600582015460048301546040519081526001600160a01b039091169084907f6e3c6096795c8298a218b2cfb8bde42726ff7c9a3d27b4d3ba41ab7f74feb5fb9060200160405180910390a3505b6005546001600160a01b031615611fdc57600580549082015460095460405163a9059cbb60e01b81526001600160a01b0392831660048201526024810191909152600092919091169063a9059cbb906044016020604051808303816000875af1158015611ef3573d6000803e3d6000fd5b505050506040513d601f19601f82011682018060405250810190611f17919061265e565b905080611f745760405162461bcd60e51b815260206004820152602560248201527f41737369676e65652072657761726420746f6b656e207472616e736665722066604482015264185a5b195960da1b606482015260840161063f565b60058201546009546040805191825260208201819052600a828201526931b7b6b83632ba34b7b760b11b6060830152516001600160a01b03909216917fb969d134776a7f04430dbbcac4e68734b1c6c5adcecbf68c3cbe6a9a4f2c8a1d9181900360800190a2505b6006546001600160a01b03161561208a5760005b6000838152600d6020526040902054811015612088576000838152600d60205260408120805483908110612026576120266125e9565b600091825260209182902001546040518481526001600160a01b039091169250859183917f8e161a3174142f22dd7607c4a48f5199274e54b3838a9ff3a27528a2f1a60c1b910160405180910390a350806120808161240c565b915050611ff0565b505b60405182907fc1fa7142cfb933d0855114a3bffde296944c30b727f297c14d0db4d553d3a5c790600090a25050565b60025460ff16610b6657604051638dfc202b60e01b815260040160405180910390fd5b6000602082840312156120ee57600080fd5b5035919050565b6000806000806060858703121561210b57600080fd5b84359350602085013567ffffffffffffffff8082111561212a57600080fd5b818701915087601f83011261213e57600080fd5b81358181111561214d57600080fd5b88602082850101111561215f57600080fd5b95986020929092019750949560400135945092505050565b80356001600160a01b038116811461218e57600080fd5b919050565b600080604083850312156121a657600080fd5b823591506121b660208401612177565b90509250929050565b600081518084526020808501945080840160005b838110156121f85781516001600160a01b0316875295820195908201906001016121d3565b509495945050505050565b60208152600061221660208301846121bf565b9392505050565b634e487b7160e01b600052602160045260246000fd5b6004811061225157634e487b7160e01b600052602160045260246000fd5b9052565b60006101408c8352602060018060a01b038d16818501528160408501528b518083860152600092505b8083101561229d578c830182015185840161016001529181019161227e565b6101609250600083828701015282601f19601f83011686010193505050508860608301528760808301526122dc60a08301886001600160a01b03169052565b6122e960c0830187612233565b6001600160a01b03851660e0830152610100820193909352610120015298975050505050505050565b600081518084526020808501945080840160005b838110156121f857815187529582019590820190600101612326565b60608152600061235560608301866121bf565b82810360208401526123678186612312565b9050828103604084015261237b8185612312565b9695505050505050565b60008060006060848603121561239a57600080fd5b6123a384612177565b92506123b160208501612177565b91506123bf60408501612177565b90509250925092565b6000602082840312156123da57600080fd5b61221682612177565b6020815260006122166020830184612312565b634e487b7160e01b600052601160045260246000fd5b60006001820161241e5761241e6123f6565b5060010190565b634e487b7160e01b600052604160045260246000fd5b600181811c9082168061244f57607f821691505b60208210810361246f57634e487b7160e01b600052602260045260246000fd5b50919050565b601f821115610ff257600081815260208120601f850160051c8101602086101561249c5750805b601f850160051c820191505b818110156124bb578281556001016124a8565b505050505050565b815167ffffffffffffffff8111156124dd576124dd612425565b6124f1816124eb845461243b565b84612475565b602080601f831160018114612526576000841561250e5750858301515b600019600386901b1c1916600185901b1785556124bb565b600085815260208120601f198616915b8281101561255557888601518255948401946001909101908401612536565b50858210156125735787850151600019600388901b60f8161c191681555b5050505050600190811b01905550565b604081528260408201528284606083013760006060848301015260006060601f19601f8601168301019050826020830152949350505050565b60208082526013908201527215185cdac8191bd95cc81b9bdd08195e1a5cdd606a1b604082015260600190565b634e487b7160e01b600052603260045260246000fd5b60008261261c57634e487b7160e01b600052601260045260246000fd5b500490565b8082018082111561096a5761096a6123f6565b8181038181111561096a5761096a6123f6565b808202811582820484141761096a5761096a6123f6565b60006020828403121561267057600080fd5b8151801515811461221657600080fdfea26469706673582212207ead24c3fdfb3939412b87ea74dbbaf5dfa67caff6fd516b9aa0bb502c14783764736f6c63430008140033",
  "immutableReferences": {},
  "source": "// SPDX-License-Identifier: MIT\npragma solidity ^0.8.20;\n\nimport \"@openzeppelin/contracts/access/Ownable.sol\";\nimport \"@openzeppelin/contracts/token/ERC20/IERC20.sol\";\nimport \"@openzeppelin/contracts/token/ERC721/IERC721.sol\";\nimport \"@openzeppelin/contracts/utils/ReentrancyGuard.sol\";\nimport \"@openzeppelin/contracts/utils/Pausable.sol\";\n\n/**\n * @title TrailMaintenance\n * @dev \n */\ncontract TrailMaintenance is Ownable, ReentrancyGuard, Pausable {\n    \n    // \n    uint256 private constant MAX_REWARD_RATE = 10; // 10%\n    uint256 private constant MIN_TIMELOCK = 1 days; // 1\n    \n    // \n    enum TaskStatus { Created, Assigned, Completed, Cancelled }\n    \n    // \n    struct Task {\n        uint256 id;\n        address issuer;\n        string description;\n        uint256 targetAmount;\n        uint256 currentAmount;\n        address assignee;\n        TaskStatus status;\n        address multiSigWallet;\n        uint256 createdAt;\n        uint256 completionTime; // \n    }\n    \n    // \n    struct Donation {\n        address donor;\n        uint256 amount;\n        uint256 timestamp;\n    }\n    \n    // \n    uint256 private _taskCount; // ID\n    mapping(uint256 => bool) private _taskExists; // ID\n    IERC20 public rewardToken;\n    address public nftToken;\n    address public multiSigFactory;\n    uint256 public donationRewardRate = 1; // 1% \n    uint256 public assigneeRewardAmount = 100 * 10**18; // 100 tokens\n    uint256 public timelock = 2 days; // 2\n    \n    // \n    mapping(uint256 => Task) private _tasks;\n    mapping(uint256 => Donation[]) private _donations;\n    mapping(uint256 => address[]) private _donorsList;\n    mapping(uint256 => mapping(address => bool)) private _hasDonated;\n    mapping(uint256 => mapping(address => bool)) private _approvals;\n    mapping(uint256 => uint256) private _approvalCounts;\n    mapping(address => uint256[]) private _userTasks; // \n    \n    // \n    event TaskCreated(uint256 indexed taskId, address indexed issuer, string description, uint256 targetAmount);\n    event TaskAssigned(uint256 indexed taskId, address indexed assignee);\n    event DonationReceived(uint256 indexed taskId, address indexed donor, uint256 amount);\n    event TokensRewarded(address indexed recipient, uint256 amount, string reason);\n    event NFTRewarded(address indexed recipient, uint256 tokenId, uint256 indexed taskId);\n    event TaskCompleted(uint256 indexed taskId);\n    event TaskCancelled(uint256 indexed taskId);\n    event FundsReleased(uint256 indexed taskId, address indexed recipient, uint256 amount);\n    event FundsRefunded(uint256 indexed taskId, address indexed donor, uint256 amount);\n    event MultiSigCreated(uint256 indexed taskId, address indexed multiSigWallet);\n    event CompletionRequested(uint256 indexed taskId, uint256 unlockTime);\n    \n    /**\n     * @dev \n     * @param _rewardToken \n     * @param _nftToken NFT\n     * @param _multiSigFactory \n     */\n    constructor(\n        address _rewardToken,\n        address _nftToken,\n        address _multiSigFactory\n    ) Ownable(msg.sender) {\n        rewardToken = IERC20(_rewardToken);\n        nftToken = _nftToken;\n        multiSigFactory = _multiSigFactory;\n    }\n    \n    /**\n     * @dev \n     */\n    function pause() external onlyOwner {\n        _pause();\n    }\n    \n    /**\n     * @dev \n     */\n    function unpause() external onlyOwner {\n        _unpause();\n    }\n    \n    /**\n     * @dev \n     * @param _taskId ID\n     * @param _description \n     * @param _targetAmount  (0)\n     * @return ID\n     */\n    function createTask(uint256 _taskId, string calldata _description, uint256 _targetAmount) external whenNotPaused returns (uint256) {\n        require(_taskId > 0, \"Task ID must be greater than 0\");\n        require(!_taskExists[_taskId], \"Task ID already exists\");\n        \n        _taskExists[_taskId] = true;\n        _taskCount++;\n        \n        _tasks[_taskId] = Task({\n            id: _taskId,\n            issuer: msg.sender,\n            description: _description,\n            targetAmount: _targetAmount,\n            currentAmount: 0,\n            assignee: address(0),\n            status: TaskStatus.Created,\n            multiSigWallet: address(0),\n            createdAt: block.timestamp,\n            completionTime: 0\n        });\n        \n        // ID\n        _userTasks[msg.sender].push(_taskId);\n        \n        emit TaskCreated(_taskId, msg.sender, _description, _targetAmount);\n        \n        return _taskId;\n    }\n    \n    /**\n     * @dev \n     * @param _taskId ID\n     */\n    function assignTask(uint256 _taskId) external whenNotPaused {\n        Task storage task = _tasks[_taskId];\n        \n        // require(_taskExists[_taskId], \"Task does not exist\");\n        // require(task.status == TaskStatus.Created, \"Task cannot be assigned\");\n        // require(task.assignee == address(0), \"Task already assigned\");\n        // require(msg.sender != task.issuer, \"Issuer cannot be assignee\");\n        \n        task.assignee = msg.sender;\n        task.status = TaskStatus.Assigned;\n        \n        // ID\n        _userTasks[msg.sender].push(_taskId);\n        \n        emit TaskAssigned(_taskId, msg.sender);\n    }\n    \n    /**\n     * @dev \n     * @param _taskId ID\n     */\n    function donate(uint256 _taskId) external payable nonReentrant whenNotPaused {\n        Task storage task = _tasks[_taskId];\n        \n        require(_taskExists[_taskId], \"Task does not exist\");\n        require(task.status == TaskStatus.Created || task.status == TaskStatus.Assigned, \"Task cannot receive donations\");\n        require(msg.value > 0, \"Donation amount must be greater than 0\");\n        \n        // \n        if (task.targetAmount > 0) {\n            require(task.currentAmount + msg.value <= task.targetAmount, \"Exceeds target amount\");\n        }\n        \n        // \n        _donations[_taskId].push(Donation({\n            donor: msg.sender,\n            amount: msg.value,\n            timestamp: block.timestamp\n        }));\n        \n        // \n        if (!_hasDonated[_taskId][msg.sender]) {\n            _donorsList[_taskId].push(msg.sender);\n            _hasDonated[_taskId][msg.sender] = true;\n        }\n        \n        // \n        task.currentAmount += msg.value;\n        \n        // \n        if (task.multiSigWallet != address(0)) {\n            (bool success, ) = task.multiSigWallet.call{value: msg.value}(\"\");\n            require(success, \"Failed to forward funds to multisig\");\n        }\n        \n        // \n        uint256 rewardAmount = (msg.value * donationRewardRate) / 100;\n        if (rewardAmount > 0 && address(rewardToken) != address(0)) {\n            bool success = rewardToken.transfer(msg.sender, rewardAmount);\n            require(success, \"Reward token transfer failed\");\n            emit TokensRewarded(msg.sender, rewardAmount, \"donation\");\n        }\n        \n        emit DonationReceived(_taskId, msg.sender, msg.value);\n    }\n    \n    /**\n     * @dev \n     * @param _taskId ID\n     * @param _multiSigWallet \n     */\n    function setMultiSigWallet(uint256 _taskId, address _multiSigWallet) external whenNotPaused {\n        Task storage task = _tasks[_taskId];\n        \n        require(_taskExists[_taskId], \"Task does not exist\");\n        require(msg.sender == task.issuer, \"Only issuer can set multisig\");\n        require(task.multiSigWallet == address(0), \"Multisig already set\");\n        require(_multiSigWallet != address(0), \"Invalid multisig address\");\n        \n        task.multiSigWallet = _multiSigWallet;\n        \n        // \n        if (task.currentAmount > 0) {\n            (bool success, ) = _multiSigWallet.call{value: task.currentAmount}(\"\");\n            require(success, \"Failed to transfer funds to multisig\");\n        }\n        \n        emit MultiSigCreated(_taskId, _multiSigWallet);\n    }\n    \n    /**\n     * @dev \n     * @param _taskId ID\n     */\n    function requestCompletion(uint256 _taskId) external whenNotPaused {\n        Task storage task = _tasks[_taskId];\n        \n        // require(_taskExists[_taskId], \"Task does not exist\");\n        // require(task.status == TaskStatus.Assigned, \"Task not in assigned state\");\n        // require(msg.sender == task.assignee, \"Only assignee can request completion\");\n        // require(task.completionTime == 0, \"Completion already requested\");\n        \n        // +\n        task.completionTime = block.timestamp + timelock;\n        \n        emit CompletionRequested(_taskId, task.completionTime);\n    }\n    \n    /**\n     * @dev \n     * @param _taskId ID\n     */\n    function approveCompletion(uint256 _taskId) external whenNotPaused {\n        Task storage task = _tasks[_taskId];\n        \n        // require(_taskExists[_taskId], \"Task does not exist\");\n        // require(task.status == TaskStatus.Assigned, \"Task not in assigned state\");\n        // require(task.completionTime > 0 && block.timestamp >= task.completionTime, \"Time lock not expired\");\n        // require(msg.sender == task.issuer || _hasDonated[_taskId][msg.sender], \"Not authorized to approve\");\n        // require(!_approvals[_taskId][msg.sender], \"Already approved\");\n        \n        _approvals[_taskId][msg.sender] = true;\n        _approvalCounts[_taskId]++;\n        \n        // \n        uint256 requiredApprovals = (_donorsList[_taskId].length / 2) + 1;\n        \n        // -1\n        if (_approvals[_taskId][task.issuer]) {\n            requiredApprovals = requiredApprovals > 1 ? requiredApprovals - 1 : 1;\n        }\n        \n        if (_approvalCounts[_taskId] >= requiredApprovals) {\n            _completeTask(_taskId);\n        }\n    }\n    \n    /**\n     * @dev  ()\n     * @param _taskId ID\n     */\n    function _completeTask(uint256 _taskId) internal {\n        Task storage task = _tasks[_taskId];\n        \n        require(task.status == TaskStatus.Assigned, \"Task not in assigned state\");\n        \n        task.status = TaskStatus.Completed;\n        \n        // \n        if (task.multiSigWallet == address(0) && task.currentAmount > 0) {\n            (bool success, ) = task.assignee.call{value: task.currentAmount}(\"\");\n            require(success, \"Failed to send funds to assignee\");\n            emit FundsReleased(_taskId, task.assignee, task.currentAmount);\n        }\n        \n        // \n        if (address(rewardToken) != address(0)) {\n            bool success = rewardToken.transfer(task.assignee, assigneeRewardAmount);\n            require(success, \"Assignee reward token transfer failed\");\n            emit TokensRewarded(task.assignee, assigneeRewardAmount, \"completion\");\n        }\n        \n        // NFT (NFT)\n        if (nftToken != address(0)) {\n            // NFTNFT\n            // NFT\n            for (uint256 i = 0; i < _donorsList[_taskId].length; i++) {\n                address donor = _donorsList[_taskId][i];\n                // NFT\n                emit NFTRewarded(donor, i, _taskId);\n            }\n        }\n        \n        emit TaskCompleted(_taskId);\n    }\n    \n    /**\n     * @dev \n     * @param _taskId ID\n     */\n    function cancelTask(uint256 _taskId) external nonReentrant whenNotPaused {\n        Task storage task = _tasks[_taskId];\n        \n        require(_taskExists[_taskId], \"Task does not exist\");\n        require(msg.sender == task.issuer, \"Only issuer can cancel\");\n        require(task.status == TaskStatus.Created || task.status == TaskStatus.Assigned, \"Task cannot be cancelled\");\n        \n        task.status = TaskStatus.Cancelled;\n        \n        // \n        if (task.multiSigWallet == address(0) && task.currentAmount > 0) {\n            _refundDonations(_taskId);\n        }\n        \n        emit TaskCancelled(_taskId);\n    }\n    \n    /**\n     * @dev  ()\n     * @param _taskId ID\n     */\n    function _refundDonations(uint256 _taskId) internal {\n        Donation[] storage taskDonations = _donations[_taskId];\n        \n        for (uint256 i = 0; i < taskDonations.length; i++) {\n            Donation storage donation = taskDonations[i];\n            \n            if (donation.amount > 0) {\n                address donor = donation.donor;\n                uint256 amount = donation.amount;\n                \n                // 0\n                donation.amount = 0;\n                \n                (bool success, ) = donor.call{value: amount}(\"\");\n                if (success) {\n                    emit FundsRefunded(_taskId, donor, amount);\n                }\n            }\n        }\n    }\n    \n    /**\n     * @dev \n     * @param _rate  ()\n     */\n    function setDonationRewardRate(uint256 _rate) external onlyOwner {\n        require(_rate <= MAX_REWARD_RATE, \"Rate cannot exceed max\");\n        donationRewardRate = _rate;\n    }\n    \n    /**\n     * @dev \n     * @param _amount \n     */\n    function setAssigneeRewardAmount(uint256 _amount) external onlyOwner {\n        assigneeRewardAmount = _amount;\n    }\n    \n    /**\n     * @dev \n     * @param _timelock \n     */\n    function setTimelock(uint256 _timelock) external onlyOwner {\n        require(_timelock >= MIN_TIMELOCK, \"Timelock too short\");\n        timelock = _timelock;\n    }\n    \n    /**\n     * @dev \n     * @param _rewardToken \n     * @param _nftToken NFT\n     * @param _multiSigFactory \n     */\n    function setContractAddresses(\n        address _rewardToken,\n        address _nftToken,\n        address _multiSigFactory\n    ) external onlyOwner {\n        if (_rewardToken != address(0)) rewardToken = IERC20(_rewardToken);\n        if (_nftToken != address(0)) nftToken = _nftToken;\n        if (_multiSigFactory != address(0)) multiSigFactory = _multiSigFactory;\n    }\n    \n    /**\n     * @dev \n     * @param _taskId ID\n     */\n    function getTaskDetails(uint256 _taskId) external view returns (\n        uint256 id,\n        address issuer,\n        string memory description,\n        uint256 targetAmount,\n        uint256 currentAmount,\n        address assignee,\n        TaskStatus status,\n        address multiSigWallet,\n        uint256 createdAt,\n        uint256 completionTime\n    ) {\n        require(_taskExists[_taskId], \"Task does not exist\");\n        Task storage task = _tasks[_taskId];\n        return (\n            task.id,\n            task.issuer,\n            task.description,\n            task.targetAmount,\n            task.currentAmount,\n            task.assignee,\n            task.status,\n            task.multiSigWallet,\n            task.createdAt,\n            task.completionTime\n        );\n    }\n    \n    /**\n     * @dev \n     * @param _taskId ID\n     */\n    function getDonations(uint256 _taskId) external view returns (\n        address[] memory donors,\n        uint256[] memory amounts,\n        uint256[] memory timestamps\n    ) {\n        require(_taskExists[_taskId], \"Task does not exist\");\n        Donation[] storage taskDonations = _donations[_taskId];\n        uint256 count = taskDonations.length;\n        \n        donors = new address[](count);\n        amounts = new uint256[](count);\n        timestamps = new uint256[](count);\n        \n        for (uint256 i = 0; i < count; i++) {\n            donors[i] = taskDonations[i].donor;\n            amounts[i] = taskDonations[i].amount;\n            timestamps[i] = taskDonations[i].timestamp;\n        }\n        \n        return (donors, amounts, timestamps);\n    }\n    \n    /**\n     * @dev \n     * @param _taskId ID\n     */\n    function getDonors(uint256 _taskId) external view returns (address[] memory) {\n        require(_taskExists[_taskId], \"Task does not exist\");\n        return _donorsList[_taskId];\n    }\n    \n    /**\n     * @dev \n     * @param _user \n     */\n    function getUserTasks(address _user) external view returns (uint256[] memory) {\n        return _userTasks[_user];\n    }\n    \n    /**\n     * @dev \n     */\n    function getTaskCount() external view returns (uint256) {\n        return _taskCount;\n    }\n    \n    /**\n     * @dev \n     * @param _taskId ID\n     */\n    function taskExists(uint256 _taskId) external view returns (bool) {\n        return _taskExists[_taskId];\n    }\n    \n    /**\n     * @dev \n     * @param _taskId ID\n     * @param _user \n     */\n    function hasApproved(uint256 _taskId, address _user) external view returns (bool) {\n        require(_taskExists[_taskId], \"Task does not exist\");\n        return _approvals[_taskId][_user];\n    }\n    \n    /**\n     * @dev \n     * @param _taskId ID\n     */\n    function getApprovalCount(uint256 _taskId) external view returns (uint256) {\n        require(_taskExists[_taskId], \"Task does not exist\");\n        return _approvalCounts[_taskId];\n    }\n    \n    /**\n     * @dev ETH\n     */\n    receive() external payable {\n        // ETH\n    }\n}",
  "sourcePath": "/Users/yosgi/freelancer/Volunteers3/contracts/contracts/TrailMaintenance.sol",
  "compiler": {
    "name": "solc",
    "version": "0.8.20+commit.a1b79de6.Emscripten.clang"
  },
  "schemaVersion": "3.4.16",
  "updatedAt": "2025-03-22T15:43:20.317Z",
  "networkType": "ethereum",
  "devdoc": {
    "details": "",
    "errors": {
      "EnforcedPause()": [
        {
          "details": "The operation failed because the contract is paused."
        }
      ],
      "ExpectedPause()": [
        {
          "details": "The operation failed because the contract is not paused."
        }
      ],
      "OwnableInvalidOwner(address)": [
        {
          "details": "The owner is not a valid owner account. (eg. `address(0)`)"
        }
      ],
      "OwnableUnauthorizedAccount(address)": [
        {
          "details": "The caller account is not authorized to perform an operation."
        }
      ],
      "ReentrancyGuardReentrantCall()": [
        {
          "details": "Unauthorized reentrant call."
        }
      ]
    },
    "events": {
      "Paused(address)": {
        "details": "Emitted when the pause is triggered by `account`."
      },
      "Unpaused(address)": {
        "details": "Emitted when the pause is lifted by `account`."
      }
    },
    "kind": "dev",
    "methods": {
      "approveCompletion(uint256)": {
        "details": "",
        "params": {
          "_taskId": "ID"
        }
      },
      "assignTask(uint256)": {
        "details": "",
        "params": {
          "_taskId": "ID"
        }
      },
      "cancelTask(uint256)": {
        "details": "",
        "params": {
          "_taskId": "ID"
        }
      },
      "constructor": {
        "details": "",
        "params": {
          "_multiSigFactory": "",
          "_nftToken": "NFT",
          "_rewardToken": ""
        }
      },
      "createTask(uint256,string,uint256)": {
        "details": "",
        "params": {
          "_description": "",
          "_targetAmount": " (0)",
          "_taskId": "ID"
        },
        "returns": {
          "_0": "ID"
        }
      },
      "donate(uint256)": {
        "details": "",
        "params": {
          "_taskId": "ID"
        }
      },
      "getApprovalCount(uint256)": {
        "details": "",
        "params": {
          "_taskId": "ID"
        }
      },
      "getDonations(uint256)": {
        "details": "",
        "params": {
          "_taskId": "ID"
        }
      },
      "getDonors(uint256)": {
        "details": "",
        "params": {
          "_taskId": "ID"
        }
      },
      "getTaskCount()": {
        "details": ""
      },
      "getTaskDetails(uint256)": {
        "details": "",
        "params": {
          "_taskId": "ID"
        }
      },
      "getUserTasks(address)": {
        "details": "",
        "params": {
          "_user": ""
        }
      },
      "hasApproved(uint256,address)": {
        "details": "",
        "params": {
          "_taskId": "ID",
          "_user": ""
        }
      },
      "owner()": {
        "details": "Returns the address of the current owner."
      },
      "pause()": {
        "details": ""
      },
      "paused()": {
        "details": "Returns true if the contract is paused, and false otherwise."
      },
      "renounceOwnership()": {
        "details": "Leaves the contract without owner. It will not be possible to call `onlyOwner` functions. Can only be called by the current owner. NOTE: Renouncing ownership will leave the contract without an owner, thereby disabling any functionality that is only available to the owner."
      },
      "requestCompletion(uint256)": {
        "details": "",
        "params": {
          "_taskId": "ID"
        }
      },
      "setAssigneeRewardAmount(uint256)": {
        "details": "",
        "params": {
          "_amount": ""
        }
      },
      "setContractAddresses(address,address,address)": {
        "details": "",
        "params": {
          "_multiSigFactory": "",
          "_nftToken": "NFT",
          "_rewardToken": ""
        }
      },
      "setDonationRewardRate(uint256)": {
        "details": "",
        "params": {
          "_rate": " ()"
        }
      },
      "setMultiSigWallet(uint256,address)": {
        "details": "",
        "params": {
          "_multiSigWallet": "",
          "_taskId": "ID"
        }
      },
      "setTimelock(uint256)": {
        "details": "",
        "params": {
          "_timelock": ""
        }
      },
      "taskExists(uint256)": {
        "details": "",
        "params": {
          "_taskId": "ID"
        }
      },
      "transferOwnership(address)": {
        "details": "Transfers ownership of the contract to a new account (`newOwner`). Can only be called by the current owner."
      },
      "unpause()": {
        "details": ""
      }
    },
    "title": "TrailMaintenance",
    "version": 1
  },
  "userdoc": {
    "kind": "user",
    "methods": {},
    "version": 1
  }
}