{
  "contractName": "TrailMaintenance",
  "abi": [
    {
      "inputs": [
        {
          "internalType": "address",
          "name": "_rewardToken",
          "type": "address"
        },
        {
          "internalType": "address",
          "name": "_nftToken",
          "type": "address"
        },
        {
          "internalType": "address",
          "name": "_multiSigFactory",
          "type": "address"
        }
      ],
      "stateMutability": "nonpayable",
      "type": "constructor"
    },
    {
      "inputs": [],
      "name": "EnforcedPause",
      "type": "error"
    },
    {
      "inputs": [],
      "name": "ExpectedPause",
      "type": "error"
    },
    {
      "inputs": [
        {
          "internalType": "address",
          "name": "owner",
          "type": "address"
        }
      ],
      "name": "OwnableInvalidOwner",
      "type": "error"
    },
    {
      "inputs": [
        {
          "internalType": "address",
          "name": "account",
          "type": "address"
        }
      ],
      "name": "OwnableUnauthorizedAccount",
      "type": "error"
    },
    {
      "inputs": [],
      "name": "ReentrancyGuardReentrantCall",
      "type": "error"
    },
    {
      "anonymous": false,
      "inputs": [
        {
          "indexed": true,
          "internalType": "uint256",
          "name": "taskId",
          "type": "uint256"
        },
        {
          "indexed": false,
          "internalType": "uint256",
          "name": "unlockTime",
          "type": "uint256"
        }
      ],
      "name": "CompletionRequested",
      "type": "event"
    },
    {
      "anonymous": false,
      "inputs": [
        {
          "indexed": true,
          "internalType": "uint256",
          "name": "taskId",
          "type": "uint256"
        },
        {
          "indexed": true,
          "internalType": "address",
          "name": "donor",
          "type": "address"
        },
        {
          "indexed": false,
          "internalType": "uint256",
          "name": "amount",
          "type": "uint256"
        }
      ],
      "name": "DonationReceived",
      "type": "event"
    },
    {
      "anonymous": false,
      "inputs": [
        {
          "indexed": true,
          "internalType": "uint256",
          "name": "taskId",
          "type": "uint256"
        },
        {
          "indexed": true,
          "internalType": "address",
          "name": "donor",
          "type": "address"
        },
        {
          "indexed": false,
          "internalType": "uint256",
          "name": "amount",
          "type": "uint256"
        }
      ],
      "name": "FundsRefunded",
      "type": "event"
    },
    {
      "anonymous": false,
      "inputs": [
        {
          "indexed": true,
          "internalType": "uint256",
          "name": "taskId",
          "type": "uint256"
        },
        {
          "indexed": true,
          "internalType": "address",
          "name": "recipient",
          "type": "address"
        },
        {
          "indexed": false,
          "internalType": "uint256",
          "name": "amount",
          "type": "uint256"
        }
      ],
      "name": "FundsReleased",
      "type": "event"
    },
    {
      "anonymous": false,
      "inputs": [
        {
          "indexed": true,
          "internalType": "uint256",
          "name": "taskId",
          "type": "uint256"
        },
        {
          "indexed": true,
          "internalType": "address",
          "name": "multiSigWallet",
          "type": "address"
        }
      ],
      "name": "MultiSigCreated",
      "type": "event"
    },
    {
      "anonymous": false,
      "inputs": [
        {
          "indexed": true,
          "internalType": "address",
          "name": "recipient",
          "type": "address"
        },
        {
          "indexed": false,
          "internalType": "uint256",
          "name": "tokenId",
          "type": "uint256"
        },
        {
          "indexed": true,
          "internalType": "uint256",
          "name": "taskId",
          "type": "uint256"
        }
      ],
      "name": "NFTRewarded",
      "type": "event"
    },
    {
      "anonymous": false,
      "inputs": [
        {
          "indexed": true,
          "internalType": "address",
          "name": "previousOwner",
          "type": "address"
        },
        {
          "indexed": true,
          "internalType": "address",
          "name": "newOwner",
          "type": "address"
        }
      ],
      "name": "OwnershipTransferred",
      "type": "event"
    },
    {
      "anonymous": false,
      "inputs": [
        {
          "indexed": false,
          "internalType": "address",
          "name": "account",
          "type": "address"
        }
      ],
      "name": "Paused",
      "type": "event"
    },
    {
      "anonymous": false,
      "inputs": [
        {
          "indexed": true,
          "internalType": "uint256",
          "name": "taskId",
          "type": "uint256"
        },
        {
          "indexed": true,
          "internalType": "address",
          "name": "assignee",
          "type": "address"
        }
      ],
      "name": "TaskAssigned",
      "type": "event"
    },
    {
      "anonymous": false,
      "inputs": [
        {
          "indexed": true,
          "internalType": "uint256",
          "name": "taskId",
          "type": "uint256"
        }
      ],
      "name": "TaskCancelled",
      "type": "event"
    },
    {
      "anonymous": false,
      "inputs": [
        {
          "indexed": true,
          "internalType": "uint256",
          "name": "taskId",
          "type": "uint256"
        }
      ],
      "name": "TaskCompleted",
      "type": "event"
    },
    {
      "anonymous": false,
      "inputs": [
        {
          "indexed": true,
          "internalType": "uint256",
          "name": "taskId",
          "type": "uint256"
        },
        {
          "indexed": true,
          "internalType": "address",
          "name": "issuer",
          "type": "address"
        },
        {
          "indexed": false,
          "internalType": "string",
          "name": "description",
          "type": "string"
        },
        {
          "indexed": false,
          "internalType": "uint256",
          "name": "targetAmount",
          "type": "uint256"
        }
      ],
      "name": "TaskCreated",
      "type": "event"
    },
    {
      "anonymous": false,
      "inputs": [
        {
          "indexed": true,
          "internalType": "address",
          "name": "recipient",
          "type": "address"
        },
        {
          "indexed": false,
          "internalType": "uint256",
          "name": "amount",
          "type": "uint256"
        },
        {
          "indexed": false,
          "internalType": "string",
          "name": "reason",
          "type": "string"
        }
      ],
      "name": "TokensRewarded",
      "type": "event"
    },
    {
      "anonymous": false,
      "inputs": [
        {
          "indexed": false,
          "internalType": "address",
          "name": "account",
          "type": "address"
        }
      ],
      "name": "Unpaused",
      "type": "event"
    },
    {
      "inputs": [],
      "name": "assigneeRewardAmount",
      "outputs": [
        {
          "internalType": "uint256",
          "name": "",
          "type": "uint256"
        }
      ],
      "stateMutability": "view",
      "type": "function"
    },
    {
      "inputs": [],
      "name": "donationRewardRate",
      "outputs": [
        {
          "internalType": "uint256",
          "name": "",
          "type": "uint256"
        }
      ],
      "stateMutability": "view",
      "type": "function"
    },
    {
      "inputs": [],
      "name": "multiSigFactory",
      "outputs": [
        {
          "internalType": "address",
          "name": "",
          "type": "address"
        }
      ],
      "stateMutability": "view",
      "type": "function"
    },
    {
      "inputs": [],
      "name": "nftToken",
      "outputs": [
        {
          "internalType": "address",
          "name": "",
          "type": "address"
        }
      ],
      "stateMutability": "view",
      "type": "function"
    },
    {
      "inputs": [],
      "name": "owner",
      "outputs": [
        {
          "internalType": "address",
          "name": "",
          "type": "address"
        }
      ],
      "stateMutability": "view",
      "type": "function"
    },
    {
      "inputs": [],
      "name": "paused",
      "outputs": [
        {
          "internalType": "bool",
          "name": "",
          "type": "bool"
        }
      ],
      "stateMutability": "view",
      "type": "function"
    },
    {
      "inputs": [],
      "name": "renounceOwnership",
      "outputs": [],
      "stateMutability": "nonpayable",
      "type": "function"
    },
    {
      "inputs": [],
      "name": "rewardToken",
      "outputs": [
        {
          "internalType": "contract IERC20",
          "name": "",
          "type": "address"
        }
      ],
      "stateMutability": "view",
      "type": "function"
    },
    {
      "inputs": [],
      "name": "timelock",
      "outputs": [
        {
          "internalType": "uint256",
          "name": "",
          "type": "uint256"
        }
      ],
      "stateMutability": "view",
      "type": "function"
    },
    {
      "inputs": [
        {
          "internalType": "address",
          "name": "newOwner",
          "type": "address"
        }
      ],
      "name": "transferOwnership",
      "outputs": [],
      "stateMutability": "nonpayable",
      "type": "function"
    },
    {
      "stateMutability": "payable",
      "type": "receive"
    },
    {
      "inputs": [],
      "name": "pause",
      "outputs": [],
      "stateMutability": "nonpayable",
      "type": "function"
    },
    {
      "inputs": [],
      "name": "unpause",
      "outputs": [],
      "stateMutability": "nonpayable",
      "type": "function"
    },
    {
      "inputs": [
        {
          "internalType": "string",
          "name": "_description",
          "type": "string"
        },
        {
          "internalType": "uint256",
          "name": "_targetAmount",
          "type": "uint256"
        }
      ],
      "name": "createTask",
      "outputs": [
        {
          "internalType": "uint256",
          "name": "",
          "type": "uint256"
        }
      ],
      "stateMutability": "nonpayable",
      "type": "function"
    },
    {
      "inputs": [
        {
          "internalType": "uint256",
          "name": "_taskId",
          "type": "uint256"
        }
      ],
      "name": "assignTask",
      "outputs": [],
      "stateMutability": "nonpayable",
      "type": "function"
    },
    {
      "inputs": [
        {
          "internalType": "uint256",
          "name": "_taskId",
          "type": "uint256"
        }
      ],
      "name": "donate",
      "outputs": [],
      "stateMutability": "payable",
      "type": "function"
    },
    {
      "inputs": [
        {
          "internalType": "uint256",
          "name": "_taskId",
          "type": "uint256"
        },
        {
          "internalType": "address",
          "name": "_multiSigWallet",
          "type": "address"
        }
      ],
      "name": "setMultiSigWallet",
      "outputs": [],
      "stateMutability": "nonpayable",
      "type": "function"
    },
    {
      "inputs": [
        {
          "internalType": "uint256",
          "name": "_taskId",
          "type": "uint256"
        }
      ],
      "name": "requestCompletion",
      "outputs": [],
      "stateMutability": "nonpayable",
      "type": "function"
    },
    {
      "inputs": [
        {
          "internalType": "uint256",
          "name": "_taskId",
          "type": "uint256"
        }
      ],
      "name": "approveCompletion",
      "outputs": [],
      "stateMutability": "nonpayable",
      "type": "function"
    },
    {
      "inputs": [
        {
          "internalType": "uint256",
          "name": "_taskId",
          "type": "uint256"
        }
      ],
      "name": "cancelTask",
      "outputs": [],
      "stateMutability": "nonpayable",
      "type": "function"
    },
    {
      "inputs": [
        {
          "internalType": "uint256",
          "name": "_rate",
          "type": "uint256"
        }
      ],
      "name": "setDonationRewardRate",
      "outputs": [],
      "stateMutability": "nonpayable",
      "type": "function"
    },
    {
      "inputs": [
        {
          "internalType": "uint256",
          "name": "_amount",
          "type": "uint256"
        }
      ],
      "name": "setAssigneeRewardAmount",
      "outputs": [],
      "stateMutability": "nonpayable",
      "type": "function"
    },
    {
      "inputs": [
        {
          "internalType": "uint256",
          "name": "_timelock",
          "type": "uint256"
        }
      ],
      "name": "setTimelock",
      "outputs": [],
      "stateMutability": "nonpayable",
      "type": "function"
    },
    {
      "inputs": [
        {
          "internalType": "address",
          "name": "_rewardToken",
          "type": "address"
        },
        {
          "internalType": "address",
          "name": "_nftToken",
          "type": "address"
        },
        {
          "internalType": "address",
          "name": "_multiSigFactory",
          "type": "address"
        }
      ],
      "name": "setContractAddresses",
      "outputs": [],
      "stateMutability": "nonpayable",
      "type": "function"
    },
    {
      "inputs": [
        {
          "internalType": "uint256",
          "name": "_taskId",
          "type": "uint256"
        }
      ],
      "name": "getTaskDetails",
      "outputs": [
        {
          "internalType": "uint256",
          "name": "id",
          "type": "uint256"
        },
        {
          "internalType": "address",
          "name": "issuer",
          "type": "address"
        },
        {
          "internalType": "string",
          "name": "description",
          "type": "string"
        },
        {
          "internalType": "uint256",
          "name": "targetAmount",
          "type": "uint256"
        },
        {
          "internalType": "uint256",
          "name": "currentAmount",
          "type": "uint256"
        },
        {
          "internalType": "address",
          "name": "assignee",
          "type": "address"
        },
        {
          "internalType": "enum TrailMaintenance.TaskStatus",
          "name": "status",
          "type": "uint8"
        },
        {
          "internalType": "address",
          "name": "multiSigWallet",
          "type": "address"
        },
        {
          "internalType": "uint256",
          "name": "createdAt",
          "type": "uint256"
        },
        {
          "internalType": "uint256",
          "name": "completionTime",
          "type": "uint256"
        }
      ],
      "stateMutability": "view",
      "type": "function"
    },
    {
      "inputs": [
        {
          "internalType": "uint256",
          "name": "_taskId",
          "type": "uint256"
        }
      ],
      "name": "getDonations",
      "outputs": [
        {
          "internalType": "address[]",
          "name": "donors",
          "type": "address[]"
        },
        {
          "internalType": "uint256[]",
          "name": "amounts",
          "type": "uint256[]"
        },
        {
          "internalType": "uint256[]",
          "name": "timestamps",
          "type": "uint256[]"
        }
      ],
      "stateMutability": "view",
      "type": "function"
    },
    {
      "inputs": [
        {
          "internalType": "uint256",
          "name": "_taskId",
          "type": "uint256"
        }
      ],
      "name": "getDonors",
      "outputs": [
        {
          "internalType": "address[]",
          "name": "",
          "type": "address[]"
        }
      ],
      "stateMutability": "view",
      "type": "function"
    },
    {
      "inputs": [
        {
          "internalType": "address",
          "name": "_user",
          "type": "address"
        }
      ],
      "name": "getUserTasks",
      "outputs": [
        {
          "internalType": "uint256[]",
          "name": "",
          "type": "uint256[]"
        }
      ],
      "stateMutability": "view",
      "type": "function"
    },
    {
      "inputs": [],
      "name": "getTaskCount",
      "outputs": [
        {
          "internalType": "uint256",
          "name": "",
          "type": "uint256"
        }
      ],
      "stateMutability": "view",
      "type": "function"
    },
    {
      "inputs": [
        {
          "internalType": "uint256",
          "name": "_taskId",
          "type": "uint256"
        },
        {
          "internalType": "address",
          "name": "_user",
          "type": "address"
        }
      ],
      "name": "hasApproved",
      "outputs": [
        {
          "internalType": "bool",
          "name": "",
          "type": "bool"
        }
      ],
      "stateMutability": "view",
      "type": "function"
    },
    {
      "inputs": [
        {
          "internalType": "uint256",
          "name": "_taskId",
          "type": "uint256"
        }
      ],
      "name": "getApprovalCount",
      "outputs": [
        {
          "internalType": "uint256",
          "name": "",
          "type": "uint256"
        }
      ],
      "stateMutability": "view",
      "type": "function"
    }
  ],
  "bytecode": "0x6080604052600160075568056bc75e2d631000006008556202a3006009553480156200002a57600080fd5b5060405162002a4c38038062002a4c8339810160408190526200004d916200013e565b33806200007457604051631e4fbdf760e01b81526000600482015260240160405180910390fd5b6200007f81620000d1565b50600180556002805460ff19169055600480546001600160a01b039485166001600160a01b03199182161790915560058054938516938216939093179092556006805491909316911617905562000188565b600080546001600160a01b038381166001600160a01b0319831681178455604051919092169283917f8be0079c531659141344cd1fd0a4f28419497f9722a3daafe3b4186f6b6457e09190a35050565b80516001600160a01b03811681146200013957600080fd5b919050565b6000806000606084860312156200015457600080fd5b6200015f8462000121565b92506200016f6020850162000121565b91506200017f6040850162000121565b90509250925092565b6128b480620001986000396000f3fe6080604052600436106101d15760003560e01c80638ab63380116100f7578063c17a340e11610095578063d33219b411610064578063d33219b41461055c578063f14faf6f14610572578063f2fde38b14610585578063f7c618c1146105a557600080fd5b8063c17a340e146104e7578063c9cb649f146104fc578063d06fcba81461051c578063d1f54ac81461053c57600080fd5b806395d57660116100d157806395d576601461044d578063a591a0f41461047a578063b85731851461049a578063ba7e7cab146104ba57600080fd5b80638ab63380146103ef5780638da5cb5b1461040f57806393a5bc411461042d57600080fd5b80634d2f0c231161016f578063678f93501161013e578063678f93501461038f578063715018a6146103a55780637eec20a8146103ba5780638456cb59146103da57600080fd5b80634d2f0c23146102fa578063596d9ce2146103105780635c975abb1461033f5780636661e85e1461035757600080fd5b806329516511116101ab57806329516511146102625780633888b9d51461028f5780633f4ba83a146102c55780634a877ec3146102da57600080fd5b806304fe2b34146101dd5780631e891c0a146102105780632358d5a81461023257600080fd5b366101d857005b600080fd5b3480156101e957600080fd5b506101fd6101f83660046122ad565b6105c5565b6040519081526020015b60405180910390f35b34801561021c57600080fd5b5061023061022b366004612325565b6107d3565b005b34801561023e57600080fd5b5061025261024d36600461235a565b61082d565b6040519015158152602001610207565b34801561026e57600080fd5b5061028261027d366004612325565b61085a565b60405161020791906123ca565b34801561029b57600080fd5b506102af6102aa366004612325565b6108c6565b6040516102079a9998979695949392919061241c565b3480156102d157600080fd5b506102306109e8565b3480156102e657600080fd5b506102306102f5366004612325565b6109fa565b34801561030657600080fd5b506101fd60085481565b34801561031c57600080fd5b5061033061032b366004612325565b610a07565b60405161020793929190612509565b34801561034b57600080fd5b5060025460ff16610252565b34801561036357600080fd5b50600654610377906001600160a01b031681565b6040516001600160a01b039091168152602001610207565b34801561039b57600080fd5b506101fd60075481565b3480156103b157600080fd5b50610230610bfb565b3480156103c657600080fd5b506102306103d5366004612325565b610c0d565b3480156103e657600080fd5b50610230610db4565b3480156103fb57600080fd5b5061023061040a36600461254c565b610dc4565b34801561041b57600080fd5b506000546001600160a01b0316610377565b34801561043957600080fd5b50610230610448366004612325565b610e52565b34801561045957600080fd5b5061046d61046836600461258f565b6110d3565b60405161020791906125aa565b34801561048657600080fd5b50610230610495366004612325565b61113e565b3480156104a657600080fd5b506102306104b5366004612325565b611195565b3480156104c657600080fd5b506101fd6104d5366004612325565b6000908152600f602052604090205490565b3480156104f357600080fd5b506003546101fd565b34801561050857600080fd5b50610230610517366004612325565b61135f565b34801561052857600080fd5b50600554610377906001600160a01b031681565b34801561054857600080fd5b5061023061055736600461235a565b6114dc565b34801561056857600080fd5b506101fd60095481565b610230610580366004612325565b61172b565b34801561059157600080fd5b506102306105a036600461258f565b611c33565b3480156105b157600080fd5b50600454610377906001600160a01b031681565b60006105cf611c6e565b600380549060006105df836125d3565b919050555060006003549050604051806101400160405280828152602001336001600160a01b0316815260200186868080601f016020809104026020016040519081016040528093929190818152602001838380828437600092018290525093855250505060208083018790526040808401839052606084018390526080840183905260a084018390524260c085015260e0909301829052848252600a81529082902083518155908301516001820180546001600160a01b0319166001600160a01b039092169190911790559082015160028201906106be908261268a565b5060608201516003808301919091556080830151600483015560a08301516005830180546001600160a01b039092166001600160a01b031983168117825560c08601519391926001600160a81b0319161790600160a01b908490811115610727576107276123e4565b021790555060e08201516006820180546001600160a01b0319166001600160a01b03909216919091179055610100820151600782015561012090910151600890910155336000818152601060209081526040808320805460018101825590845291909220018390555182907f9e3c9757475c00b86393e183b68033bb76e48fa164849c7428ad17f62e1954a7906107c39089908990899061274a565b60405180910390a3949350505050565b6107db611c92565b620151808110156108285760405162461bcd60e51b8152602060048201526012602482015271151a5b595b1bd8dac81d1bdbc81cda1bdc9d60721b60448201526064015b60405180910390fd5b600955565b6000828152600e602090815260408083206001600160a01b038516845290915290205460ff165b92915050565b6000818152600c60209081526040918290208054835181840281018401909452808452606093928301828280156108ba57602002820191906000526020600020905b81546001600160a01b0316815260019091019060200180831161089c575b50505050509050919050565b6000818152600a60205260408120805460018201546003830154600484015460058501546006860154600787015460088801546002890180548b9a60609a8c9a8b9a8b9a8b9a8b9a8b9a8b9a979996986001600160a01b03968716989596949585851695600160a01b90950460ff16949093169290889061094690612602565b80601f016020809104026020016040519081016040528092919081815260200182805461097290612602565b80156109bf5780601f10610994576101008083540402835291602001916109bf565b820191906000526020600020905b8154815290600101906020018083116109a257829003601f168201915b505050505097509a509a509a509a509a509a509a509a509a509a50509193959799509193959799565b6109f0611c92565b6109f8611cbf565b565b610a02611c92565b600855565b6000818152600b60205260409020805460609182918291908067ffffffffffffffff811115610a3857610a386125ec565b604051908082528060200260200182016040528015610a61578160200160208202803683370190505b5094508067ffffffffffffffff811115610a7d57610a7d6125ec565b604051908082528060200260200182016040528015610aa6578160200160208202803683370190505b5093508067ffffffffffffffff811115610ac257610ac26125ec565b604051908082528060200260200182016040528015610aeb578160200160208202803683370190505b50925060005b81811015610bf157828181548110610b0b57610b0b612783565b600091825260209091206003909102015486516001600160a01b0390911690879083908110610b3c57610b3c612783565b60200260200101906001600160a01b031690816001600160a01b031681525050828181548110610b6e57610b6e612783565b906000526020600020906003020160010154858281518110610b9257610b92612783565b602002602001018181525050828181548110610bb057610bb0612783565b906000526020600020906003020160020154848281518110610bd457610bd4612783565b602090810291909101015280610be9816125d3565b915050610af1565b5050509193909250565b610c03611c92565b6109f86000611d11565b610c15611d61565b610c1d611c6e565b6000818152600a602052604081208054909103610c4c5760405162461bcd60e51b815260040161081f90612799565b60018101546001600160a01b03163314610ca15760405162461bcd60e51b815260206004820152601660248201527513db9b1e481a5cdcdd595c8818d85b8818d85b98d95b60521b604482015260640161081f565b60006005820154600160a01b900460ff166003811115610cc357610cc36123e4565b1480610cee575060016005820154600160a01b900460ff166003811115610cec57610cec6123e4565b145b610d3a5760405162461bcd60e51b815260206004820152601860248201527f5461736b2063616e6e6f742062652063616e63656c6c65640000000000000000604482015260640161081f565b60058101805460ff60a01b1916600360a01b17905560068101546001600160a01b0316158015610d6e575060008160040154115b15610d7c57610d7c82611d8b565b60405182907fc6eacc3aa5b2aa77b5a826b832a804ca0b71830ec74f9aa57a15edd978c31ed690600090a250610db160018055565b50565b610dbc611c92565b6109f8611e9c565b610dcc611c92565b6001600160a01b03831615610df757600480546001600160a01b0319166001600160a01b0385161790555b6001600160a01b03821615610e2257600580546001600160a01b0319166001600160a01b0384161790555b6001600160a01b03811615610e4d57600680546001600160a01b0319166001600160a01b0383161790555b505050565b610e5a611c6e565b6000818152600a602052604081208054909103610e895760405162461bcd60e51b815260040161081f90612799565b60016005820154600160a01b900460ff166003811115610eab57610eab6123e4565b14610ec85760405162461bcd60e51b815260040161081f906127c6565b60008160080154118015610ee0575080600801544210155b610f245760405162461bcd60e51b8152602060048201526015602482015274151a5b59481b1bd8dac81b9bdd08195e1c1a5c9959605a1b604482015260640161081f565b60018101546001600160a01b0316331480610f5857506000828152600d6020908152604080832033845290915290205460ff165b610fa45760405162461bcd60e51b815260206004820152601960248201527f4e6f7420617574686f72697a656420746f20617070726f766500000000000000604482015260640161081f565b6000828152600e6020908152604080832033845290915290205460ff16156110015760405162461bcd60e51b815260206004820152601060248201526f105b1c9958591e48185c1c1c9bdd995960821b604482015260640161081f565b6000828152600e602090815260408083203384528252808320805460ff19166001179055848352600f909152812080549161103b836125d3565b90915550506000828152600c602052604081205461105b906002906127fd565b61106690600161281f565b6000848152600e6020908152604080832060018701546001600160a01b0316845290915290205490915060ff16156110b557600181116110a75760016110b2565b6110b2600182612832565b90505b6000838152600f60205260409020548111610e4d57610e4d83611ed9565b6001600160a01b0381166000908152601060209081526040918290208054835181840281018401909452808452606093928301828280156108ba57602002820191906000526020600020905b81548152602001906001019080831161111f5750505050509050919050565b611146611c92565b600a8111156111905760405162461bcd60e51b81526020600482015260166024820152750a4c2e8ca40c6c2dcdcdee840caf0c6cacac840dac2f60531b604482015260640161081f565b600755565b61119d611c6e565b6000818152600a6020526040812080549091036111cc5760405162461bcd60e51b815260040161081f90612799565b60006005820154600160a01b900460ff1660038111156111ee576111ee6123e4565b1461123b5760405162461bcd60e51b815260206004820152601760248201527f5461736b2063616e6e6f742062652061737369676e6564000000000000000000604482015260640161081f565b60058101546001600160a01b03161561128e5760405162461bcd60e51b815260206004820152601560248201527415185cdac8185b1c9958591e48185cdcda59db9959605a1b604482015260640161081f565b60018101546001600160a01b031633036112ea5760405162461bcd60e51b815260206004820152601960248201527f4973737565722063616e6e6f742062652061737369676e656500000000000000604482015260640161081f565b6005810180546001600160a81b0319163360ff60a01b19811691909117600160a01b17909155600081815260106020908152604080832080546001810182559084529183209091018590555184917f52476d55ecef5cf13caa64038f297fe6bbf865d9584a98b8722a15a6d5db128f91a35050565b611367611c6e565b6000818152600a6020526040812080549091036113965760405162461bcd60e51b815260040161081f90612799565b60016005820154600160a01b900460ff1660038111156113b8576113b86123e4565b146113d55760405162461bcd60e51b815260040161081f906127c6565b60058101546001600160a01b0316331461143d5760405162461bcd60e51b8152602060048201526024808201527f4f6e6c792061737369676e65652063616e207265717565737420636f6d706c656044820152633a34b7b760e11b606482015260840161081f565b60088101541561148f5760405162461bcd60e51b815260206004820152601c60248201527f436f6d706c6574696f6e20616c72656164792072657175657374656400000000604482015260640161081f565b60095461149c904261281f565b6008820181905560405190815282907f9331392caf7acaf50b907ab07c10c959137e62d9e84480648e369910ca0705979060200160405180910390a25050565b6114e4611c6e565b6000828152600a6020526040812080549091036115135760405162461bcd60e51b815260040161081f90612799565b60018101546001600160a01b0316331461156f5760405162461bcd60e51b815260206004820152601c60248201527f4f6e6c79206973737565722063616e20736574206d756c746973696700000000604482015260640161081f565b60068101546001600160a01b0316156115c15760405162461bcd60e51b8152602060048201526014602482015273135d5b1d1a5cda59c8185b1c9958591e481cd95d60621b604482015260640161081f565b6001600160a01b0382166116175760405162461bcd60e51b815260206004820152601860248201527f496e76616c6964206d756c746973696720616464726573730000000000000000604482015260640161081f565b6006810180546001600160a01b0319166001600160a01b0384161790556004810154156116f05760048101546040516000916001600160a01b038516918381818185875af1925050503d806000811461168c576040519150601f19603f3d011682016040523d82523d6000602084013e611691565b606091505b50509050806116ee5760405162461bcd60e51b8152602060048201526024808201527f4661696c656420746f207472616e736665722066756e647320746f206d756c746044820152636973696760e01b606482015260840161081f565b505b6040516001600160a01b0383169084907f0e8711f03efc1ec0378d408dfd0dc5272ed30963acf3e815f88887c97e546d8490600090a3505050565b611733611d61565b61173b611c6e565b6000818152600a60205260408120805490910361176a5760405162461bcd60e51b815260040161081f90612799565b60006005820154600160a01b900460ff16600381111561178c5761178c6123e4565b14806117b7575060016005820154600160a01b900460ff1660038111156117b5576117b56123e4565b145b6118035760405162461bcd60e51b815260206004820152601d60248201527f5461736b2063616e6e6f74207265636569766520646f6e6174696f6e73000000604482015260640161081f565b600034116118625760405162461bcd60e51b815260206004820152602660248201527f446f6e6174696f6e20616d6f756e74206d75737420626520677265617465722060448201526507468616e20360d41b606482015260840161081f565b6003810154156118c7578060030154348260040154611881919061281f565b11156118c75760405162461bcd60e51b8152602060048201526015602482015274115e18d959591cc81d185c99d95d08185b5bdd5b9d605a1b604482015260640161081f565b6000828152600b6020908152604080832081516060810183523380825234828601908152428386019081528454600180820187559589528789209451600390910290940180546001600160a01b0319166001600160a01b039095169490941784559051938301939093559151600290910155858452600d835281842090845290915290205460ff166119a6576000828152600c602090815260408083208054600181810183559185528385200180546001600160a01b03191633908117909155868552600d8452828520908552909252909120805460ff191690911790555b348160040160008282546119ba919061281f565b909155505060068101546001600160a01b031615611a855760068101546040516000916001600160a01b03169034908381818185875af1925050503d8060008114611a21576040519150601f19603f3d011682016040523d82523d6000602084013e611a26565b606091505b5050905080611a835760405162461bcd60e51b815260206004820152602360248201527f4661696c656420746f20666f72776172642066756e647320746f206d756c746960448201526273696760e81b606482015260840161081f565b505b6000606460075434611a979190612845565b611aa191906127fd565b9050600081118015611abd57506004546001600160a01b031615155b15611bf1576004805460405163a9059cbb60e01b81523392810192909252602482018390526000916001600160a01b039091169063a9059cbb906044016020604051808303816000875af1158015611b19573d6000803e3d6000fd5b505050506040513d601f19601f82011682018060405250810190611b3d919061285c565b905080611b8c5760405162461bcd60e51b815260206004820152601c60248201527f52657761726420746f6b656e207472616e73666572206661696c656400000000604482015260640161081f565b336001600160a01b03167fb969d134776a7f04430dbbcac4e68734b1c6c5adcecbf68c3cbe6a9a4f2c8a1d83604051611be7918152604060208201819052600890820152673237b730ba34b7b760c11b606082015260800190565b60405180910390a2505b604051348152339084907f0b5b4c52969ff7329ecf7ee536409fda87812b15a8622bc6e8cdeab3aee14a269060200160405180910390a35050610db160018055565b611c3b611c92565b6001600160a01b038116611c6557604051631e4fbdf760e01b81526000600482015260240161081f565b610db181611d11565b60025460ff16156109f85760405163d93c066560e01b815260040160405180910390fd5b6000546001600160a01b031633146109f85760405163118cdaa760e01b815233600482015260240161081f565b611cc761228a565b6002805460ff191690557f5db9ee0a495bf2e6ff9c91a7834c1ba4fdd244a5e8aa4e537bd38aeae4b073aa335b6040516001600160a01b03909116815260200160405180910390a1565b600080546001600160a01b038381166001600160a01b0319831681178455604051919092169283917f8be0079c531659141344cd1fd0a4f28419497f9722a3daafe3b4186f6b6457e09190a35050565b600260015403611d8457604051633ee5aeb560e01b815260040160405180910390fd5b6002600155565b6000818152600b60205260408120905b8154811015610e4d576000828281548110611db857611db8612783565b90600052602060002090600302019050600081600101541115611e895780546001820180546000918290556040516001600160a01b0390931692909190839083908381818185875af1925050503d8060008114611e31576040519150601f19603f3d011682016040523d82523d6000602084013e611e36565b606091505b505090508015611e8557826001600160a01b0316877f80b577b4fc190ab86d963549e29f496afd079c5d81a2480d61217d4b5060a28c84604051611e7c91815260200190565b60405180910390a35b5050505b5080611e94816125d3565b915050611d9b565b611ea4611c6e565b6002805460ff191660011790557f62e78cea01bee320cd4e420270b5ea74000d11b0c9f74754ebdbfc544b05a258611cf43390565b6000818152600a6020526040902060016005820154600160a01b900460ff166003811115611f0957611f096123e4565b14611f265760405162461bcd60e51b815260040161081f906127c6565b60058101805460ff60a01b1916600160a11b17905560068101546001600160a01b0316158015611f5a575060008160040154115b1561205557600581015460048201546040516000926001600160a01b031691908381818185875af1925050503d8060008114611fb2576040519150601f19603f3d011682016040523d82523d6000602084013e611fb7565b606091505b50509050806120085760405162461bcd60e51b815260206004820181905260248201527f4661696c656420746f2073656e642066756e647320746f2061737369676e6565604482015260640161081f565b600582015460048301546040519081526001600160a01b039091169084907f6e3c6096795c8298a218b2cfb8bde42726ff7c9a3d27b4d3ba41ab7f74feb5fb9060200160405180910390a3505b6004546001600160a01b0316156121ad5760048054600583015460085460405163a9059cbb60e01b81526001600160a01b0392831694810194909452602484015260009291169063a9059cbb906044016020604051808303816000875af11580156120c4573d6000803e3d6000fd5b505050506040513d601f19601f820116820180604052508101906120e8919061285c565b9050806121455760405162461bcd60e51b815260206004820152602560248201527f41737369676e65652072657761726420746f6b656e207472616e736665722066604482015264185a5b195960da1b606482015260840161081f565b60058201546008546040805191825260208201819052600a828201526931b7b6b83632ba34b7b760b11b6060830152516001600160a01b03909216917fb969d134776a7f04430dbbcac4e68734b1c6c5adcecbf68c3cbe6a9a4f2c8a1d9181900360800190a2505b6005546001600160a01b03161561225b5760005b6000838152600c6020526040902054811015612259576000838152600c602052604081208054839081106121f7576121f7612783565b600091825260209182902001546040518481526001600160a01b039091169250859183917f8e161a3174142f22dd7607c4a48f5199274e54b3838a9ff3a27528a2f1a60c1b910160405180910390a35080612251816125d3565b9150506121c1565b505b60405182907fc1fa7142cfb933d0855114a3bffde296944c30b727f297c14d0db4d553d3a5c790600090a25050565b60025460ff166109f857604051638dfc202b60e01b815260040160405180910390fd5b6000806000604084860312156122c257600080fd5b833567ffffffffffffffff808211156122da57600080fd5b818601915086601f8301126122ee57600080fd5b8135818111156122fd57600080fd5b87602082850101111561230f57600080fd5b6020928301989097509590910135949350505050565b60006020828403121561233757600080fd5b5035919050565b80356001600160a01b038116811461235557600080fd5b919050565b6000806040838503121561236d57600080fd5b8235915061237d6020840161233e565b90509250929050565b600081518084526020808501945080840160005b838110156123bf5781516001600160a01b03168752958201959082019060010161239a565b509495945050505050565b6020815260006123dd6020830184612386565b9392505050565b634e487b7160e01b600052602160045260246000fd5b6004811061241857634e487b7160e01b600052602160045260246000fd5b9052565b60006101408c8352602060018060a01b038d16818501528160408501528b518083860152600092505b80831015612464578c8301820151858401610160015291810191612445565b6101609250600083828701015282601f19601f83011686010193505050508860608301528760808301526124a360a08301886001600160a01b03169052565b6124b060c08301876123fa565b6001600160a01b03851660e0830152610100820193909352610120015298975050505050505050565b600081518084526020808501945080840160005b838110156123bf578151875295820195908201906001016124ed565b60608152600061251c6060830186612386565b828103602084015261252e81866124d9565b9050828103604084015261254281856124d9565b9695505050505050565b60008060006060848603121561256157600080fd5b61256a8461233e565b92506125786020850161233e565b91506125866040850161233e565b90509250925092565b6000602082840312156125a157600080fd5b6123dd8261233e565b6020815260006123dd60208301846124d9565b634e487b7160e01b600052601160045260246000fd5b6000600182016125e5576125e56125bd565b5060010190565b634e487b7160e01b600052604160045260246000fd5b600181811c9082168061261657607f821691505b60208210810361263657634e487b7160e01b600052602260045260246000fd5b50919050565b601f821115610e4d57600081815260208120601f850160051c810160208610156126635750805b601f850160051c820191505b818110156126825782815560010161266f565b505050505050565b815167ffffffffffffffff8111156126a4576126a46125ec565b6126b8816126b28454612602565b8461263c565b602080601f8311600181146126ed57600084156126d55750858301515b600019600386901b1c1916600185901b178555612682565b600085815260208120601f198616915b8281101561271c578886015182559484019460019091019084016126fd565b508582101561273a5787850151600019600388901b60f8161c191681555b5050505050600190811b01905550565b604081528260408201528284606083013760006060848301015260006060601f19601f8601168301019050826020830152949350505050565b634e487b7160e01b600052603260045260246000fd5b60208082526013908201527215185cdac8191bd95cc81b9bdd08195e1a5cdd606a1b604082015260600190565b6020808252601a908201527f5461736b206e6f7420696e2061737369676e6564207374617465000000000000604082015260600190565b60008261281a57634e487b7160e01b600052601260045260246000fd5b500490565b80820180821115610854576108546125bd565b81810381811115610854576108546125bd565b8082028115828204841417610854576108546125bd565b60006020828403121561286e57600080fd5b815180151581146123dd57600080fdfea264697066735822122033bc9467d02a936d7dd240db47978d2cbb340c37dc14d71fe0b8dd7a59561af164736f6c63430008140033",
  "immutableReferences": {},
  "source": "// SPDX-License-Identifier: MIT\npragma solidity ^0.8.20;\n\nimport \"@openzeppelin/contracts/access/Ownable.sol\";\nimport \"@openzeppelin/contracts/token/ERC20/IERC20.sol\";\nimport \"@openzeppelin/contracts/token/ERC721/IERC721.sol\";\nimport \"@openzeppelin/contracts/utils/ReentrancyGuard.sol\";\nimport \"@openzeppelin/contracts/utils/Pausable.sol\";\n\n/**\n * @title TrailMaintenance\n * @dev \n */\ncontract TrailMaintenance is Ownable, ReentrancyGuard, Pausable {\n    \n    // \n    uint256 private constant MAX_REWARD_RATE = 10; // 10%\n    uint256 private constant MIN_TIMELOCK = 1 days; // 1\n    \n    // \n    enum TaskStatus { Created, Assigned, Completed, Cancelled }\n    \n    // \n    struct Task {\n        uint256 id;\n        address issuer;\n        string description;\n        uint256 targetAmount;\n        uint256 currentAmount;\n        address assignee;\n        TaskStatus status;\n        address multiSigWallet;\n        uint256 createdAt;\n        uint256 completionTime; // \n    }\n    \n    // \n    struct Donation {\n        address donor;\n        uint256 amount;\n        uint256 timestamp;\n    }\n    \n    // \n    uint256 private _taskIds; \n    IERC20 public rewardToken;\n    address public nftToken;\n    address public multiSigFactory;\n    uint256 public donationRewardRate = 1; // 1% \n    uint256 public assigneeRewardAmount = 100 * 10**18; // 100 tokens\n    uint256 public timelock = 2 days; // 2\n    \n    // \n    mapping(uint256 => Task) private _tasks;\n    mapping(uint256 => Donation[]) private _donations;\n    mapping(uint256 => address[]) private _donorsList;\n    mapping(uint256 => mapping(address => bool)) private _hasDonated;\n    mapping(uint256 => mapping(address => bool)) private _approvals;\n    mapping(uint256 => uint256) private _approvalCounts;\n    mapping(address => uint256[]) private _userTasks; // \n    \n    // \n    event TaskCreated(uint256 indexed taskId, address indexed issuer, string description, uint256 targetAmount);\n    event TaskAssigned(uint256 indexed taskId, address indexed assignee);\n    event DonationReceived(uint256 indexed taskId, address indexed donor, uint256 amount);\n    event TokensRewarded(address indexed recipient, uint256 amount, string reason);\n    event NFTRewarded(address indexed recipient, uint256 tokenId, uint256 indexed taskId);\n    event TaskCompleted(uint256 indexed taskId);\n    event TaskCancelled(uint256 indexed taskId);\n    event FundsReleased(uint256 indexed taskId, address indexed recipient, uint256 amount);\n    event FundsRefunded(uint256 indexed taskId, address indexed donor, uint256 amount);\n    event MultiSigCreated(uint256 indexed taskId, address indexed multiSigWallet);\n    event CompletionRequested(uint256 indexed taskId, uint256 unlockTime);\n    \n    /**\n     * @dev \n     * @param _rewardToken \n     * @param _nftToken NFT\n     * @param _multiSigFactory \n     */\n    constructor(\n        address _rewardToken,\n        address _nftToken,\n        address _multiSigFactory\n    ) Ownable(msg.sender) {\n        rewardToken = IERC20(_rewardToken);\n        nftToken = _nftToken;\n        multiSigFactory = _multiSigFactory;\n    }\n    \n    /**\n     * @dev \n     */\n    function pause() external onlyOwner {\n        _pause();\n    }\n    \n    /**\n     * @dev \n     */\n    function unpause() external onlyOwner {\n        _unpause();\n    }\n    \n    /**\n     * @dev \n     * @param _description \n     * @param _targetAmount  (0)\n     * @return ID\n     */\n    function createTask(string calldata _description, uint256 _targetAmount) external whenNotPaused returns (uint256) {\n        _taskIds++; \n        uint256 taskId = _taskIds;\n        \n        _tasks[taskId] = Task({\n            id: taskId,\n            issuer: msg.sender,\n            description: _description,\n            targetAmount: _targetAmount,\n            currentAmount: 0,\n            assignee: address(0),\n            status: TaskStatus.Created,\n            multiSigWallet: address(0),\n            createdAt: block.timestamp,\n            completionTime: 0\n        });\n        \n        // ID\n        _userTasks[msg.sender].push(taskId);\n        \n        emit TaskCreated(taskId, msg.sender, _description, _targetAmount);\n        \n        return taskId;\n    }\n    \n    /**\n     * @dev \n     * @param _taskId ID\n     */\n    function assignTask(uint256 _taskId) external whenNotPaused {\n        Task storage task = _tasks[_taskId];\n        \n        require(task.id != 0, \"Task does not exist\");\n        require(task.status == TaskStatus.Created, \"Task cannot be assigned\");\n        require(task.assignee == address(0), \"Task already assigned\");\n        require(msg.sender != task.issuer, \"Issuer cannot be assignee\");\n        \n        task.assignee = msg.sender;\n        task.status = TaskStatus.Assigned;\n        \n        // ID\n        _userTasks[msg.sender].push(_taskId);\n        \n        emit TaskAssigned(_taskId, msg.sender);\n    }\n    \n    /**\n     * @dev \n     * @param _taskId ID\n     */\n    function donate(uint256 _taskId) external payable nonReentrant whenNotPaused {\n        Task storage task = _tasks[_taskId];\n        \n        require(task.id != 0, \"Task does not exist\");\n        require(task.status == TaskStatus.Created || task.status == TaskStatus.Assigned, \"Task cannot receive donations\");\n        require(msg.value > 0, \"Donation amount must be greater than 0\");\n        \n        // \n        if (task.targetAmount > 0) {\n            require(task.currentAmount + msg.value <= task.targetAmount, \"Exceeds target amount\");\n        }\n        \n        // \n        _donations[_taskId].push(Donation({\n            donor: msg.sender,\n            amount: msg.value,\n            timestamp: block.timestamp\n        }));\n        \n        // \n        if (!_hasDonated[_taskId][msg.sender]) {\n            _donorsList[_taskId].push(msg.sender);\n            _hasDonated[_taskId][msg.sender] = true;\n        }\n        \n        // \n        task.currentAmount += msg.value;\n        \n        // \n        if (task.multiSigWallet != address(0)) {\n            (bool success, ) = task.multiSigWallet.call{value: msg.value}(\"\");\n            require(success, \"Failed to forward funds to multisig\");\n        }\n        \n        // \n        uint256 rewardAmount = (msg.value * donationRewardRate) / 100;\n        if (rewardAmount > 0 && address(rewardToken) != address(0)) {\n            bool success = rewardToken.transfer(msg.sender, rewardAmount);\n            require(success, \"Reward token transfer failed\");\n            emit TokensRewarded(msg.sender, rewardAmount, \"donation\");\n        }\n        \n        emit DonationReceived(_taskId, msg.sender, msg.value);\n    }\n    \n    /**\n     * @dev \n     * @param _taskId ID\n     * @param _multiSigWallet \n     */\n    function setMultiSigWallet(uint256 _taskId, address _multiSigWallet) external whenNotPaused {\n        Task storage task = _tasks[_taskId];\n        \n        require(task.id != 0, \"Task does not exist\");\n        require(msg.sender == task.issuer, \"Only issuer can set multisig\");\n        require(task.multiSigWallet == address(0), \"Multisig already set\");\n        require(_multiSigWallet != address(0), \"Invalid multisig address\");\n        \n        task.multiSigWallet = _multiSigWallet;\n        \n        // \n        if (task.currentAmount > 0) {\n            (bool success, ) = _multiSigWallet.call{value: task.currentAmount}(\"\");\n            require(success, \"Failed to transfer funds to multisig\");\n        }\n        \n        emit MultiSigCreated(_taskId, _multiSigWallet);\n    }\n    \n    /**\n     * @dev \n     * @param _taskId ID\n     */\n    function requestCompletion(uint256 _taskId) external whenNotPaused {\n        Task storage task = _tasks[_taskId];\n        \n        require(task.id != 0, \"Task does not exist\");\n        require(task.status == TaskStatus.Assigned, \"Task not in assigned state\");\n        require(msg.sender == task.assignee, \"Only assignee can request completion\");\n        require(task.completionTime == 0, \"Completion already requested\");\n        \n        // +\n        task.completionTime = block.timestamp + timelock;\n        \n        emit CompletionRequested(_taskId, task.completionTime);\n    }\n    \n    /**\n     * @dev \n     * @param _taskId ID\n     */\n    function approveCompletion(uint256 _taskId) external whenNotPaused {\n        Task storage task = _tasks[_taskId];\n        \n        require(task.id != 0, \"Task does not exist\");\n        require(task.status == TaskStatus.Assigned, \"Task not in assigned state\");\n        require(task.completionTime > 0 && block.timestamp >= task.completionTime, \"Time lock not expired\");\n        require(msg.sender == task.issuer || _hasDonated[_taskId][msg.sender], \"Not authorized to approve\");\n        require(!_approvals[_taskId][msg.sender], \"Already approved\");\n        \n        _approvals[_taskId][msg.sender] = true;\n        _approvalCounts[_taskId]++;\n        \n        // \n        uint256 requiredApprovals = (_donorsList[_taskId].length / 2) + 1;\n        \n        // -1\n        if (_approvals[_taskId][task.issuer]) {\n            requiredApprovals = requiredApprovals > 1 ? requiredApprovals - 1 : 1;\n        }\n        \n        if (_approvalCounts[_taskId] >= requiredApprovals) {\n            _completeTask(_taskId);\n        }\n    }\n    \n    /**\n     * @dev  ()\n     * @param _taskId ID\n     */\n    function _completeTask(uint256 _taskId) internal {\n        Task storage task = _tasks[_taskId];\n        \n        require(task.status == TaskStatus.Assigned, \"Task not in assigned state\");\n        \n        task.status = TaskStatus.Completed;\n        \n        // \n        if (task.multiSigWallet == address(0) && task.currentAmount > 0) {\n            (bool success, ) = task.assignee.call{value: task.currentAmount}(\"\");\n            require(success, \"Failed to send funds to assignee\");\n            emit FundsReleased(_taskId, task.assignee, task.currentAmount);\n        }\n        \n        // \n        if (address(rewardToken) != address(0)) {\n            bool success = rewardToken.transfer(task.assignee, assigneeRewardAmount);\n            require(success, \"Assignee reward token transfer failed\");\n            emit TokensRewarded(task.assignee, assigneeRewardAmount, \"completion\");\n        }\n        \n        // NFT (NFT)\n        if (nftToken != address(0)) {\n            // NFTNFT\n            // NFT\n            for (uint256 i = 0; i < _donorsList[_taskId].length; i++) {\n                address donor = _donorsList[_taskId][i];\n                // NFT\n                emit NFTRewarded(donor, i, _taskId);\n            }\n        }\n        \n        emit TaskCompleted(_taskId);\n    }\n    \n    /**\n     * @dev \n     * @param _taskId ID\n     */\n    function cancelTask(uint256 _taskId) external nonReentrant whenNotPaused {\n        Task storage task = _tasks[_taskId];\n        \n        require(task.id != 0, \"Task does not exist\");\n        require(msg.sender == task.issuer, \"Only issuer can cancel\");\n        require(task.status == TaskStatus.Created || task.status == TaskStatus.Assigned, \"Task cannot be cancelled\");\n        \n        task.status = TaskStatus.Cancelled;\n        \n        // \n        if (task.multiSigWallet == address(0) && task.currentAmount > 0) {\n            _refundDonations(_taskId);\n        }\n        \n        emit TaskCancelled(_taskId);\n    }\n    \n    /**\n     * @dev  ()\n     * @param _taskId ID\n     */\n    function _refundDonations(uint256 _taskId) internal {\n        Donation[] storage taskDonations = _donations[_taskId];\n        \n        for (uint256 i = 0; i < taskDonations.length; i++) {\n            Donation storage donation = taskDonations[i];\n            \n            if (donation.amount > 0) {\n                address donor = donation.donor;\n                uint256 amount = donation.amount;\n                \n                // 0\n                donation.amount = 0;\n                \n                (bool success, ) = donor.call{value: amount}(\"\");\n                if (success) {\n                    emit FundsRefunded(_taskId, donor, amount);\n                }\n            }\n        }\n    }\n    \n    /**\n     * @dev \n     * @param _rate  ()\n     */\n    function setDonationRewardRate(uint256 _rate) external onlyOwner {\n        require(_rate <= MAX_REWARD_RATE, \"Rate cannot exceed max\");\n        donationRewardRate = _rate;\n    }\n    \n    /**\n     * @dev \n     * @param _amount \n     */\n    function setAssigneeRewardAmount(uint256 _amount) external onlyOwner {\n        assigneeRewardAmount = _amount;\n    }\n    \n    /**\n     * @dev \n     * @param _timelock \n     */\n    function setTimelock(uint256 _timelock) external onlyOwner {\n        require(_timelock >= MIN_TIMELOCK, \"Timelock too short\");\n        timelock = _timelock;\n    }\n    \n    /**\n     * @dev \n     * @param _rewardToken \n     * @param _nftToken NFT\n     * @param _multiSigFactory \n     */\n    function setContractAddresses(\n        address _rewardToken,\n        address _nftToken,\n        address _multiSigFactory\n    ) external onlyOwner {\n        if (_rewardToken != address(0)) rewardToken = IERC20(_rewardToken);\n        if (_nftToken != address(0)) nftToken = _nftToken;\n        if (_multiSigFactory != address(0)) multiSigFactory = _multiSigFactory;\n    }\n    \n    /**\n     * @dev \n     * @param _taskId ID\n     */\n    function getTaskDetails(uint256 _taskId) external view returns (\n        uint256 id,\n        address issuer,\n        string memory description,\n        uint256 targetAmount,\n        uint256 currentAmount,\n        address assignee,\n        TaskStatus status,\n        address multiSigWallet,\n        uint256 createdAt,\n        uint256 completionTime\n    ) {\n        Task storage task = _tasks[_taskId];\n        return (\n            task.id,\n            task.issuer,\n            task.description,\n            task.targetAmount,\n            task.currentAmount,\n            task.assignee,\n            task.status,\n            task.multiSigWallet,\n            task.createdAt,\n            task.completionTime\n        );\n    }\n    \n    /**\n     * @dev \n     * @param _taskId ID\n     */\n    function getDonations(uint256 _taskId) external view returns (\n        address[] memory donors,\n        uint256[] memory amounts,\n        uint256[] memory timestamps\n    ) {\n        Donation[] storage taskDonations = _donations[_taskId];\n        uint256 count = taskDonations.length;\n        \n        donors = new address[](count);\n        amounts = new uint256[](count);\n        timestamps = new uint256[](count);\n        \n        for (uint256 i = 0; i < count; i++) {\n            donors[i] = taskDonations[i].donor;\n            amounts[i] = taskDonations[i].amount;\n            timestamps[i] = taskDonations[i].timestamp;\n        }\n        \n        return (donors, amounts, timestamps);\n    }\n    \n    /**\n     * @dev \n     * @param _taskId ID\n     */\n    function getDonors(uint256 _taskId) external view returns (address[] memory) {\n        return _donorsList[_taskId];\n    }\n    \n    /**\n     * @dev \n     * @param _user \n     */\n    function getUserTasks(address _user) external view returns (uint256[] memory) {\n        return _userTasks[_user];\n    }\n    \n    /**\n     * @dev \n     */\n    function getTaskCount() external view returns (uint256) {\n        return _taskIds; //  _taskIds.current()\n    }\n    \n    /**\n     * @dev \n     * @param _taskId ID\n     * @param _user \n     */\n    function hasApproved(uint256 _taskId, address _user) external view returns (bool) {\n        return _approvals[_taskId][_user];\n    }\n    \n    /**\n     * @dev \n     * @param _taskId ID\n     */\n    function getApprovalCount(uint256 _taskId) external view returns (uint256) {\n        return _approvalCounts[_taskId];\n    }\n    \n    /**\n     * @dev ETH\n     */\n    receive() external payable {\n        // ETH\n    }\n}",
  "sourcePath": "/Users/yosgi/freelancer/Volunteers3/contracts/contracts/TrailMaintenance.sol",
  "compiler": {
    "name": "solc",
    "version": "0.8.20+commit.a1b79de6.Emscripten.clang"
  },
  "schemaVersion": "3.4.16",
  "updatedAt": "2025-03-22T06:30:24.942Z",
  "devdoc": {
    "details": "",
    "errors": {
      "EnforcedPause()": [
        {
          "details": "The operation failed because the contract is paused."
        }
      ],
      "ExpectedPause()": [
        {
          "details": "The operation failed because the contract is not paused."
        }
      ],
      "OwnableInvalidOwner(address)": [
        {
          "details": "The owner is not a valid owner account. (eg. `address(0)`)"
        }
      ],
      "OwnableUnauthorizedAccount(address)": [
        {
          "details": "The caller account is not authorized to perform an operation."
        }
      ],
      "ReentrancyGuardReentrantCall()": [
        {
          "details": "Unauthorized reentrant call."
        }
      ]
    },
    "events": {
      "Paused(address)": {
        "details": "Emitted when the pause is triggered by `account`."
      },
      "Unpaused(address)": {
        "details": "Emitted when the pause is lifted by `account`."
      }
    },
    "kind": "dev",
    "methods": {
      "approveCompletion(uint256)": {
        "details": "",
        "params": {
          "_taskId": "ID"
        }
      },
      "assignTask(uint256)": {
        "details": "",
        "params": {
          "_taskId": "ID"
        }
      },
      "cancelTask(uint256)": {
        "details": "",
        "params": {
          "_taskId": "ID"
        }
      },
      "constructor": {
        "details": "",
        "params": {
          "_multiSigFactory": "",
          "_nftToken": "NFT",
          "_rewardToken": ""
        }
      },
      "createTask(string,uint256)": {
        "details": "",
        "params": {
          "_description": "",
          "_targetAmount": " (0)"
        },
        "returns": {
          "_0": "ID"
        }
      },
      "donate(uint256)": {
        "details": "",
        "params": {
          "_taskId": "ID"
        }
      },
      "getApprovalCount(uint256)": {
        "details": "",
        "params": {
          "_taskId": "ID"
        }
      },
      "getDonations(uint256)": {
        "details": "",
        "params": {
          "_taskId": "ID"
        }
      },
      "getDonors(uint256)": {
        "details": "",
        "params": {
          "_taskId": "ID"
        }
      },
      "getTaskCount()": {
        "details": ""
      },
      "getTaskDetails(uint256)": {
        "details": "",
        "params": {
          "_taskId": "ID"
        }
      },
      "getUserTasks(address)": {
        "details": "",
        "params": {
          "_user": ""
        }
      },
      "hasApproved(uint256,address)": {
        "details": "",
        "params": {
          "_taskId": "ID",
          "_user": ""
        }
      },
      "owner()": {
        "details": "Returns the address of the current owner."
      },
      "pause()": {
        "details": ""
      },
      "paused()": {
        "details": "Returns true if the contract is paused, and false otherwise."
      },
      "renounceOwnership()": {
        "details": "Leaves the contract without owner. It will not be possible to call `onlyOwner` functions. Can only be called by the current owner. NOTE: Renouncing ownership will leave the contract without an owner, thereby disabling any functionality that is only available to the owner."
      },
      "requestCompletion(uint256)": {
        "details": "",
        "params": {
          "_taskId": "ID"
        }
      },
      "setAssigneeRewardAmount(uint256)": {
        "details": "",
        "params": {
          "_amount": ""
        }
      },
      "setContractAddresses(address,address,address)": {
        "details": "",
        "params": {
          "_multiSigFactory": "",
          "_nftToken": "NFT",
          "_rewardToken": ""
        }
      },
      "setDonationRewardRate(uint256)": {
        "details": "",
        "params": {
          "_rate": " ()"
        }
      },
      "setMultiSigWallet(uint256,address)": {
        "details": "",
        "params": {
          "_multiSigWallet": "",
          "_taskId": "ID"
        }
      },
      "setTimelock(uint256)": {
        "details": "",
        "params": {
          "_timelock": ""
        }
      },
      "transferOwnership(address)": {
        "details": "Transfers ownership of the contract to a new account (`newOwner`). Can only be called by the current owner."
      },
      "unpause()": {
        "details": ""
      }
    },
    "title": "TrailMaintenance",
    "version": 1
  },
  "userdoc": {
    "kind": "user",
    "methods": {},
    "version": 1
  }
}