{
  "contractName": "TrailMaintenance",
  "abi": [
    {
      "inputs": [
        {
          "internalType": "address",
          "name": "_rewardToken",
          "type": "address"
        },
        {
          "internalType": "address",
          "name": "_nftToken",
          "type": "address"
        },
        {
          "internalType": "address",
          "name": "_multiSigFactory",
          "type": "address"
        }
      ],
      "stateMutability": "nonpayable",
      "type": "constructor"
    },
    {
      "inputs": [],
      "name": "EnforcedPause",
      "type": "error"
    },
    {
      "inputs": [],
      "name": "ExpectedPause",
      "type": "error"
    },
    {
      "inputs": [
        {
          "internalType": "address",
          "name": "owner",
          "type": "address"
        }
      ],
      "name": "OwnableInvalidOwner",
      "type": "error"
    },
    {
      "inputs": [
        {
          "internalType": "address",
          "name": "account",
          "type": "address"
        }
      ],
      "name": "OwnableUnauthorizedAccount",
      "type": "error"
    },
    {
      "inputs": [],
      "name": "ReentrancyGuardReentrantCall",
      "type": "error"
    },
    {
      "anonymous": false,
      "inputs": [
        {
          "indexed": true,
          "internalType": "uint256",
          "name": "taskId",
          "type": "uint256"
        },
        {
          "indexed": false,
          "internalType": "uint256",
          "name": "unlockTime",
          "type": "uint256"
        }
      ],
      "name": "CompletionRequested",
      "type": "event"
    },
    {
      "anonymous": false,
      "inputs": [
        {
          "indexed": true,
          "internalType": "uint256",
          "name": "taskId",
          "type": "uint256"
        },
        {
          "indexed": true,
          "internalType": "address",
          "name": "donor",
          "type": "address"
        },
        {
          "indexed": false,
          "internalType": "uint256",
          "name": "amount",
          "type": "uint256"
        }
      ],
      "name": "DonationReceived",
      "type": "event"
    },
    {
      "anonymous": false,
      "inputs": [
        {
          "indexed": true,
          "internalType": "uint256",
          "name": "taskId",
          "type": "uint256"
        },
        {
          "indexed": true,
          "internalType": "address",
          "name": "donor",
          "type": "address"
        },
        {
          "indexed": false,
          "internalType": "uint256",
          "name": "amount",
          "type": "uint256"
        }
      ],
      "name": "FundsRefunded",
      "type": "event"
    },
    {
      "anonymous": false,
      "inputs": [
        {
          "indexed": true,
          "internalType": "uint256",
          "name": "taskId",
          "type": "uint256"
        },
        {
          "indexed": true,
          "internalType": "address",
          "name": "recipient",
          "type": "address"
        },
        {
          "indexed": false,
          "internalType": "uint256",
          "name": "amount",
          "type": "uint256"
        }
      ],
      "name": "FundsReleased",
      "type": "event"
    },
    {
      "anonymous": false,
      "inputs": [
        {
          "indexed": true,
          "internalType": "uint256",
          "name": "taskId",
          "type": "uint256"
        },
        {
          "indexed": true,
          "internalType": "address",
          "name": "multiSigWallet",
          "type": "address"
        }
      ],
      "name": "MultiSigCreated",
      "type": "event"
    },
    {
      "anonymous": false,
      "inputs": [
        {
          "indexed": true,
          "internalType": "address",
          "name": "recipient",
          "type": "address"
        },
        {
          "indexed": false,
          "internalType": "uint256",
          "name": "tokenId",
          "type": "uint256"
        },
        {
          "indexed": true,
          "internalType": "uint256",
          "name": "taskId",
          "type": "uint256"
        }
      ],
      "name": "NFTRewarded",
      "type": "event"
    },
    {
      "anonymous": false,
      "inputs": [
        {
          "indexed": true,
          "internalType": "address",
          "name": "previousOwner",
          "type": "address"
        },
        {
          "indexed": true,
          "internalType": "address",
          "name": "newOwner",
          "type": "address"
        }
      ],
      "name": "OwnershipTransferred",
      "type": "event"
    },
    {
      "anonymous": false,
      "inputs": [
        {
          "indexed": false,
          "internalType": "address",
          "name": "account",
          "type": "address"
        }
      ],
      "name": "Paused",
      "type": "event"
    },
    {
      "anonymous": false,
      "inputs": [
        {
          "indexed": true,
          "internalType": "uint256",
          "name": "taskId",
          "type": "uint256"
        },
        {
          "indexed": true,
          "internalType": "address",
          "name": "assignee",
          "type": "address"
        }
      ],
      "name": "TaskAssigned",
      "type": "event"
    },
    {
      "anonymous": false,
      "inputs": [
        {
          "indexed": true,
          "internalType": "uint256",
          "name": "taskId",
          "type": "uint256"
        }
      ],
      "name": "TaskCancelled",
      "type": "event"
    },
    {
      "anonymous": false,
      "inputs": [
        {
          "indexed": true,
          "internalType": "uint256",
          "name": "taskId",
          "type": "uint256"
        }
      ],
      "name": "TaskCompleted",
      "type": "event"
    },
    {
      "anonymous": false,
      "inputs": [
        {
          "indexed": true,
          "internalType": "uint256",
          "name": "taskId",
          "type": "uint256"
        },
        {
          "indexed": true,
          "internalType": "address",
          "name": "issuer",
          "type": "address"
        },
        {
          "indexed": false,
          "internalType": "string",
          "name": "description",
          "type": "string"
        },
        {
          "indexed": false,
          "internalType": "uint256",
          "name": "targetAmount",
          "type": "uint256"
        }
      ],
      "name": "TaskCreated",
      "type": "event"
    },
    {
      "anonymous": false,
      "inputs": [
        {
          "indexed": true,
          "internalType": "address",
          "name": "recipient",
          "type": "address"
        },
        {
          "indexed": false,
          "internalType": "uint256",
          "name": "amount",
          "type": "uint256"
        },
        {
          "indexed": false,
          "internalType": "string",
          "name": "reason",
          "type": "string"
        }
      ],
      "name": "TokensRewarded",
      "type": "event"
    },
    {
      "anonymous": false,
      "inputs": [
        {
          "indexed": false,
          "internalType": "address",
          "name": "account",
          "type": "address"
        }
      ],
      "name": "Unpaused",
      "type": "event"
    },
    {
      "inputs": [],
      "name": "assigneeRewardAmount",
      "outputs": [
        {
          "internalType": "uint256",
          "name": "",
          "type": "uint256"
        }
      ],
      "stateMutability": "view",
      "type": "function",
      "constant": true
    },
    {
      "inputs": [],
      "name": "donationRewardRate",
      "outputs": [
        {
          "internalType": "uint256",
          "name": "",
          "type": "uint256"
        }
      ],
      "stateMutability": "view",
      "type": "function",
      "constant": true
    },
    {
      "inputs": [],
      "name": "multiSigFactory",
      "outputs": [
        {
          "internalType": "address",
          "name": "",
          "type": "address"
        }
      ],
      "stateMutability": "view",
      "type": "function",
      "constant": true
    },
    {
      "inputs": [],
      "name": "nftToken",
      "outputs": [
        {
          "internalType": "address",
          "name": "",
          "type": "address"
        }
      ],
      "stateMutability": "view",
      "type": "function",
      "constant": true
    },
    {
      "inputs": [],
      "name": "owner",
      "outputs": [
        {
          "internalType": "address",
          "name": "",
          "type": "address"
        }
      ],
      "stateMutability": "view",
      "type": "function",
      "constant": true
    },
    {
      "inputs": [],
      "name": "paused",
      "outputs": [
        {
          "internalType": "bool",
          "name": "",
          "type": "bool"
        }
      ],
      "stateMutability": "view",
      "type": "function",
      "constant": true
    },
    {
      "inputs": [],
      "name": "renounceOwnership",
      "outputs": [],
      "stateMutability": "nonpayable",
      "type": "function"
    },
    {
      "inputs": [],
      "name": "rewardToken",
      "outputs": [
        {
          "internalType": "contract IERC20",
          "name": "",
          "type": "address"
        }
      ],
      "stateMutability": "view",
      "type": "function",
      "constant": true
    },
    {
      "inputs": [],
      "name": "timelock",
      "outputs": [
        {
          "internalType": "uint256",
          "name": "",
          "type": "uint256"
        }
      ],
      "stateMutability": "view",
      "type": "function",
      "constant": true
    },
    {
      "inputs": [
        {
          "internalType": "address",
          "name": "newOwner",
          "type": "address"
        }
      ],
      "name": "transferOwnership",
      "outputs": [],
      "stateMutability": "nonpayable",
      "type": "function"
    },
    {
      "stateMutability": "payable",
      "type": "receive",
      "payable": true
    },
    {
      "inputs": [],
      "name": "pause",
      "outputs": [],
      "stateMutability": "nonpayable",
      "type": "function"
    },
    {
      "inputs": [],
      "name": "unpause",
      "outputs": [],
      "stateMutability": "nonpayable",
      "type": "function"
    },
    {
      "inputs": [
        {
          "internalType": "uint256",
          "name": "_taskId",
          "type": "uint256"
        },
        {
          "internalType": "string",
          "name": "_description",
          "type": "string"
        },
        {
          "internalType": "uint256",
          "name": "_targetAmount",
          "type": "uint256"
        }
      ],
      "name": "createTask",
      "outputs": [
        {
          "internalType": "uint256",
          "name": "",
          "type": "uint256"
        }
      ],
      "stateMutability": "nonpayable",
      "type": "function"
    },
    {
      "inputs": [
        {
          "internalType": "uint256",
          "name": "_taskId",
          "type": "uint256"
        }
      ],
      "name": "assignTask",
      "outputs": [],
      "stateMutability": "nonpayable",
      "type": "function"
    },
    {
      "inputs": [
        {
          "internalType": "uint256",
          "name": "_taskId",
          "type": "uint256"
        }
      ],
      "name": "donate",
      "outputs": [],
      "stateMutability": "payable",
      "type": "function",
      "payable": true
    },
    {
      "inputs": [
        {
          "internalType": "uint256",
          "name": "_taskId",
          "type": "uint256"
        },
        {
          "internalType": "address",
          "name": "_multiSigWallet",
          "type": "address"
        }
      ],
      "name": "setMultiSigWallet",
      "outputs": [],
      "stateMutability": "nonpayable",
      "type": "function"
    },
    {
      "inputs": [
        {
          "internalType": "uint256",
          "name": "_taskId",
          "type": "uint256"
        }
      ],
      "name": "requestCompletion",
      "outputs": [],
      "stateMutability": "nonpayable",
      "type": "function"
    },
    {
      "inputs": [
        {
          "internalType": "uint256",
          "name": "_taskId",
          "type": "uint256"
        }
      ],
      "name": "approveCompletion",
      "outputs": [],
      "stateMutability": "nonpayable",
      "type": "function"
    },
    {
      "inputs": [
        {
          "internalType": "uint256",
          "name": "_taskId",
          "type": "uint256"
        }
      ],
      "name": "cancelTask",
      "outputs": [],
      "stateMutability": "nonpayable",
      "type": "function"
    },
    {
      "inputs": [
        {
          "internalType": "uint256",
          "name": "_rate",
          "type": "uint256"
        }
      ],
      "name": "setDonationRewardRate",
      "outputs": [],
      "stateMutability": "nonpayable",
      "type": "function"
    },
    {
      "inputs": [
        {
          "internalType": "uint256",
          "name": "_amount",
          "type": "uint256"
        }
      ],
      "name": "setAssigneeRewardAmount",
      "outputs": [],
      "stateMutability": "nonpayable",
      "type": "function"
    },
    {
      "inputs": [
        {
          "internalType": "uint256",
          "name": "_timelock",
          "type": "uint256"
        }
      ],
      "name": "setTimelock",
      "outputs": [],
      "stateMutability": "nonpayable",
      "type": "function"
    },
    {
      "inputs": [
        {
          "internalType": "address",
          "name": "_rewardToken",
          "type": "address"
        },
        {
          "internalType": "address",
          "name": "_nftToken",
          "type": "address"
        },
        {
          "internalType": "address",
          "name": "_multiSigFactory",
          "type": "address"
        }
      ],
      "name": "setContractAddresses",
      "outputs": [],
      "stateMutability": "nonpayable",
      "type": "function"
    },
    {
      "inputs": [
        {
          "internalType": "uint256",
          "name": "_taskId",
          "type": "uint256"
        }
      ],
      "name": "getTaskDetails",
      "outputs": [
        {
          "internalType": "uint256",
          "name": "id",
          "type": "uint256"
        },
        {
          "internalType": "address",
          "name": "issuer",
          "type": "address"
        },
        {
          "internalType": "string",
          "name": "description",
          "type": "string"
        },
        {
          "internalType": "uint256",
          "name": "targetAmount",
          "type": "uint256"
        },
        {
          "internalType": "uint256",
          "name": "currentAmount",
          "type": "uint256"
        },
        {
          "internalType": "address",
          "name": "assignee",
          "type": "address"
        },
        {
          "internalType": "enum TrailMaintenance.TaskStatus",
          "name": "status",
          "type": "uint8"
        },
        {
          "internalType": "address",
          "name": "multiSigWallet",
          "type": "address"
        },
        {
          "internalType": "uint256",
          "name": "createdAt",
          "type": "uint256"
        },
        {
          "internalType": "uint256",
          "name": "completionTime",
          "type": "uint256"
        }
      ],
      "stateMutability": "view",
      "type": "function",
      "constant": true
    },
    {
      "inputs": [
        {
          "internalType": "uint256",
          "name": "_taskId",
          "type": "uint256"
        }
      ],
      "name": "getDonations",
      "outputs": [
        {
          "internalType": "address[]",
          "name": "donors",
          "type": "address[]"
        },
        {
          "internalType": "uint256[]",
          "name": "amounts",
          "type": "uint256[]"
        },
        {
          "internalType": "uint256[]",
          "name": "timestamps",
          "type": "uint256[]"
        }
      ],
      "stateMutability": "view",
      "type": "function",
      "constant": true
    },
    {
      "inputs": [
        {
          "internalType": "uint256",
          "name": "_taskId",
          "type": "uint256"
        }
      ],
      "name": "getDonors",
      "outputs": [
        {
          "internalType": "address[]",
          "name": "",
          "type": "address[]"
        }
      ],
      "stateMutability": "view",
      "type": "function",
      "constant": true
    },
    {
      "inputs": [
        {
          "internalType": "address",
          "name": "_user",
          "type": "address"
        }
      ],
      "name": "getUserTasks",
      "outputs": [
        {
          "internalType": "uint256[]",
          "name": "",
          "type": "uint256[]"
        }
      ],
      "stateMutability": "view",
      "type": "function",
      "constant": true
    },
    {
      "inputs": [],
      "name": "getTaskCount",
      "outputs": [
        {
          "internalType": "uint256",
          "name": "",
          "type": "uint256"
        }
      ],
      "stateMutability": "view",
      "type": "function",
      "constant": true
    },
    {
      "inputs": [
        {
          "internalType": "uint256",
          "name": "_taskId",
          "type": "uint256"
        }
      ],
      "name": "taskExists",
      "outputs": [
        {
          "internalType": "bool",
          "name": "",
          "type": "bool"
        }
      ],
      "stateMutability": "view",
      "type": "function",
      "constant": true
    },
    {
      "inputs": [
        {
          "internalType": "uint256",
          "name": "_taskId",
          "type": "uint256"
        },
        {
          "internalType": "address",
          "name": "_user",
          "type": "address"
        }
      ],
      "name": "hasApproved",
      "outputs": [
        {
          "internalType": "bool",
          "name": "",
          "type": "bool"
        }
      ],
      "stateMutability": "view",
      "type": "function",
      "constant": true
    },
    {
      "inputs": [
        {
          "internalType": "uint256",
          "name": "_taskId",
          "type": "uint256"
        }
      ],
      "name": "getApprovalCount",
      "outputs": [
        {
          "internalType": "uint256",
          "name": "",
          "type": "uint256"
        }
      ],
      "stateMutability": "view",
      "type": "function",
      "constant": true
    },
    {
      "inputs": [],
      "name": "getTotalFundBalance",
      "outputs": [
        {
          "internalType": "uint256",
          "name": "",
          "type": "uint256"
        }
      ],
      "stateMutability": "view",
      "type": "function",
      "constant": true
    },
    {
      "inputs": [],
      "name": "getAllocatedFunds",
      "outputs": [
        {
          "internalType": "uint256",
          "name": "",
          "type": "uint256"
        }
      ],
      "stateMutability": "view",
      "type": "function",
      "constant": true
    },
    {
      "inputs": [],
      "name": "getAvailableFunds",
      "outputs": [
        {
          "internalType": "uint256",
          "name": "",
          "type": "uint256"
        }
      ],
      "stateMutability": "view",
      "type": "function",
      "constant": true
    },
    {
      "inputs": [],
      "name": "getTotalContributors",
      "outputs": [
        {
          "internalType": "uint256",
          "name": "",
          "type": "uint256"
        }
      ],
      "stateMutability": "view",
      "type": "function",
      "constant": true
    },
    {
      "inputs": [
        {
          "internalType": "address",
          "name": "_user",
          "type": "address"
        }
      ],
      "name": "getUserTokenBalance",
      "outputs": [
        {
          "internalType": "uint256",
          "name": "",
          "type": "uint256"
        }
      ],
      "stateMutability": "view",
      "type": "function",
      "constant": true
    },
    {
      "inputs": [
        {
          "internalType": "address",
          "name": "_user",
          "type": "address"
        }
      ],
      "name": "getUserDonationRewards",
      "outputs": [
        {
          "internalType": "uint256",
          "name": "",
          "type": "uint256"
        }
      ],
      "stateMutability": "view",
      "type": "function",
      "constant": true
    },
    {
      "inputs": [
        {
          "internalType": "address",
          "name": "_user",
          "type": "address"
        }
      ],
      "name": "getUserCompletionRewards",
      "outputs": [
        {
          "internalType": "uint256",
          "name": "",
          "type": "uint256"
        }
      ],
      "stateMutability": "view",
      "type": "function",
      "constant": true
    },
    {
      "inputs": [
        {
          "internalType": "address",
          "name": "_user",
          "type": "address"
        }
      ],
      "name": "getUserTokenRewards",
      "outputs": [
        {
          "internalType": "uint256[]",
          "name": "amounts",
          "type": "uint256[]"
        },
        {
          "internalType": "string[]",
          "name": "reasons",
          "type": "string[]"
        },
        {
          "internalType": "uint256[]",
          "name": "timestamps",
          "type": "uint256[]"
        }
      ],
      "stateMutability": "view",
      "type": "function",
      "constant": true
    },
    {
      "inputs": [
        {
          "internalType": "address",
          "name": "_user",
          "type": "address"
        }
      ],
      "name": "getUserNFTRewards",
      "outputs": [
        {
          "internalType": "uint256[]",
          "name": "taskIds",
          "type": "uint256[]"
        },
        {
          "internalType": "uint256[]",
          "name": "tokenIds",
          "type": "uint256[]"
        },
        {
          "internalType": "uint256[]",
          "name": "timestamps",
          "type": "uint256[]"
        }
      ],
      "stateMutability": "view",
      "type": "function",
      "constant": true
    },
    {
      "inputs": [
        {
          "internalType": "address",
          "name": "_user",
          "type": "address"
        }
      ],
      "name": "getUserNFTBalance",
      "outputs": [
        {
          "internalType": "uint256",
          "name": "",
          "type": "uint256"
        }
      ],
      "stateMutability": "view",
      "type": "function",
      "constant": true
    }
  ],
  "bytecode": "0x6080604052620f424060085568056bc75e2d631000006009556202a300600a553480156200002c57600080fd5b50604051620031d6380380620031d68339810160408190526200004f9162000140565b33806200007657604051631e4fbdf760e01b81526000600482015260240160405180910390fd5b6200008181620000d3565b50600180556002805460ff19169055600580546001600160a01b039485166001600160a01b0319918216179091556006805493851693821693909317909255600780549190931691161790556200018a565b600080546001600160a01b038381166001600160a01b0319831681178455604051919092169283917f8be0079c531659141344cd1fd0a4f28419497f9722a3daafe3b4186f6b6457e09190a35050565b80516001600160a01b03811681146200013b57600080fd5b919050565b6000806000606084860312156200015657600080fd5b620001618462000123565b9250620001716020850162000123565b9150620001816040850162000123565b90509250925092565b61303c806200019a6000396000f3fe60806040526004361061024a5760003560e01c80638456cb5911610139578063c9cb649f116100b6578063dc58a56c1161007a578063dc58a56c1461071c578063f14faf6f14610731578063f2fde38b14610744578063f383027b14610764578063f5aec88c14610779578063f7c618c11461079957600080fd5b8063c9cb649f14610676578063d06fcba814610696578063d1f54ac8146106b6578063d33219b4146106d6578063d90583df146106ec57600080fd5b8063a591a0f4116100fd578063a591a0f4146105e1578063b857318514610601578063ba7e7cab14610621578063c17a340e14610641578063c58531b31461065657600080fd5b80638456cb59146105415780638ab63380146105565780638da5cb5b1461057657806393a5bc411461059457806395d57660146105b457600080fd5b80634d2f0c23116101c7578063678f93501161018b578063678f9350146104915780636d956662146104a7578063715018a6146104d65780637eec20a8146104eb578063826c01aa1461050b57600080fd5b80634d2f0c23146103e75780635195bd29146103fd578063596d9ce2146104125780635c975abb146104415780636661e85e1461045957600080fd5b80633888b9d51161020e5780633888b9d5146103175780633961aa661461034d5780633af39933146103835780633f4ba83a146103b25780634a877ec3146103c757600080fd5b806302b401c9146102565780631e891c0a14610278578063202e078b1461029a5780632358d5a8146102ba57806329516511146102ea57600080fd5b3661025157005b600080fd5b34801561026257600080fd5b50475b6040519081526020015b60405180910390f35b34801561028457600080fd5b506102986102933660046129c8565b6107b9565b005b3480156102a657600080fd5b506102656102b53660046129e1565b610813565b3480156102c657600080fd5b506102da6102d5366004612a7a565b610b21565b604051901515815260200161026f565b3480156102f657600080fd5b5061030a6103053660046129c8565b610b7d565b60405161026f9190612aea565b34801561032357600080fd5b506103376103323660046129c8565b610c18565b60405161026f9a99989796959493929190612b60565b34801561035957600080fd5b50610265610368366004612bed565b6001600160a01b031660009081526010602052604090205490565b34801561038f57600080fd5b506103a361039e366004612bed565b610d63565b60405161026f93929190612c38565b3480156103be57600080fd5b50610298610fd1565b3480156103d357600080fd5b506102986103e23660046129c8565b610fe3565b3480156103f357600080fd5b5061026560095481565b34801561040957600080fd5b50610265610ff0565b34801561041e57600080fd5b5061043261042d3660046129c8565b611020565b60405161026f93929190612cbd565b34801561044d57600080fd5b5060025460ff166102da565b34801561046557600080fd5b50600754610479906001600160a01b031681565b6040516001600160a01b03909116815260200161026f565b34801561049d57600080fd5b5061026560085481565b3480156104b357600080fd5b506104c76104c2366004612bed565b611237565b60405161026f93929190612d00565b3480156104e257600080fd5b5061029861140a565b3480156104f757600080fd5b506102986105063660046129c8565b61141c565b34801561051757600080fd5b50610265610526366004612bed565b6001600160a01b03166000908152600f602052604090205490565b34801561054d57600080fd5b506102986115cd565b34801561056257600080fd5b50610298610571366004612d13565b6115dd565b34801561058257600080fd5b506000546001600160a01b0316610479565b3480156105a057600080fd5b506102986105af3660046129c8565b61166b565b3480156105c057600080fd5b506105d46105cf366004612bed565b61174d565b60405161026f9190612d56565b3480156105ed57600080fd5b506102986105fc3660046129c8565b6117b8565b34801561060d57600080fd5b5061029861061c3660046129c8565b61180f565b34801561062d57600080fd5b5061026561063c3660046129c8565b61189a565b34801561064d57600080fd5b50600354610265565b34801561066257600080fd5b50610265610671366004612bed565b6118db565b34801561068257600080fd5b506102986106913660046129c8565b61196d565b3480156106a257600080fd5b50600654610479906001600160a01b031681565b3480156106c257600080fd5b506102986106d1366004612a7a565b6119d0565b3480156106e257600080fd5b50610265600a5481565b3480156106f857600080fd5b506102da6107073660046129c8565b60009081526004602052604090205460ff1690565b34801561072857600080fd5b50600b54610265565b61029861073f3660046129c8565b611c29565b34801561075057600080fd5b5061029861075f366004612bed565b61206f565b34801561077057600080fd5b506102656120aa565b34801561078557600080fd5b50610265610794366004612bed565b61216d565b3480156107a557600080fd5b50600554610479906001600160a01b031681565b6107c16121f6565b6201518081101561080e5760405162461bcd60e51b8152602060048201526012602482015271151a5b595b1bd8dac81d1bdbc81cda1bdc9d60721b60448201526064015b60405180910390fd5b600a55565b600061081d612223565b6000851161086d5760405162461bcd60e51b815260206004820152601e60248201527f5461736b204944206d7573742062652067726561746572207468616e203000006044820152606401610805565b60008581526004602052604090205460ff16156108c55760405162461bcd60e51b81526020600482015260166024820152755461736b20494420616c72656164792065786973747360501b6044820152606401610805565b6000858152600460205260408120805460ff1916600117905560038054916108ec83612d7f565b9190505550604051806101400160405280868152602001336001600160a01b0316815260200185858080601f016020809104026020016040519081016040528093929190818152602001838380828437600092018290525093855250505060208083018690526040808401839052606084018390526080840183905260a084018390524260c085015260e0909301829052888252601181529082902083518155908301516001820180546001600160a01b0319166001600160a01b039092169190911790559082015160028201906109c49082612e30565b5060608201516003808301919091556080830151600483015560a08301516005830180546001600160a01b039092166001600160a01b031983168117825560c08601519391926001600160a81b0319161790600160a01b908490811115610a2d57610a2d612b4a565b021790555060e08201516006820180546001600160a01b0319166001600160a01b03909216919091179055610100820151600782015561012090910151600890910155336000818152601760209081526040808320805460018101825590845282842001899055928252600c9052205460ff16610ad257336000908152600c60205260408120805460ff19166001179055600b805491610acc83612d7f565b91905055505b336001600160a01b0316857f9e3c9757475c00b86393e183b68033bb76e48fa164849c7428ad17f62e1954a7868686604051610b1093929190612ef0565b60405180910390a350929392505050565b60008281526004602052604081205460ff16610b4f5760405162461bcd60e51b815260040161080590612f29565b5060008281526015602090815260408083206001600160a01b038516845290915290205460ff165b92915050565b60008181526004602052604090205460609060ff16610bae5760405162461bcd60e51b815260040161080590612f29565b60008281526013602090815260409182902080548351818402810184019094528084529091830182828015610c0c57602002820191906000526020600020905b81546001600160a01b03168152600190910190602001808311610bee575b50505050509050919050565b6000818152600460205260408120548190606090829081908190819081908190819060ff16610c595760405162461bcd60e51b815260040161080590612f29565b60008b8152601160205260409020805460018201546003830154600484015460058501546006860154600787015460088801546002890180546001600160a01b03988916989197969582811695600160a01b90910460ff1694921692908890610cc190612dae565b80601f0160208091040260200160405190810160405280929190818152602001828054610ced90612dae565b8015610d3a5780601f10610d0f57610100808354040283529160200191610d3a565b820191906000526020600020905b815481529060010190602001808311610d1d57829003601f168201915b505050505097509a509a509a509a509a509a509a509a509a509a50509193959799509193959799565b6001600160a01b0381166000908152600e60205260409020805460609182918291908067ffffffffffffffff811115610d9e57610d9e612d98565b604051908082528060200260200182016040528015610dc7578160200160208202803683370190505b5094508067ffffffffffffffff811115610de357610de3612d98565b604051908082528060200260200182016040528015610e1657816020015b6060815260200190600190039081610e015790505b5093508067ffffffffffffffff811115610e3257610e32612d98565b604051908082528060200260200182016040528015610e5b578160200160208202803683370190505b50925060005b81811015610fc757828181548110610e7b57610e7b612f56565b906000526020600020906004020160000154868281518110610e9f57610e9f612f56565b602002602001018181525050828181548110610ebd57610ebd612f56565b90600052602060002090600402016002018054610ed990612dae565b80601f0160208091040260200160405190810160405280929190818152602001828054610f0590612dae565b8015610f525780601f10610f2757610100808354040283529160200191610f52565b820191906000526020600020905b815481529060010190602001808311610f3557829003601f168201915b5050505050858281518110610f6957610f69612f56565b6020026020010181905250828181548110610f8657610f86612f56565b906000526020600020906004020160030154848281518110610faa57610faa612f56565b602090810291909101015280610fbf81612d7f565b915050610e61565b5050509193909250565b610fd96121f6565b610fe1612247565b565b610feb6121f6565b600955565b600080610ffb6120aa565b9050478082111561100f5760009250505090565b6110198282612f6c565b9250505090565b6000818152600460205260409020546060908190819060ff166110555760405162461bcd60e51b815260040161080590612f29565b600084815260126020526040902080548067ffffffffffffffff81111561107e5761107e612d98565b6040519080825280602002602001820160405280156110a7578160200160208202803683370190505b5094508067ffffffffffffffff8111156110c3576110c3612d98565b6040519080825280602002602001820160405280156110ec578160200160208202803683370190505b5093508067ffffffffffffffff81111561110857611108612d98565b604051908082528060200260200182016040528015611131578160200160208202803683370190505b50925060005b81811015610fc75782818154811061115157611151612f56565b600091825260209091206003909102015486516001600160a01b039091169087908390811061118257611182612f56565b60200260200101906001600160a01b031690816001600160a01b0316815250508281815481106111b4576111b4612f56565b9060005260206000209060030201600101548582815181106111d8576111d8612f56565b6020026020010181815250508281815481106111f6576111f6612f56565b90600052602060002090600302016002015484828151811061121a5761121a612f56565b60209081029190910101528061122f81612d7f565b915050611137565b6001600160a01b0381166000908152600d60205260409020805460609182918291908067ffffffffffffffff81111561127257611272612d98565b60405190808252806020026020018201604052801561129b578160200160208202803683370190505b5094508067ffffffffffffffff8111156112b7576112b7612d98565b6040519080825280602002602001820160405280156112e0578160200160208202803683370190505b5093508067ffffffffffffffff8111156112fc576112fc612d98565b604051908082528060200260200182016040528015611325578160200160208202803683370190505b50925060005b81811015610fc75782818154811061134557611345612f56565b90600052602060002090600402016000015486828151811061136957611369612f56565b60200260200101818152505082818154811061138757611387612f56565b9060005260206000209060040201600101548582815181106113ab576113ab612f56565b6020026020010181815250508281815481106113c9576113c9612f56565b9060005260206000209060040201600301548482815181106113ed576113ed612f56565b60209081029190910101528061140281612d7f565b91505061132b565b6114126121f6565b610fe16000612299565b6114246122e9565b61142c612223565b600081815260116020908152604080832060049092529091205460ff166114655760405162461bcd60e51b815260040161080590612f29565b60018101546001600160a01b031633146114ba5760405162461bcd60e51b815260206004820152601660248201527513db9b1e481a5cdcdd595c8818d85b8818d85b98d95b60521b6044820152606401610805565b60006005820154600160a01b900460ff1660038111156114dc576114dc612b4a565b1480611507575060016005820154600160a01b900460ff16600381111561150557611505612b4a565b145b6115535760405162461bcd60e51b815260206004820152601860248201527f5461736b2063616e6e6f742062652063616e63656c6c656400000000000000006044820152606401610805565b60058101805460ff60a01b1916600360a01b17905560068101546001600160a01b0316158015611587575060008160040154115b156115955761159582612313565b60405182907fc6eacc3aa5b2aa77b5a826b832a804ca0b71830ec74f9aa57a15edd978c31ed690600090a2506115ca60018055565b50565b6115d56121f6565b610fe1612424565b6115e56121f6565b6001600160a01b0383161561161057600580546001600160a01b0319166001600160a01b0385161790555b6001600160a01b0382161561163b57600680546001600160a01b0319166001600160a01b0384161790555b6001600160a01b0381161561166657600780546001600160a01b0319166001600160a01b0383161790555b505050565b611673612223565b6000818152601160209081526040808320601583528184203385528352818420805460ff1916600117905584845260169092528220805491926116b583612d7f565b90915550506000828152601360205260408120546116d590600290612f7f565b6116e0906001612fa1565b600084815260156020908152604080832060018701546001600160a01b0316845290915290205490915060ff161561172f576001811161172157600161172c565b61172c600182612f6c565b90505b60008381526016602052604090205481116116665761166683612461565b6001600160a01b038116600090815260176020908152604091829020805483518184028101840190945280845260609392830182828015610c0c57602002820191906000526020600020905b8154815260200190600101908083116117995750505050509050919050565b6117c06121f6565b600a81111561180a5760405162461bcd60e51b81526020600482015260166024820152750a4c2e8ca40c6c2dcdcdee840caf0c6cacac840dac2f60531b6044820152606401610805565b600855565b611817612223565b60008181526011602090815260408083206005810180546001600160a81b0319163360ff60a01b19811691909117600160a01b179091558085526017845282852080546001810182559086529385209093018590559051909284917f52476d55ecef5cf13caa64038f297fe6bbf865d9584a98b8722a15a6d5db128f9190a35050565b60008181526004602052604081205460ff166118c85760405162461bcd60e51b815260040161080590612f29565b5060009081526016602052604090205490565b6006546000906001600160a01b03166118f657506000919050565b6006546040516370a0823160e01b81526001600160a01b038481166004830152909116906370a0823190602401602060405180830381865afa92505050801561195c575060408051601f3d908101601f1916820190925261195991810190612fb4565b60015b610b7757506000919050565b919050565b611975612223565b6000818152601160205260409020600a546119909042612fa1565b6008820181905560405190815282907f9331392caf7acaf50b907ab07c10c959137e62d9e84480648e369910ca0705979060200160405180910390a25050565b6119d8612223565b600082815260116020908152604080832060049092529091205460ff16611a115760405162461bcd60e51b815260040161080590612f29565b60018101546001600160a01b03163314611a6d5760405162461bcd60e51b815260206004820152601c60248201527f4f6e6c79206973737565722063616e20736574206d756c7469736967000000006044820152606401610805565b60068101546001600160a01b031615611abf5760405162461bcd60e51b8152602060048201526014602482015273135d5b1d1a5cda59c8185b1c9958591e481cd95d60621b6044820152606401610805565b6001600160a01b038216611b155760405162461bcd60e51b815260206004820152601860248201527f496e76616c6964206d756c7469736967206164647265737300000000000000006044820152606401610805565b6006810180546001600160a01b0319166001600160a01b038416179055600481015415611bee5760048101546040516000916001600160a01b038516918381818185875af1925050503d8060008114611b8a576040519150601f19603f3d011682016040523d82523d6000602084013e611b8f565b606091505b5050905080611bec5760405162461bcd60e51b8152602060048201526024808201527f4661696c656420746f207472616e736665722066756e647320746f206d756c746044820152636973696760e01b6064820152608401610805565b505b6040516001600160a01b0383169084907f0e8711f03efc1ec0378d408dfd0dc5272ed30963acf3e815f88887c97e546d8490600090a3505050565b611c316122e9565b611c39612223565b6000818152601160209081526040808320601283528184208251606081018452338082523482870190815242838701908152845460018082018755958a52888a209451600390910290940180546001600160a01b0319166001600160a01b039095169490941784559051938301939093559151600290910155858552601484528285209085529092529091205460ff16611d205760008281526013602090815260408083208054600181810183559185528385200180546001600160a01b0319163390811790915586855260148452828520908552909252909120805460ff191690911790555b34816004016000828254611d349190612fa1565b909155505060068101546001600160a01b031615611dff5760068101546040516000916001600160a01b03169034908381818185875af1925050503d8060008114611d9b576040519150601f19603f3d011682016040523d82523d6000602084013e611da0565b606091505b5050905080611dfd5760405162461bcd60e51b815260206004820152602360248201527f4661696c656420746f20666f72776172642066756e647320746f206d756c746960448201526273696760e81b6064820152608401610805565b505b6000606460085434611e119190612fcd565b611e1b9190612f7f565b9050600081118015611e3757506005546001600160a01b031615155b1561202d5760055460405163a9059cbb60e01b8152336004820152602481018390526000916001600160a01b03169063a9059cbb906044016020604051808303816000875af1158015611e8e573d6000803e3d6000fd5b505050506040513d601f19601f82011682018060405250810190611eb29190612fe4565b905080611f015760405162461bcd60e51b815260206004820152601c60248201527f52657761726420746f6b656e207472616e73666572206661696c6564000000006044820152606401610805565b336000818152600e6020908152604080832081516080810183528781528084019586528251808401845260088152673237b730ba34b7b760c11b81860152928101928352426060820152815460018082018455928652939094208451600490940201928355935193820180546001600160a01b0319166001600160a01b039095169490941790935591519091906002820190611f9d9082612e30565b5060609190910151600390910155336000908152600f602052604081208054849290611fca908490612fa1565b909155505060405133907fb969d134776a7f04430dbbcac4e68734b1c6c5adcecbf68c3cbe6a9a4f2c8a1d9061202390858152604060208201819052600890820152673237b730ba34b7b760c11b606082015260800190565b60405180910390a2505b604051348152339084907f0b5b4c52969ff7329ecf7ee536409fda87812b15a8622bc6e8cdeab3aee14a269060200160405180910390a350506115ca60018055565b6120776121f6565b6001600160a01b0381166120a157604051631e4fbdf760e01b815260006004820152602401610805565b6115ca81612299565b60008060015b60035481116121675760008181526004602052604090205460ff1615612155576000818152601160205260408120906005820154600160a01b900460ff1660038111156120ff576120ff612b4a565b148061212a575060016005820154600160a01b900460ff16600381111561212857612128612b4a565b145b156121535760068101546001600160a01b03166121535760048101546121509084612fa1565b92505b505b8061215f81612d7f565b9150506120b0565b50919050565b6005546000906001600160a01b031661218857506000919050565b6005546040516370a0823160e01b81526001600160a01b038481166004830152909116906370a0823190602401602060405180830381865afa1580156121d2573d6000803e3d6000fd5b505050506040513d601f19601f82011682018060405250810190610b779190612fb4565b6000546001600160a01b03163314610fe15760405163118cdaa760e01b8152336004820152602401610805565b60025460ff1615610fe15760405163d93c066560e01b815260040160405180910390fd5b61224f6129a5565b6002805460ff191690557f5db9ee0a495bf2e6ff9c91a7834c1ba4fdd244a5e8aa4e537bd38aeae4b073aa335b6040516001600160a01b03909116815260200160405180910390a1565b600080546001600160a01b038381166001600160a01b0319831681178455604051919092169283917f8be0079c531659141344cd1fd0a4f28419497f9722a3daafe3b4186f6b6457e09190a35050565b60026001540361230c57604051633ee5aeb560e01b815260040160405180910390fd5b6002600155565b6000818152601260205260408120905b815481101561166657600082828154811061234057612340612f56565b906000526020600020906003020190506000816001015411156124115780546001820180546000918290556040516001600160a01b0390931692909190839083908381818185875af1925050503d80600081146123b9576040519150601f19603f3d011682016040523d82523d6000602084013e6123be565b606091505b50509050801561240d57826001600160a01b0316877f80b577b4fc190ab86d963549e29f496afd079c5d81a2480d61217d4b5060a28c8460405161240491815260200190565b60405180910390a35b5050505b508061241c81612d7f565b915050612323565b61242c612223565b6002805460ff191660011790557f62e78cea01bee320cd4e420270b5ea74000d11b0c9f74754ebdbfc544b05a25861227c3390565b600081815260116020526040902060016005820154600160a01b900460ff16600381111561249157612491612b4a565b146124de5760405162461bcd60e51b815260206004820152601a60248201527f5461736b206e6f7420696e2061737369676e65642073746174650000000000006044820152606401610805565b60058101805460ff60a01b1916600160a11b17905560068101546001600160a01b0316158015612512575060008160040154115b1561260d57600581015460048201546040516000926001600160a01b031691908381818185875af1925050503d806000811461256a576040519150601f19603f3d011682016040523d82523d6000602084013e61256f565b606091505b50509050806125c05760405162461bcd60e51b815260206004820181905260248201527f4661696c656420746f2073656e642066756e647320746f2061737369676e65656044820152606401610805565b600582015460048301546040519081526001600160a01b039091169084907f6e3c6096795c8298a218b2cfb8bde42726ff7c9a3d27b4d3ba41ab7f74feb5fb9060200160405180910390a3505b6005546001600160a01b03161561285157600580549082015460095460405163a9059cbb60e01b81526001600160a01b0392831660048201526024810191909152600092919091169063a9059cbb906044016020604051808303816000875af115801561267e573d6000803e3d6000fd5b505050506040513d601f19601f820116820180604052508101906126a29190612fe4565b9050806126ff5760405162461bcd60e51b815260206004820152602560248201527f41737369676e65652072657761726420746f6b656e207472616e736665722066604482015264185a5b195960da1b6064820152608401610805565b60058201546001600160a01b039081166000818152600e602090815260408083208151608081018352600954815280840195865282518084018452600a81526931b7b6b83632ba34b7b760b11b81860152928101928352426060820152815460018082018455928652939094208451600490940201928355935193820180546001600160a01b0319169490951693909317909355905190919060028201906127a79082612e30565b506060919091015160039091015560095460058301546001600160a01b0316600090815260106020526040812080549091906127e4908490612fa1565b909155505060058201546009546040805191825260208201819052600a828201526931b7b6b83632ba34b7b760b11b6060830152516001600160a01b03909216917fb969d134776a7f04430dbbcac4e68734b1c6c5adcecbf68c3cbe6a9a4f2c8a1d9181900360800190a2505b6006546001600160a01b0316156129765760005b60008381526013602052604090205481101561297457600083815260136020526040812080548390811061289b5761289b612f56565b6000918252602080832091909101546001600160a01b03908116808452600d8352604080852081516080810183528a81528086018981528184018581524260608401908152845460018082018755958b529989902093516004909a0290930198895590519288019290925590516002870180546001600160a01b0319169190951617909355915160039094019390935551848152919250859183917f8e161a3174142f22dd7607c4a48f5199274e54b3838a9ff3a27528a2f1a60c1b910160405180910390a3508061296c81612d7f565b915050612865565b505b60405182907fc1fa7142cfb933d0855114a3bffde296944c30b727f297c14d0db4d553d3a5c790600090a25050565b60025460ff16610fe157604051638dfc202b60e01b815260040160405180910390fd5b6000602082840312156129da57600080fd5b5035919050565b600080600080606085870312156129f757600080fd5b84359350602085013567ffffffffffffffff80821115612a1657600080fd5b818701915087601f830112612a2a57600080fd5b813581811115612a3957600080fd5b886020828501011115612a4b57600080fd5b95986020929092019750949560400135945092505050565b80356001600160a01b038116811461196857600080fd5b60008060408385031215612a8d57600080fd5b82359150612a9d60208401612a63565b90509250929050565b600081518084526020808501945080840160005b83811015612adf5781516001600160a01b031687529582019590820190600101612aba565b509495945050505050565b602081526000612afd6020830184612aa6565b9392505050565b6000815180845260005b81811015612b2a57602081850181015186830182015201612b0e565b506000602082860101526020601f19601f83011685010191505092915050565b634e487b7160e01b600052602160045260246000fd5b8a81526001600160a01b038a8116602083015261014060408301819052600091612b8c8483018d612b04565b92508a606085015289608085015280891660a085015260048810612bc057634e487b7160e01b600052602160045260246000fd5b8760c085015280871660e0850152505083610100830152826101208301529b9a5050505050505050505050565b600060208284031215612bff57600080fd5b612afd82612a63565b600081518084526020808501945080840160005b83811015612adf57815187529582019590820190600101612c1c565b606081526000612c4b6060830186612c08565b6020838203818501528186518084528284019150828160051b85010183890160005b83811015612c9b57601f19878403018552612c89838351612b04565b94860194925090850190600101612c6d565b50508681036040880152612caf8189612c08565b9a9950505050505050505050565b606081526000612cd06060830186612aa6565b8281036020840152612ce28186612c08565b90508281036040840152612cf68185612c08565b9695505050505050565b606081526000612cd06060830186612c08565b600080600060608486031215612d2857600080fd5b612d3184612a63565b9250612d3f60208501612a63565b9150612d4d60408501612a63565b90509250925092565b602081526000612afd6020830184612c08565b634e487b7160e01b600052601160045260246000fd5b600060018201612d9157612d91612d69565b5060010190565b634e487b7160e01b600052604160045260246000fd5b600181811c90821680612dc257607f821691505b60208210810361216757634e487b7160e01b600052602260045260246000fd5b601f82111561166657600081815260208120601f850160051c81016020861015612e095750805b601f850160051c820191505b81811015612e2857828155600101612e15565b505050505050565b815167ffffffffffffffff811115612e4a57612e4a612d98565b612e5e81612e588454612dae565b84612de2565b602080601f831160018114612e935760008415612e7b5750858301515b600019600386901b1c1916600185901b178555612e28565b600085815260208120601f198616915b82811015612ec257888601518255948401946001909101908401612ea3565b5085821015612ee05787850151600019600388901b60f8161c191681555b5050505050600190811b01905550565b604081528260408201528284606083013760006060848301015260006060601f19601f8601168301019050826020830152949350505050565b60208082526013908201527215185cdac8191bd95cc81b9bdd08195e1a5cdd606a1b604082015260600190565b634e487b7160e01b600052603260045260246000fd5b81810381811115610b7757610b77612d69565b600082612f9c57634e487b7160e01b600052601260045260246000fd5b500490565b80820180821115610b7757610b77612d69565b600060208284031215612fc657600080fd5b5051919050565b8082028115828204841417610b7757610b77612d69565b600060208284031215612ff657600080fd5b81518015158114612afd57600080fdfea26469706673582212207143c17ccbabd20dec5ded31b20565fc64b061f5098079317f5b4d1162700fc264736f6c63430008140033",
  "immutableReferences": {},
  "source": "// SPDX-License-Identifier: MIT\npragma solidity ^0.8.20;\n\nimport \"@openzeppelin/contracts/access/Ownable.sol\";\nimport \"@openzeppelin/contracts/token/ERC20/IERC20.sol\";\nimport \"@openzeppelin/contracts/token/ERC721/IERC721.sol\";\nimport \"@openzeppelin/contracts/utils/ReentrancyGuard.sol\";\nimport \"@openzeppelin/contracts/utils/Pausable.sol\";\n\n/**\n * @title TrailMaintenance\n * @dev \n */\ncontract TrailMaintenance is Ownable, ReentrancyGuard, Pausable {\n    \n    // \n    uint256 private constant MAX_REWARD_RATE = 10; // 10%\n    uint256 private constant MIN_TIMELOCK = 1 days; // 1\n    \n    // \n    enum TaskStatus { Created, Assigned, Completed, Cancelled }\n    \n    // \n    struct Task {\n        uint256 id;\n        address issuer;\n        string description;\n        uint256 targetAmount;\n        uint256 currentAmount;\n        address assignee;\n        TaskStatus status;\n        address multiSigWallet;\n        uint256 createdAt;\n        uint256 completionTime; // \n    }\n    \n    // \n    struct Donation {\n        address donor;\n        uint256 amount;\n        uint256 timestamp;\n    }\n    \n    // NFT\n    struct NFTReward {\n        uint256 taskId;\n        uint256 tokenId;\n        address recipient;\n        uint256 timestamp;\n    }\n    \n    // Token\n    struct TokenReward {\n        uint256 amount;\n        address recipient;\n        string reason;\n        uint256 timestamp;\n    }\n    \n    // \n    uint256 private _taskCount; // ID\n    mapping(uint256 => bool) private _taskExists; // ID\n    IERC20 public rewardToken;\n    address public nftToken;\n    address public multiSigFactory;\n    uint256 public donationRewardRate = 1000000; // 1000000% \n    uint256 public assigneeRewardAmount = 100 * 10**18; // 100 tokens\n    uint256 public timelock = 2 days; // 2\n    \n    // \n    uint256 private _totalContributors; // \n    mapping(address => bool) private _isContributor; // \n    \n    // NFTToken\n    mapping(address => NFTReward[]) private _userNFTRewards; // NFT\n    mapping(address => TokenReward[]) private _userTokenRewards; // Token\n    mapping(address => uint256) private _donationRewardsTotal; // Token\n    mapping(address => uint256) private _completionRewardsTotal; // Token\n    \n    // \n    mapping(uint256 => Task) private _tasks;\n    mapping(uint256 => Donation[]) private _donations;\n    mapping(uint256 => address[]) private _donorsList;\n    mapping(uint256 => mapping(address => bool)) private _hasDonated;\n    mapping(uint256 => mapping(address => bool)) private _approvals;\n    mapping(uint256 => uint256) private _approvalCounts;\n    mapping(address => uint256[]) private _userTasks; // \n    \n    // \n    event TaskCreated(uint256 indexed taskId, address indexed issuer, string description, uint256 targetAmount);\n    event TaskAssigned(uint256 indexed taskId, address indexed assignee);\n    event DonationReceived(uint256 indexed taskId, address indexed donor, uint256 amount);\n    event TokensRewarded(address indexed recipient, uint256 amount, string reason);\n    event NFTRewarded(address indexed recipient, uint256 tokenId, uint256 indexed taskId);\n    event TaskCompleted(uint256 indexed taskId);\n    event TaskCancelled(uint256 indexed taskId);\n    event FundsReleased(uint256 indexed taskId, address indexed recipient, uint256 amount);\n    event FundsRefunded(uint256 indexed taskId, address indexed donor, uint256 amount);\n    event MultiSigCreated(uint256 indexed taskId, address indexed multiSigWallet);\n    event CompletionRequested(uint256 indexed taskId, uint256 unlockTime);\n    \n    /**\n     * @dev \n     * @param _rewardToken \n     * @param _nftToken NFT\n     * @param _multiSigFactory \n     */\n    constructor(\n        address _rewardToken,\n        address _nftToken,\n        address _multiSigFactory\n    ) Ownable(msg.sender) {\n        rewardToken = IERC20(_rewardToken);\n        nftToken = _nftToken;\n        multiSigFactory = _multiSigFactory;\n    }\n    \n    /**\n     * @dev \n     */\n    function pause() external onlyOwner {\n        _pause();\n    }\n    \n    /**\n     * @dev \n     */\n    function unpause() external onlyOwner {\n        _unpause();\n    }\n    \n    /**\n     * @dev \n     * @param _taskId ID\n     * @param _description \n     * @param _targetAmount  (0)\n     * @return ID\n     */\n    function createTask(uint256 _taskId, string calldata _description, uint256 _targetAmount) external whenNotPaused returns (uint256) {\n        require(_taskId > 0, \"Task ID must be greater than 0\");\n        require(!_taskExists[_taskId], \"Task ID already exists\");\n        \n        _taskExists[_taskId] = true;\n        _taskCount++;\n        \n        _tasks[_taskId] = Task({\n            id: _taskId,\n            issuer: msg.sender,\n            description: _description,\n            targetAmount: _targetAmount,\n            currentAmount: 0,\n            assignee: address(0),\n            status: TaskStatus.Created,\n            multiSigWallet: address(0),\n            createdAt: block.timestamp,\n            completionTime: 0\n        });\n        \n        // ID\n        _userTasks[msg.sender].push(_taskId);\n        \n        // \n        if (!_isContributor[msg.sender]) {\n            _isContributor[msg.sender] = true;\n            _totalContributors++;\n        }\n        \n        emit TaskCreated(_taskId, msg.sender, _description, _targetAmount);\n        \n        return _taskId;\n    }\n    \n    /**\n     * @dev \n     * @param _taskId ID\n     */\n    function assignTask(uint256 _taskId) external whenNotPaused {\n        Task storage task = _tasks[_taskId];\n        \n        // require(_taskExists[_taskId], \"Task does not exist\");\n        // require(task.status == TaskStatus.Created, \"Task cannot be assigned\");\n        // require(task.assignee == address(0), \"Task already assigned\");\n        // require(msg.sender != task.issuer, \"Issuer cannot be assignee\");\n        \n        task.assignee = msg.sender;\n        task.status = TaskStatus.Assigned;\n        \n        // ID\n        _userTasks[msg.sender].push(_taskId);\n        \n        emit TaskAssigned(_taskId, msg.sender);\n    }\n    \n    /**\n     * @dev \n     * @param _taskId ID\n     */\n    function donate(uint256 _taskId) external payable nonReentrant whenNotPaused {\n        Task storage task = _tasks[_taskId];\n        \n        // require(_taskExists[_taskId], \"Task does not exist\");\n        // require(task.status == TaskStatus.Created || task.status == TaskStatus.Assigned, \"Task cannot receive donations\");\n        // require(msg.value > 0, \"Donation amount must be greater than 0\");\n        \n        // \n        // if (task.targetAmount > 0) {\n        //     require(task.currentAmount + msg.value <= task.targetAmount, \"Exceeds target amount\");\n        // }\n        \n        // \n        _donations[_taskId].push(Donation({\n            donor: msg.sender,\n            amount: msg.value,\n            timestamp: block.timestamp\n        }));\n        \n        // \n        if (!_hasDonated[_taskId][msg.sender]) {\n            _donorsList[_taskId].push(msg.sender);\n            _hasDonated[_taskId][msg.sender] = true;\n        }\n        \n        // \n        task.currentAmount += msg.value;\n        \n        // \n        if (task.multiSigWallet != address(0)) {\n            (bool success, ) = task.multiSigWallet.call{value: msg.value}(\"\");\n            require(success, \"Failed to forward funds to multisig\");\n        }\n        \n        // \n        uint256 rewardAmount = (msg.value * donationRewardRate) / 100;\n        if (rewardAmount > 0 && address(rewardToken) != address(0)) {\n            bool success = rewardToken.transfer(msg.sender, rewardAmount);\n            require(success, \"Reward token transfer failed\");\n            \n            // Token\n            _userTokenRewards[msg.sender].push(TokenReward({\n                amount: rewardAmount,\n                recipient: msg.sender,\n                reason: \"donation\",\n                timestamp: block.timestamp\n            }));\n            \n            // \n            _donationRewardsTotal[msg.sender] += rewardAmount;\n            \n            emit TokensRewarded(msg.sender, rewardAmount, \"donation\");\n        }\n        \n        emit DonationReceived(_taskId, msg.sender, msg.value);\n    }\n    \n    /**\n     * @dev \n     * @param _taskId ID\n     * @param _multiSigWallet \n     */\n    function setMultiSigWallet(uint256 _taskId, address _multiSigWallet) external whenNotPaused {\n        Task storage task = _tasks[_taskId];\n        \n        require(_taskExists[_taskId], \"Task does not exist\");\n        require(msg.sender == task.issuer, \"Only issuer can set multisig\");\n        require(task.multiSigWallet == address(0), \"Multisig already set\");\n        require(_multiSigWallet != address(0), \"Invalid multisig address\");\n        \n        task.multiSigWallet = _multiSigWallet;\n        \n        // \n        if (task.currentAmount > 0) {\n            (bool success, ) = _multiSigWallet.call{value: task.currentAmount}(\"\");\n            require(success, \"Failed to transfer funds to multisig\");\n        }\n        \n        emit MultiSigCreated(_taskId, _multiSigWallet);\n    }\n    \n    /**\n     * @dev \n     * @param _taskId ID\n     */\n    function requestCompletion(uint256 _taskId) external whenNotPaused {\n        Task storage task = _tasks[_taskId];\n        \n        // require(_taskExists[_taskId], \"Task does not exist\");\n        // require(task.status == TaskStatus.Assigned, \"Task not in assigned state\");\n        // require(msg.sender == task.assignee, \"Only assignee can request completion\");\n        // require(task.completionTime == 0, \"Completion already requested\");\n        \n        // +\n        task.completionTime = block.timestamp + timelock;\n        \n        emit CompletionRequested(_taskId, task.completionTime);\n    }\n    \n    /**\n     * @dev \n     * @param _taskId ID\n     */\n    function approveCompletion(uint256 _taskId) external whenNotPaused {\n        Task storage task = _tasks[_taskId];\n        \n        // require(_taskExists[_taskId], \"Task does not exist\");\n        // require(task.status == TaskStatus.Assigned, \"Task not in assigned state\");\n        // require(task.completionTime > 0 && block.timestamp >= task.completionTime, \"Time lock not expired\");\n        // require(msg.sender == task.issuer || _hasDonated[_taskId][msg.sender], \"Not authorized to approve\");\n        // require(!_approvals[_taskId][msg.sender], \"Already approved\");\n        \n        _approvals[_taskId][msg.sender] = true;\n        _approvalCounts[_taskId]++;\n        \n        // \n        uint256 requiredApprovals = (_donorsList[_taskId].length / 2) + 1;\n        \n        // -1\n        if (_approvals[_taskId][task.issuer]) {\n            requiredApprovals = requiredApprovals > 1 ? requiredApprovals - 1 : 1;\n        }\n        \n        if (_approvalCounts[_taskId] >= requiredApprovals) {\n            _completeTask(_taskId);\n        }\n    }\n    \n    /**\n     * @dev  ()\n     * @param _taskId ID\n     */\n    function _completeTask(uint256 _taskId) internal {\n        Task storage task = _tasks[_taskId];\n        \n        require(task.status == TaskStatus.Assigned, \"Task not in assigned state\");\n        \n        task.status = TaskStatus.Completed;\n        \n        // \n        if (task.multiSigWallet == address(0) && task.currentAmount > 0) {\n            (bool success, ) = task.assignee.call{value: task.currentAmount}(\"\");\n            require(success, \"Failed to send funds to assignee\");\n            emit FundsReleased(_taskId, task.assignee, task.currentAmount);\n        }\n        \n        // \n        if (address(rewardToken) != address(0)) {\n            bool success = rewardToken.transfer(task.assignee, assigneeRewardAmount);\n            require(success, \"Assignee reward token transfer failed\");\n            \n            // Token\n            _userTokenRewards[task.assignee].push(TokenReward({\n                amount: assigneeRewardAmount,\n                recipient: task.assignee,\n                reason: \"completion\",\n                timestamp: block.timestamp\n            }));\n            \n            // \n            _completionRewardsTotal[task.assignee] += assigneeRewardAmount;\n            \n            emit TokensRewarded(task.assignee, assigneeRewardAmount, \"completion\");\n        }\n        \n        // NFT (NFT)\n        if (nftToken != address(0)) {\n            // NFTNFT\n            // NFT\n            for (uint256 i = 0; i < _donorsList[_taskId].length; i++) {\n                address donor = _donorsList[_taskId][i];\n                \n                // NFT\n                _userNFTRewards[donor].push(NFTReward({\n                    taskId: _taskId,\n                    tokenId: i,  // NFTtokenId\n                    recipient: donor,\n                    timestamp: block.timestamp\n                }));\n                \n                // NFT\n                emit NFTRewarded(donor, i, _taskId);\n            }\n        }\n        \n        emit TaskCompleted(_taskId);\n    }\n    \n    /**\n     * @dev \n     * @param _taskId ID\n     */\n    function cancelTask(uint256 _taskId) external nonReentrant whenNotPaused {\n        Task storage task = _tasks[_taskId];\n        \n        require(_taskExists[_taskId], \"Task does not exist\");\n        require(msg.sender == task.issuer, \"Only issuer can cancel\");\n        require(task.status == TaskStatus.Created || task.status == TaskStatus.Assigned, \"Task cannot be cancelled\");\n        \n        task.status = TaskStatus.Cancelled;\n        \n        // \n        if (task.multiSigWallet == address(0) && task.currentAmount > 0) {\n            _refundDonations(_taskId);\n        }\n        \n        emit TaskCancelled(_taskId);\n    }\n    \n    /**\n     * @dev  ()\n     * @param _taskId ID\n     */\n    function _refundDonations(uint256 _taskId) internal {\n        Donation[] storage taskDonations = _donations[_taskId];\n        \n        for (uint256 i = 0; i < taskDonations.length; i++) {\n            Donation storage donation = taskDonations[i];\n            \n            if (donation.amount > 0) {\n                address donor = donation.donor;\n                uint256 amount = donation.amount;\n                \n                // 0\n                donation.amount = 0;\n                \n                (bool success, ) = donor.call{value: amount}(\"\");\n                if (success) {\n                    emit FundsRefunded(_taskId, donor, amount);\n                }\n            }\n        }\n    }\n    \n    /**\n     * @dev \n     * @param _rate  ()\n     */\n    function setDonationRewardRate(uint256 _rate) external onlyOwner {\n        require(_rate <= MAX_REWARD_RATE, \"Rate cannot exceed max\");\n        donationRewardRate = _rate;\n    }\n    \n    /**\n     * @dev \n     * @param _amount \n     */\n    function setAssigneeRewardAmount(uint256 _amount) external onlyOwner {\n        assigneeRewardAmount = _amount;\n    }\n    \n    /**\n     * @dev \n     * @param _timelock \n     */\n    function setTimelock(uint256 _timelock) external onlyOwner {\n        require(_timelock >= MIN_TIMELOCK, \"Timelock too short\");\n        timelock = _timelock;\n    }\n    \n    /**\n     * @dev \n     * @param _rewardToken \n     * @param _nftToken NFT\n     * @param _multiSigFactory \n     */\n    function setContractAddresses(\n        address _rewardToken,\n        address _nftToken,\n        address _multiSigFactory\n    ) external onlyOwner {\n        if (_rewardToken != address(0)) rewardToken = IERC20(_rewardToken);\n        if (_nftToken != address(0)) nftToken = _nftToken;\n        if (_multiSigFactory != address(0)) multiSigFactory = _multiSigFactory;\n    }\n    \n    /**\n     * @dev \n     * @param _taskId ID\n     */\n    function getTaskDetails(uint256 _taskId) external view returns (\n        uint256 id,\n        address issuer,\n        string memory description,\n        uint256 targetAmount,\n        uint256 currentAmount,\n        address assignee,\n        TaskStatus status,\n        address multiSigWallet,\n        uint256 createdAt,\n        uint256 completionTime\n    ) {\n        require(_taskExists[_taskId], \"Task does not exist\");\n        Task storage task = _tasks[_taskId];\n        return (\n            task.id,\n            task.issuer,\n            task.description,\n            task.targetAmount,\n            task.currentAmount,\n            task.assignee,\n            task.status,\n            task.multiSigWallet,\n            task.createdAt,\n            task.completionTime\n        );\n    }\n    \n    /**\n     * @dev \n     * @param _taskId ID\n     */\n    function getDonations(uint256 _taskId) external view returns (\n        address[] memory donors,\n        uint256[] memory amounts,\n        uint256[] memory timestamps\n    ) {\n        require(_taskExists[_taskId], \"Task does not exist\");\n        Donation[] storage taskDonations = _donations[_taskId];\n        uint256 count = taskDonations.length;\n        \n        donors = new address[](count);\n        amounts = new uint256[](count);\n        timestamps = new uint256[](count);\n        \n        for (uint256 i = 0; i < count; i++) {\n            donors[i] = taskDonations[i].donor;\n            amounts[i] = taskDonations[i].amount;\n            timestamps[i] = taskDonations[i].timestamp;\n        }\n        \n        return (donors, amounts, timestamps);\n    }\n    \n    /**\n     * @dev \n     * @param _taskId ID\n     */\n    function getDonors(uint256 _taskId) external view returns (address[] memory) {\n        require(_taskExists[_taskId], \"Task does not exist\");\n        return _donorsList[_taskId];\n    }\n    \n    /**\n     * @dev \n     * @param _user \n     */\n    function getUserTasks(address _user) external view returns (uint256[] memory) {\n        return _userTasks[_user];\n    }\n    \n    /**\n     * @dev \n     */\n    function getTaskCount() external view returns (uint256) {\n        return _taskCount;\n    }\n    \n    /**\n     * @dev \n     * @param _taskId ID\n     */\n    function taskExists(uint256 _taskId) external view returns (bool) {\n        return _taskExists[_taskId];\n    }\n    \n    /**\n     * @dev \n     * @param _taskId ID\n     * @param _user \n     */\n    function hasApproved(uint256 _taskId, address _user) external view returns (bool) {\n        require(_taskExists[_taskId], \"Task does not exist\");\n        return _approvals[_taskId][_user];\n    }\n    \n    /**\n     * @dev \n     * @param _taskId ID\n     */\n    function getApprovalCount(uint256 _taskId) external view returns (uint256) {\n        require(_taskExists[_taskId], \"Task does not exist\");\n        return _approvalCounts[_taskId];\n    }\n    \n    /**\n     * @dev \n     * @return ETH\n     */\n    function getTotalFundBalance() external view returns (uint256) {\n        return address(this).balance;\n    }\n    \n    /**\n     * @dev \n     * @return ETH\n     */\n    function getAllocatedFunds() public view returns (uint256) {\n        uint256 totalAllocated = 0;\n        // currentAmount\n        for (uint256 i = 1; i <= _taskCount; i++) {\n            if (_taskExists[i]) {\n                Task storage task = _tasks[i];\n                if (task.status == TaskStatus.Created || task.status == TaskStatus.Assigned) {\n                    // \n                    if (task.multiSigWallet == address(0)) {\n                        // \n                        totalAllocated += task.currentAmount;\n                    }\n                }\n            }\n        }\n        return totalAllocated;\n    }\n    \n    /**\n     * @dev  - \n     * @return ETH\n     */\n    function getAvailableFunds() external view returns (uint256) {\n        uint256 allocated = getAllocatedFunds();\n        uint256 balance = address(this).balance;\n        \n        // \n        if (allocated > balance) {\n            return 0;\n        }\n        \n        return balance - allocated;\n    }\n    \n    /**\n     * @dev \n     * @return \n     */\n    function getTotalContributors() external view returns (uint256) {\n        return _totalContributors;\n    }\n    \n    /**\n     * @dev Token\n     * @param _user \n     * @return Token\n     */\n    function getUserTokenBalance(address _user) external view returns (uint256) {\n        if (address(rewardToken) == address(0)) {\n            return 0;\n        }\n        return rewardToken.balanceOf(_user);\n    }\n    \n    /**\n     * @dev Token\n     * @param _user \n     * @return \n     */\n    function getUserDonationRewards(address _user) external view returns (uint256) {\n        return _donationRewardsTotal[_user];\n    }\n    \n    /**\n     * @dev Token\n     * @param _user \n     * @return \n     */\n    function getUserCompletionRewards(address _user) external view returns (uint256) {\n        return _completionRewardsTotal[_user];\n    }\n    \n    /**\n     * @dev Token\n     * @param _user \n     * @return amounts \n     * @return reasons \n     * @return timestamps \n     */\n    function getUserTokenRewards(address _user) external view returns (\n        uint256[] memory amounts,\n        string[] memory reasons,\n        uint256[] memory timestamps\n    ) {\n        TokenReward[] storage rewards = _userTokenRewards[_user];\n        uint256 count = rewards.length;\n        \n        amounts = new uint256[](count);\n        reasons = new string[](count);\n        timestamps = new uint256[](count);\n        \n        for (uint256 i = 0; i < count; i++) {\n            amounts[i] = rewards[i].amount;\n            reasons[i] = rewards[i].reason;\n            timestamps[i] = rewards[i].timestamp;\n        }\n        \n        return (amounts, reasons, timestamps);\n    }\n    \n    /**\n     * @dev NFT\n     * @param _user \n     * @return taskIds ID\n     * @return tokenIds NFTID\n     * @return timestamps \n     */\n    function getUserNFTRewards(address _user) external view returns (\n        uint256[] memory taskIds,\n        uint256[] memory tokenIds,\n        uint256[] memory timestamps\n    ) {\n        NFTReward[] storage rewards = _userNFTRewards[_user];\n        uint256 count = rewards.length;\n        \n        taskIds = new uint256[](count);\n        tokenIds = new uint256[](count);\n        timestamps = new uint256[](count);\n        \n        for (uint256 i = 0; i < count; i++) {\n            taskIds[i] = rewards[i].taskId;\n            tokenIds[i] = rewards[i].tokenId;\n            timestamps[i] = rewards[i].timestamp;\n        }\n        \n        return (taskIds, tokenIds, timestamps);\n    }\n    \n    /**\n     * @dev NFT\n     * @param _user \n     * @return NFT\n     */\n    function getUserNFTBalance(address _user) external view returns (uint256) {\n        if (nftToken == address(0)) {\n            return 0;\n        }\n        \n        try IERC721(nftToken).balanceOf(_user) returns (uint256 balance) {\n            return balance;\n        } catch {\n            return 0;\n        }\n    }\n    \n    /**\n     * @dev ETH\n     */\n    receive() external payable {\n        // ETH\n    }\n}",
  "sourcePath": "/Users/yosgi/freelancer/Volunteers3/contracts/contracts/TrailMaintenance.sol",
  "compiler": {
    "name": "solc",
    "version": "0.8.20+commit.a1b79de6.Emscripten.clang"
  },
  "schemaVersion": "3.4.16",
  "updatedAt": "2025-03-22T21:30:42.708Z",
  "networkType": "ethereum",
  "devdoc": {
    "details": "",
    "errors": {
      "EnforcedPause()": [
        {
          "details": "The operation failed because the contract is paused."
        }
      ],
      "ExpectedPause()": [
        {
          "details": "The operation failed because the contract is not paused."
        }
      ],
      "OwnableInvalidOwner(address)": [
        {
          "details": "The owner is not a valid owner account. (eg. `address(0)`)"
        }
      ],
      "OwnableUnauthorizedAccount(address)": [
        {
          "details": "The caller account is not authorized to perform an operation."
        }
      ],
      "ReentrancyGuardReentrantCall()": [
        {
          "details": "Unauthorized reentrant call."
        }
      ]
    },
    "events": {
      "Paused(address)": {
        "details": "Emitted when the pause is triggered by `account`."
      },
      "Unpaused(address)": {
        "details": "Emitted when the pause is lifted by `account`."
      }
    },
    "kind": "dev",
    "methods": {
      "approveCompletion(uint256)": {
        "details": "",
        "params": {
          "_taskId": "ID"
        }
      },
      "assignTask(uint256)": {
        "details": "",
        "params": {
          "_taskId": "ID"
        }
      },
      "cancelTask(uint256)": {
        "details": "",
        "params": {
          "_taskId": "ID"
        }
      },
      "constructor": {
        "details": "",
        "params": {
          "_multiSigFactory": "",
          "_nftToken": "NFT",
          "_rewardToken": ""
        }
      },
      "createTask(uint256,string,uint256)": {
        "details": "",
        "params": {
          "_description": "",
          "_targetAmount": " (0)",
          "_taskId": "ID"
        },
        "returns": {
          "_0": "ID"
        }
      },
      "donate(uint256)": {
        "details": "",
        "params": {
          "_taskId": "ID"
        }
      },
      "getAllocatedFunds()": {
        "details": "",
        "returns": {
          "_0": "ETH"
        }
      },
      "getApprovalCount(uint256)": {
        "details": "",
        "params": {
          "_taskId": "ID"
        }
      },
      "getAvailableFunds()": {
        "details": " - ",
        "returns": {
          "_0": "ETH"
        }
      },
      "getDonations(uint256)": {
        "details": "",
        "params": {
          "_taskId": "ID"
        }
      },
      "getDonors(uint256)": {
        "details": "",
        "params": {
          "_taskId": "ID"
        }
      },
      "getTaskCount()": {
        "details": ""
      },
      "getTaskDetails(uint256)": {
        "details": "",
        "params": {
          "_taskId": "ID"
        }
      },
      "getTotalContributors()": {
        "details": "",
        "returns": {
          "_0": ""
        }
      },
      "getTotalFundBalance()": {
        "details": "",
        "returns": {
          "_0": "ETH"
        }
      },
      "getUserCompletionRewards(address)": {
        "details": "Token",
        "params": {
          "_user": ""
        },
        "returns": {
          "_0": ""
        }
      },
      "getUserDonationRewards(address)": {
        "details": "Token",
        "params": {
          "_user": ""
        },
        "returns": {
          "_0": ""
        }
      },
      "getUserNFTBalance(address)": {
        "details": "NFT",
        "params": {
          "_user": ""
        },
        "returns": {
          "_0": "NFT"
        }
      },
      "getUserNFTRewards(address)": {
        "details": "NFT",
        "params": {
          "_user": ""
        },
        "returns": {
          "taskIds": "ID",
          "timestamps": "",
          "tokenIds": "NFTID"
        }
      },
      "getUserTasks(address)": {
        "details": "",
        "params": {
          "_user": ""
        }
      },
      "getUserTokenBalance(address)": {
        "details": "Token",
        "params": {
          "_user": ""
        },
        "returns": {
          "_0": "Token"
        }
      },
      "getUserTokenRewards(address)": {
        "details": "Token",
        "params": {
          "_user": ""
        },
        "returns": {
          "amounts": "",
          "reasons": "",
          "timestamps": ""
        }
      },
      "hasApproved(uint256,address)": {
        "details": "",
        "params": {
          "_taskId": "ID",
          "_user": ""
        }
      },
      "owner()": {
        "details": "Returns the address of the current owner."
      },
      "pause()": {
        "details": ""
      },
      "paused()": {
        "details": "Returns true if the contract is paused, and false otherwise."
      },
      "renounceOwnership()": {
        "details": "Leaves the contract without owner. It will not be possible to call `onlyOwner` functions. Can only be called by the current owner. NOTE: Renouncing ownership will leave the contract without an owner, thereby disabling any functionality that is only available to the owner."
      },
      "requestCompletion(uint256)": {
        "details": "",
        "params": {
          "_taskId": "ID"
        }
      },
      "setAssigneeRewardAmount(uint256)": {
        "details": "",
        "params": {
          "_amount": ""
        }
      },
      "setContractAddresses(address,address,address)": {
        "details": "",
        "params": {
          "_multiSigFactory": "",
          "_nftToken": "NFT",
          "_rewardToken": ""
        }
      },
      "setDonationRewardRate(uint256)": {
        "details": "",
        "params": {
          "_rate": " ()"
        }
      },
      "setMultiSigWallet(uint256,address)": {
        "details": "",
        "params": {
          "_multiSigWallet": "",
          "_taskId": "ID"
        }
      },
      "setTimelock(uint256)": {
        "details": "",
        "params": {
          "_timelock": ""
        }
      },
      "taskExists(uint256)": {
        "details": "",
        "params": {
          "_taskId": "ID"
        }
      },
      "transferOwnership(address)": {
        "details": "Transfers ownership of the contract to a new account (`newOwner`). Can only be called by the current owner."
      },
      "unpause()": {
        "details": ""
      }
    },
    "title": "TrailMaintenance",
    "version": 1
  },
  "userdoc": {
    "kind": "user",
    "methods": {},
    "version": 1
  }
}